:020000040800F2
:10000000E804002045010008950900088D09000852
:1000100091090008B9010008C50D000800000000A2
:10002000000000000000000000000000D90A0008E5
:10003000A9020008000000001D0A0008C90B000802
:100040005F0100085F0100085F0100085F01000810
:100050005F0100085F010008E90300083D05000892
:100060005F0100085F0100085F0100085F010008F0
:100070005F0100085F0100085F0100085F010008E0
:100080005F0100085F0100085F0100085F010008D0
:100090005F0100085F0100085F0100088505000896
:1000A0005F0100085F0100085F0100085F010008B0
:1000B0005F0100085F0100085F0100085F010008A0
:1000C0005F0100085F0100085F0100085F01000890
:1000D0005F010008290C00085F0100085F010008AB
:1000E000310400085F0100085F0100085F0100089B
:1000F0005F0100085F0100085F0100085F01000860
:100100005F0100085F0100085F0100085F0100084F
:100110005F0100085F0100085F0100085F0100083F
:100120005F0100085F0100085F0100085F0100082F
:10013000DFF80CD000F02EF800480047010E000850
:10014000E80400200648804706480047FEE7FEE72F
:10015000FEE7FEE7FEE7FEE7FEE7FEE7FEE7FEE777
:10016000D10B00083101000830B50B4601460020D4
:100170002022012409E021FA02F59D4205D303FA69
:1001800002F5491B04FA02F52844151EA2F10102EA
:10019000F1DC30BD064C074D06E0E06840F001039D
:1001A00094E8070098471034AC42F6D3FFF7C4FF39
:1001B000A4100008C4100008FEE7000080B540F25B
:1001C000DA00C2F200000188102906D840F20A01C4
:1001D000C2F200010988123100E001880180018823
:1001E0001239018000F006FE014608A000F074FEFE
:1001F00040F2E000C2F200000021017040F208006D
:10020000C2F200000121017080BD00BFC4E6CAB186
:10021000D5EB0AB5B1C7B0B6C8CAFDCEAAA3BA25F8
:10022000640D0A00B0B540F2DA05C2F20005288874
:1002300040F20A0112302880C2F2000128880988A1
:10024000002488424FF0000098BF2888288000F0E2
:10025000D1FD014609A000F03FFE29880DA000F065
:100260003BFE40F2E000C2F20000047040F20800E1
:10027000C2F2000001210170B0BD00BFCBB3CAB112
:10028000D5EB0AB5B1C7B0B6C8CAFDCEAAA3BA2588
:10029000640D0A00B5B1C7B06D656E75CEAAA3BA7C
:1002A00025640D0A0000000070470000B0B582B060
:1002B0001020012100F0B4FB602041F20004C4F6DC
:1002C0000300C4F2010401AD01902046294600F06C
:1002D000FFFA40F28010C4F6030001902046294640
:1002E00000F0F6FA02B0B0BD80B502A000F0BEFE8C
:1002F00080BD00BF4543315F4357575F4143544979
:1003000056452D2D0D00000080B502A000F0AEFE78
:1003100080BD00BF4543315F43575F414354495659
:10032000452D2D0D0000000080B502A000F09EFEBE
:1003300080BD00BF4543325F4357575F4143544937
:1003400056452D2D0D00000080B502A000F08EFE58
:1003500080BD00BF4543325F43575F414354495618
:10036000452D2D0D0000000080B502A000F07EFE9E
:1003700080BD00BF4543335F4357575F41435449F6
:1003800056452D2D0D00000080B502A000F06EFE38
:1003900080BD00BF4543335F43575F4143544956D7
:1003A000452D2D0D0000000080B502A000F05EFE7E
:1003B00080BD00BF4543345F4357575F41435449B5
:1003C00056452D2D0D00000080B502A000F04EFE18
:1003D00080BD00BF4543345F43575F414354495696
:1003E000452D2D0D0000000010B5012000F014FA7D
:1003F000D0B141F20004C4F201042046022100F011
:10040000BFFA012840F2E000C2F2000004BF01215F
:1004100001700078022807D12046022100F0B0FACE
:10042000002808BFFFF7FEFE012000F0EFF910BD25
:10043000B0B541F200044FF48060C4F2010400F052
:10044000EBF940F2E005C2F20005A8B120464FF4F6
:10045000006100F095FA012804BF01202870287877
:10046000022809D120464FF4006100F089FA18B93A
:10047000FFF78AFF002028704FF4806000F0C6F973
:100480004FF4006000F0C8F9A8B120464FF4806135
:1004900000F076FA012804BF02202870287801288D
:1004A00009D120464FF4806100F06AFA18B9FFF7CD
:1004B0005BFF002028704FF4006000F0A7F94FF4B4
:1004C000805000F0A9F9A8B120464FF4005100F087
:1004D00057FA012804BF012028702878022809D182
:1004E00020464FF4005100F04BFA18B9FFF76CFFAB
:1004F000002028704FF4805000F088F94FF400502D
:1005000000F08AF9A8B120464FF4805100F038FA83
:10051000012804BF022028702878012809D120462C
:100520004FF4805100F02CFA18B9FFF73DFF00207E
:1005300028704FF4005000F069F9B0BD10B50220EA
:1005400000F06AF9D0B141F20004C4F2010420467F
:10055000012100F015FA012840F2E000C2F200008B
:1005600004BF022101700078012807D12046012133
:1005700000F006FA002808BFFFF720FE022000F076
:1005800045F910BDB0B541F200042020C4F20104C9
:1005900000F042F940F2E005C2F2000598B12046B1
:1005A000402100F0EDF9012804BF012028702878CF
:1005B000022808D12046402100F0E2F918B9FFF7DF
:1005C000A3FE00202870202000F020F9402000F039
:1005D00023F998B12046202100F0D2F9012804BF68
:1005E000022028702878012808D12046202100F018
:1005F000C7F918B9FFF778FE00202870402000F0F6
:1006000005F9802000F008F9A8B120464FF4807168
:1006100000F0B6F9012804BF0120287028780228CC
:1006200009D120464FF4807100F0AAF918B9FFF7FC
:100630008BFE00202870802000F0E8F84FF48070D6
:1006400000F0EAF898B12046802100F099F90128DD
:1006500004BF022028702878012808D12046802174
:1006600000F08EF918B9FFF75FFE002028704FF4F4
:10067000807000F0CBF8B0BDF0B583B0012001214F
:10068000012500F0CDF9FFF711FE0220002102271D
:1006900000F006F901AC4FF4406620460195ADF834
:1006A00008608DF80A5000F0C7F80220012100F020
:1006B000F7F820460197ADF808608DF80A5000F071
:1006C000BBF80220052100F0EBF820200190204625
:1006D000ADF808608DF80A5000F0AEF8022006214F
:1006E00000F0DEF8402001902046ADF808608DF85B
:1006F0000A5000F0A1F80220072100F0D1F8802074
:1007000001902046ADF808608DF80A5000F094F88A
:100710000220082100F0C4F84FF4807001902046B8
:10072000ADF808608DF80A5000F086F802200A2122
:1007300000F0B6F84FF4806001902046ADF80860F4
:100740008DF80A5000F078F802200B2100F0A8F88C
:100750004FF4006001902046ADF808608DF80A5013
:1007600000F06AF802200C2100F09AF84FF4805053
:1007700001902046ADF808608DF80A5000F05CF852
:1007800002200D2100F08CF84FF40050019020461B
:10079000ADF808608DF80A5000F04EF84FF4A060F4
:1007A00000F02AF940F20620C0F202106C460090D8
:1007B000204600F0F1F84FF4A06000F01DF940F27F
:1007C0000720C0F202100090204600F0E5F84FF438
:1007D000A06000F011F940F21720C0F20210009062
:1007E000204600F0D9F84FF4A06000F005F940F27F
:1007F0002820C0F202100090204600F0CDF84FF4FF
:10080000F07000F003F803B0F0BD000040F21441B6
:10081000C4F201010860704740F20041C4F20101D6
:100820000A6849690240084018BF0120002A18BF21
:1008300001221040704700008179002940F20041F8
:10084000C4F201011FD002680B6893430B604B6830
:1008500093434B60037943EA010CDCF800301A4300
:10086000CCF8002002688B6893438B60CB6893437D
:10087000CB60407910280ED1886810438860C86822
:100880001043C86070470279006811430A6822EA81
:100890000000086070470843016811430160704719
:1008A00010B50C22082402EA810201F0FC01C4F216
:1008B00001044FF00F0C51F804E00CFA02F32EEA99
:1008C00003030B510B5990401843085110BD000011
:1008D0002DE9F041CA7802F00F0CD30644BF8B78A3
:1008E0004CEA030C09880B0621D0056800234FF061
:1008F00001084FF00F0E002608E000BF282A08BFAD
:1009000047610136082E03F104030FD008FA06F7F9
:100910000F42F6D00EFA03F425EA04040CFA03F5AC
:10092000482A45EA0405E9D10761EAE70560B1F51F
:10093000807F38BFBDE8F081446800234FF4807E9B
:100940004FF00F08002607E0282A08BF476101364C
:10095000082E03F1040310D00EFA06F707EA01058A
:10096000BD42F4D108FA03F5AC430CFA03F5482A6A
:1009700044EA0504E8D10761E9E74460BDE8F08195
:100980008068084018BF012070470000FEE70000A3
:10099000FEE700007047000010B5C17800294EF254
:1009A0000011CEF200011AD04EF60C52CEF2000227
:1009B0001268072323EA12220F23C2F1040C23FA40
:1009C00002F24378847890F800E003FA0CF32240B6
:1009D0001A43120101EB0E0383F8002300E080317B
:1009E0000078012300F01F0203FA02F2C0F3421064
:1009F00041F8202010BD000040F080604EF60C5100
:100A000040F0FD70CEF20001086070474EF62351B1
:100A10000001CEF20001087070470000704700002E
:100A2000002941F21801C4F202010A680CBF22EA4F
:100A3000000010430860704710B541F20404C4F28E
:100A40000204226802F00C02082A41F20022C0F2DD
:100A50007A021CD12368D4F800C0C3F3834E5FEA46
:100A6000CC330EF1020C06D440F60012C0F23D0267
:100A70000CFB02F20BE023689B0302D40CFB02F296
:100A800005E040F60012C0F23D020CFB02F20260EB
:100A9000226841F29403C2F30312C0F600039A5C89
:100AA0000168D14041602268C2F302229A5C21FAB7
:100AB00002F282602268C2F3C2229A5C41F2900381
:100AC000D140C1602268C0F60003C2F381329A5C53
:100AD000B1FBF2F1016110BD7047000080B500F07C
:100AE00001F880BD82B041F204000021C4F202008E
:100AF0000191009150F8041C41F4803140F8041C2D
:100B000050F8041C01F40031009101990131019168
:100B1000009919B90199B1F5A06FF1D150F8041CF1
:100B2000890354BF0021012100910099012936D188
:100B300042F20001C4F202010A6842F010020A60A7
:100B40000A6822F003020A600A6842F002020A60A0
:100B50000168016001680160016841F48061016021
:100B6000016821F47C110160016841F4E811016021
:100B700050F8041C41F0807140F8041C50F8041C2B
:100B80008901FBD5016821F003010160016841F092
:100B900002010160016801F00C010829FAD102B0DC
:100BA0007047000010B520F07F404EF2100401386D
:100BB000CEF2000460600F20FFF728FF0020A06045
:100BC0000720206010BD000080B500F0FDF880BD5A
:100BD00080B541F20000C4F202000168002241F039
:100BE000010101604168CFF6FF02114041600168D8
:100BF0004FF6FF72CFF6F66211400160016821F4F2
:100C000080210160416821F4FE0141604FF41F0121
:100C10008160FFF763FF4EF60850CEF200004FF000
:100C20000061016080BD000010B543F60004C4F20D
:100C30000104204640F2255100F034F838B3204634
:100C400000F0BCF840F2D801C2F200010A88130497
:100C500048BF10BD5304C0B205D40D280AD142F4D8
:100C60008040088010BD0A2814BF002042F40040D4
:100C7000088010BD40F21004531C6FF39F32C2F283
:100C80000004A05498B2C72888BF00230B8010BD71
:100C90008289002918BF012122F4005242EA413121
:100CA00081817047C1F34212022A06D0012A14BF83
:100CB00000F1140200F10C0201E000F110021288B0
:100CC000008801F01F03090ADA40C840104000F014
:100CD00001007047C1F3421301F01F0C1421022BD5
:100CE00008BF1021012B4FF0010308BF0C21002A7F
:100CF00003FA0CF243580CBF23EA02021A43425093
:100D00007047000070B586B00446008A0D46C98859
:100D100020F4405008432082A0894EF6F311084089
:100D2000A9882A896B89084310431843A081A08AA7
:100D3000A98920F44070084301AEA0823046FFF735
:100D40007BFE43F6000106F10800C4F201018C426B
:100D500008BF06F10C0000681922B4F90C105043CA
:100D60002A680123B1F1FF3FC8BF022302FA03F151
:100D7000B0FBF1F048F21F51C5F2EB11A0FB0123CB
:100D80005A096FF0630302FB0300B4F90C30032629
:100D9000B3F1FF3FC8BF042600FA06F000F13200AD
:100DA000A0FB01014FF00700C8BF0F2000EA51105F
:100DB00040EA0210208106B070BD000080886FF309
:100DC0005F207047FEE7000040F2DC00C2F2000046
:100DD0000168002908BF7047016801390160704748
:100DE00043F60001C4F201010A885206FCD5C2B2E2
:100DF0008A80704740F2DA00C2F200000088704733
:100E000000F012F84FF4E13000F022F84FF4A06047
:100E1000FFF7F2FD03A000F05FF8FFF72DFC00BF25
:100E2000FEE700BF7364610080B540F20400C2F2C7
:100E3000000000684DF68361C4F21B31A0FB010184
:100E4000880CFFF7AFFE0020FFF7E0FD80BD00003B
:100E5000F0B587B0054644F204000121FFF7E0FD3C
:100E600043F6000440F20020C4F20104C1F603007E
:100E7000A4F5405606AF069030463946FFF728FDE8
:100E80004FF48060ADF8180004208DF81B00304648
:100E90003946FFF71DFD40F22530C0F203100190E6
:100EA00001A8FFF779FD00204FF440210390049141
:100EB000ADF8140002A920460295FFF723FF204653
:100EC00040F225510122FFF705FF20460121FFF7DF
:100ED000DFFE07B0F0BD00000FB4054B10B503A94D
:100EE000044A029800F018F810BC5DF814FB0000EA
:100EF000E10D00080000002002E008C8121F08C130
:100F0000002AFAD170477047002001E001C1121F8A
:100F1000002AFBD1704700002DE9FF4F89B09B46A6
:100F20000446002506E025280BD05A460B99904729
:100F3000641C6D1C20780028F5D10DB02846BDE852
:100F4000F08F0027B8460122474900E0074314F814
:100F5000013F203B02FA03F00842F7D120782E2807
:100F600019D114F8010F47F004072A280ED06FF0AA
:100F70002F022078A0F1300109290CD808EB880154
:100F800002EB410100EB0108641CF2E70A98641CC3
:100F900050F8048B0A9020780028CED0642808D01E
:100FA000692806D075281ED05A460B9990476D1CAB
:100FB00058E00A994FF00A0901C90A91002802DA9B
:100FC00040422D2102E0390504D52B218DF8201057
:100FD000012103E0F90704D02021F7E78A4608AE93
:100FE0000DE00021FAE70A994FF00A0901C90A91B8
:100FF000F7E74946FFF7B8F8303106F8011D002839
:10100000F7D1ADEB060000F12009780701D44FF0CD
:101010000108C84502DDA8EB090000E00020804679
:10102000002706E008A85A46C05D0B9990476D1C42
:101030007F1C5745F6DB04E030205A460B99904759
:101040006D1CB8F10001A8F10108F5DC05E016F807
:10105000010B5A460B9990476D1CB9F10001A9F19B
:101060000109F4DC641C65E70928010010B5044699
:1010700001E0FFF7B5FE14F8010B04490028F8D190
:10108000BDE810400A20FFF7ABBE000000000020C2
:101090000204060800000000010203040102030428
:1010A00006070809C8100008000000201000000012
:1010B000F80E0008D810000810000020D804000026
:1010C000080F0008000000000000000000A24A0411
:0810D00001005A0000000000BD
:0400000508000131BD
:00000001FF
