:020000040800F2
:10000000E8040020450100085909000851090008CA
:1000100055090008B9010008490D0008000000005A
:100020000000000000000000000000008D0A000831
:10003000BD01000800000000D1090008910A000875
:100040005F0100085F0100085F0100085F01000810
:100050005F0100085F010008A102000869040008B0
:100060005F0100085F0100085F0100085F010008F0
:100070005F0100085F0100085F0100085F010008E0
:100080005F0100085F0100085F0100085F010008D0
:100090005F0100085F0100085F0100080505000816
:1000A0005F0100085F0100085F0100085F010008B0
:1000B0005F0100085F0100085F0100085F010008A0
:1000C0005F0100085F0100085F0100085F01000890
:1000D0005F010008A50B00085F0100085F01000830
:1000E000590300085F0100085F0100085F01000874
:1000F0005F0100085F0100085F0100085F01000860
:100100005F0100085F0100085F0100085F0100084F
:100110005F0100085F0100085F0100085F0100083F
:100120005F0100085F0100085F0100085F0100082F
:10013000DFF80CD000F02EF800480047790D0008D9
:10014000E80400200648804706480047FEE7FEE72F
:10015000FEE7FEE7FEE7FEE7FEE7FEE7FEE7FEE777
:10016000950A00083101000830B50B460146002011
:100170002022012409E021FA02F59D4205D303FA69
:1001800002F5491B04FA02F52844151EA2F10102EA
:10019000F1DC30BD064C074D06E0E06840F001039D
:1001A00094E8070098471034AC42F6D3FFF7C4FF39
:1001B0003410000854100008FEE7000070470000EB
:1001C00001A000F01BBF00BF4543315F4357575F9D
:1001D0004143544956452D2D0D00000001A000F06B
:1001E0000DBF00BF4543315F43575F4143544956FC
:1001F000452D2D0D0000000001A000F0FFBE00BF46
:100200004543325F4357575F4143544956452D2D6F
:100210000D00000001A000F0F1BE00BF4543325FB9
:1002200043575F4143544956452D2D0D00000000B2
:1002300001A000F0E3BE00BF4543335F4357575F63
:100240004143544956452D2D0D00000001A000F0FA
:10025000D5BE00BF4543335F43575F4143544956C2
:10026000452D2D0D0000000001A000F0C7BE00BF0D
:100270004543345F4357575F4143544956452D2DFD
:100280000D00000001A000F0B9BE00BF4543345F7F
:1002900043575F4143544956452D2D0D0000000042
:1002A00070B5012000F092FAD0B341F20004C4F21C
:1002B00001042046022100F045FB40F2E005012840
:1002C000C2F2000504BF012028702878022827D137
:1002D0002046022100F036FB10BB40F2DA06C2F2E3
:1002E0000006308840F20A0112303080C2F200016C
:1002F00030880988002488424FF0000098BF308879
:100300003080318809A000F0AFFD31880DA000F0E9
:10031000ABFD40F20800C2F2000001212C70017018
:100320000120BDE8704000F04BBA00BFCBB3CAB1AA
:10033000D5EB0AB5B1C7B0B6C8CAFDCEAAA3BA25D7
:10034000640D0A00B5B1C7B06D656E75CEAAA3BACB
:1003500025640D0A00000000B0B541F200044FF41E
:100360008060C4F2010400F031FA40F2E005C2F20C
:100370000005A8B120464FF4006100F0E3FA01281F
:1003800004BF012028702878022809D120464FF4A4
:10039000006100F0D7FA18B9FFF758FF0020287065
:1003A0004FF4806000F00CFA4FF4006000F00EFA99
:1003B000A8B120464FF4806100F0C4FA012804BFC0
:1003C000022028702878012809D120464FF4806146
:1003D00000F0B8FA18B9FFF72BFF002028704FF48F
:1003E000006000F0EDF94FF4805000F0EFF9A8B193
:1003F00020464FF4005100F0A5FA012804BF012067
:1004000028702878022809D120464FF4005100F0C6
:1004100099FA18B9FFF736FF002028704FF4805082
:1004200000F0CEF94FF4005000F0D0F9A8B120460A
:100430004FF4805100F086FA012804BF0220287092
:100440002878012809D120464FF4805100F07AFA2B
:1004500018B9FFF709FF002028704FF40050BDE8DD
:10046000B04000F0ADB90000B0B5022000F0AEF928
:10047000B0B341F20004C4F201042046012100F0AF
:1004800061FA40F2E0050128C2F2000504BF022033
:1004900028702878012823D12046012100F052FA43
:1004A000F0B940F2DA00C2F200000188102906D843
:1004B00040F20A01C2F200010988123100E001880D
:1004C0000180018812390180018808A000F0CCFC6D
:1004D0000020287040F20800C2F2000001210170E3
:1004E0000220BDE8B04000F06BB900BFC4E6CAB15D
:1004F000D5EB0AB5B1C7B0B6C8CAFDCEAAA3BA2516
:10050000640D0A00B0B541F200042020C4F20104D9
:1005100000F05CF940F2E005C2F2000598B1204617
:10052000402100F00FFA012804BF0120287028782C
:10053000022808D12046402100F004FA18B9FFF73C
:100540004DFE00202870202000F03AF9402000F0F5
:100550003DF998B12046202100F0F4F9012804BFAC
:10056000022028702878012808D12046202100F098
:10057000E9F918B9FFF724FE00202870402000F0A8
:100580001FF9802000F022F9A8B120464FF48071B5
:1005900000F0D8F9012804BF01202870287802282B
:1005A00009D120464FF4807100F0CCF918B9FFF75B
:1005B00031FE00202870802000F002F94FF4807096
:1005C00000F004F998B12046802100F0BBF9012821
:1005D00004BF022028702878012808D120468021F5
:1005E00000F0B0F918B9FFF707FE002028704FF4AB
:1005F0008070BDE8B04000F0E3B80000F0B583B013
:1006000001200121012600F0E5F91020012100F070
:10061000E1F9602041F20004C4F60300C4F20104D1
:1006200001AD01902046294600F02CF940F28010DF
:10063000C4F6030001902046294600F023F9022069
:100640000021022700F006F901AC4FF44065204676
:100650000196ADF808508DF80A6000F0C7F8022046
:10066000012100F0F7F820460197ADF808508DF809
:100670000A6000F0BBF80220052100F0EBF8202012
:1006800001902046ADF808508DF80A6000F0AEF8F1
:100690000220062100F0DEF8402001902046ADF84F
:1006A00008508DF80A6000F0A1F80220072100F040
:1006B000D1F8802001902046ADF808508DF80A60EE
:1006C00000F094F80220082100F0C4F84FF4807084
:1006D00001902046ADF808508DF80A6000F086F8C9
:1006E00002200A2100F0B6F84FF480600190204605
:1006F000ADF808508DF80A6000F078F802200B2160
:1007000000F0A8F84FF4006001902046ADF80850C2
:100710008DF80A6000F06AF802200C2100F09AF8C7
:100720004FF4805001902046ADF808508DF80A60D3
:1007300000F05CF802200D2100F08CF84FF400501E
:1007400001902046ADF808508DF80A6000F04EF890
:100750004FF4A06000F032F940F20620C0F202101F
:100760006C460090204600F0F9F84FF4A06000F0CD
:1007700025F940F20720C0F202100090204600F058
:10078000EDF84FF4A06000F019F940F21720C0F224
:1007900002100090204600F0E1F84FF4A06000F055
:1007A0000DF940F22820C0F202100090204600F01F
:1007B000D5F84FF4F07000F003F803B0F0BD00007E
:1007C00040F21441C4F201010860704740F2004158
:1007D000C4F201010A6849690240084018BF0120BB
:1007E000002A18BF012210407047000081790029BB
:1007F00040F20041C4F201011FD002680B6893432C
:100800000B604B6893434B60037943EA010CDCF8BF
:1008100000301A43CCF8002002688B6893438B6049
:10082000CB689343CB60407910280ED18868104381
:100830008860C8681043C860704702790068114337
:100840000A6822EA00000860704708430168114303
:100850000160704710B50C22082402EA810201F001
:10086000FC01C4F201044FF00F0C51F804E00CFA43
:1008700002F32EEA03030B510B5990401843085121
:1008800010BD00002DE9F047CA7802F00F0CD30626
:1008900044BF8B784CEA030C09880B0625D08246AE
:1008A0005AF8144B00F1100E00254FF001094FF0DB
:1008B0000F08002706E000BF1E600137082F05F172
:1008C000040511D009FA07F60E42F6D008FA05F32E
:1008D00024EA03030CFA05F41C43282A5346EBD000
:1008E000482AEAD17346E7E70460B1F5807F38BF54
:1008F000BDE8F087436800F1100E00F114090025EF
:100900004FF4807A4FF00F08002705E0346001377C
:10091000082F05F1040512D00AFA07F404EA0106CB
:10092000A642F4D108FA05F6B3430CFA05F63343B0
:10093000282A4E46EAD0482AE9D17646E6E74360BF
:10094000BDE8F0878068084018BF012070470000AC
:10095000FEE70000FEE700007047000010B5C17818
:1009600000294EF20011CEF200011AD04EF60C52C0
:10097000CEF200021268072323EA12220F23C2F1EB
:10098000040C23FA02F24378847890F800E003FA2A
:100990000CF322401A43120101EB0E0383F80023EB
:1009A00000E080310078012300F01F0203FA02F218
:1009B000C0F3421041F8202010BD000040F08060DC
:1009C0004EF60C5140F0FD70CEF200010860704709
:1009D00070470000002941F21801C4F202010A68C0
:1009E0000CBF22EA000010430860704710B541F2C6
:1009F0000404C4F20204226802F00C02082A41F244
:100A00000022C0F27A021CD12368D4F800C0C3F3DC
:100A1000834E5FEACC330EF1020C06D440F600128E
:100A2000C0F23D020CFB02F20BE023689B0302D4F0
:100A30000CFB02F205E040F60012C0F23D020CFB96
:100A400002F20260226841F22403C2F30312C0F6EC
:100A500000039A5C0168D14041602268C2F302221F
:100A60009A5C21FA02F282602268C2F3C2229A5C86
:100A700041F22003D140C1602268C0F60003C2F3F6
:100A800081329A5CB1FBF2F1016110BD7047000048
:100A900000F05CB982B041F20400C4F2020050F8E8
:100AA000041C002241F0010140F8041C0168CFF64B
:100AB000FF021140016050F8041C4FF6FF72CFF6A0
:100AC000F662114040F8041C50F8041C21F4802107
:100AD00040F8041C016821F4FE0101604FF41F017D
:100AE000416000210191009150F8041C41F48031D3
:100AF00040F8041C50F8041C01F4003100910199E5
:100B000001310191009919B90199B1F5A06FF1D1A5
:100B100050F8041C890354BF002101210091009961
:100B2000012936D142F20001C4F202010A6842F002
:100B300010020A600A6822F007020A600A6842F09E
:100B400002020A600168016001680160016841F405
:100B500080610160016821F47C110160016841F449
:100B6000E811016050F8041C41F0807140F8041C49
:100B700050F8041C8901FBD5016821F003010160D4
:100B8000016841F002010160016801F00C010829CF
:100B9000FAD14EF60850CEF200004FF0006101602D
:100BA00002B0704710B543F60004C4F201042046B9
:100BB00040F2255100F038F850B3204600F0C0F85C
:100BC00040F2D801C2F200010B881AB2002A48BFD5
:100BD00010BD5C04C4B204D40D2C0CD142F480408E
:100BE00015E048F200030020CFF6FF730A2C08BF7F
:100BF00042EA03000BE040F210006FF39F33C2F2B1
:100C00000000C454501C82B2C72A88BF002008804C
:100C100010BD00008289002918BF012122F4005272
:100C200042EA413181817047C1F34212022A06D063
:100C3000012A14BF00F1140200F10C0201E000F1DE
:100C400010021288008801F01F03090ADA40C84028
:100C5000104000F001007047C1F3421301F01F0C77
:100C60001421022B08BF1021012B4FF0010308BFF4
:100C70000C21002A03FA0CF243580CBF23EA0202AB
:100C80001A4342507047000070B586B00446008A8F
:100C90000D46C98820F4405008432082A0894EF6B2
:100CA000F3110840A9882A896B8908431043184327
:100CB000A081A08AA98920F44070084301AEA082D7
:100CC0003046FFF793FE43F6000106F10800C4F238
:100CD00001018C4208BF06F10C0000681922B4F92A
:100CE0000C1050432A680123B1F1FF3FC8BF022313
:100CF00002FA03F1B0FBF1F048F21F51C5F2EB111B
:100D0000A0FB01235A096FF0630302FB0300B4F94F
:100D10000C300326B3F1FF3FC8BF042600FA06F0EB
:100D200000F13200A0FB01014FF00700C8BF0F2007
:100D300000EA511040EA0210208106B070BD0000A8
:100D400080886FF35F207047FEE7000040F2DC0010
:100D5000C2F200000168002908BF7047016801392C
:100D60000160704743F60001C4F201010A8852068F
:100D7000FCD5C2B28A80704700F012F84FF4E1301F
:100D800000F02EF84FF4A060FFF718FE03A000F06B
:100D90006BF8FFF733FC00BFFEE700BF7364610030
:100DA00040F20400C2F2000000684DF68361C4F214
:100DB0001B31A0FB01014FF0FF3000EB91404EF2E0
:100DC0001001CEF2000148604EF62350CEF2000032
:100DD000F0220270002207238A600B6002707047C5
:100DE000F0B587B0054644F204000121FFF7F2FD9B
:100DF00043F6000440F20020C4F20104C1F60300EF
:100E0000A4F5405606AF069030463946FFF73AFD46
:100E10004FF48060ADF8180004208DF81B003046B8
:100E20003946FFF72FFD40F22530C0F20310019044
:100E300001A8FFF793FD00204FF440210390049197
:100E4000ADF8140002A920460295FFF71DFF2046C9
:100E500040F225510122FFF7FFFE20460121FFF756
:100E6000D9FE07B0F0BD00000FB4054B10B503A9C3
:100E7000044A029800F018F810BC5DF814FB00005A
:100E8000650D00080000002002E008C8121F08C11C
:100E9000002AFAD170477047002001E001C1121FFB
:100EA000002AFBD1704700002DE9FF4F89B09B4617
:100EB0000446002506E025280BD05A460B9990479A
:100EC000641C6D1C20780028F5D10DB02846BDE8C3
:100ED000F08F0027B8460122474900E0074314F885
:100EE000013F203B02FA03F00842F7D120782E2878
:100EF00019D114F8010F47F004072A280ED06FF01B
:100F00002F022078A0F1300109290CD808EB8801C4
:100F100002EB410100EB0108641CF2E70A98641C33
:100F200050F8048B0A9020780028CED0642808D08E
:100F3000692806D075281ED05A460B9990476D1C1B
:100F400058E00A994FF00A0901C90A91002802DA0B
:100F500040422D2102E0390504D52B218DF82010C7
:100F6000012103E0F90704D02021F7E78A4608AE03
:100F70000DE00021FAE70A994FF00A0901C90A9128
:100F8000F7E74946FFF7F0F8303106F8011D002871
:100F9000F7D1ADEB060000F12009780701D44FF03E
:100FA0000108C84502DDA8EB090000E000208046EA
:100FB000002706E008A85A46C05D0B9990476D1CB3
:100FC0007F1C5745F6DB04E030205A460B999047CA
:100FD0006D1CB8F10001A8F10108F5DC05E016F878
:100FE000010B5A460B9990476D1CB9F10001A9F10C
:100FF0000109F4DC641C65E70928010010B504460A
:1010000001E0FFF7AFFE14F8010B04490028F8D106
:10101000BDE810400A20FFF7A5BE00000000002038
:101020000204060800000000010203040102030498
:1010300006070809581000080000002010000000F2
:10104000880E00086810000810000020D804000076
:10105000980E0008000000000000000000A24A04F2
:0810600001005A00000000002D
:0400000508000131BD
:00000001FF
