:020000040800F2
:10000000A024002055140008310300083303000821
:10001000370300083B0300083F030008000000000E
:100020000000000000000000000000004303000882
:1000300045030008000000004703000849030008CA
:100040006F1400086F1400086F1400086F14000884
:100050006F1400086F1400086F1400081F0D0008CB
:100060006F1400086F1400086F1400086F14000864
:100070006F1400086F1400086F1400086F14000854
:100080006F1400086F1400086F1400086F14000844
:10009000E52700086F1400086F140008AD0C000875
:1000A0006F1400086F1400086F1400086F14000824
:1000B0006F1400086F1400086F1400086F14000814
:1000C0006F1400086F1400086F1400086F14000804
:1000D0006F140008C91300086F1400086F1400089B
:1000E0006F1400086F140008ED2700086F14000853
:1000F0006F1400086F1400086F1400086F140008D4
:100100006F1400086F1400086F1400086F140008C3
:100110006F1400086F1400086F1400086F140008B3
:100120006F1400086F1400086F1400086F140008A3
:10013000DFF810D004F072FA00480047ED01000823
:10014000AFF30080A024002070B504460D460020C7
:100150006A49087088700822012004F0FBF9012028
:1001600003F0A0FE70BD70B504460D46002D3CD1D5
:1001700000F092FDD0B95CB90020604908700420FD
:1001800088700822012004F0E5F9012003F08AFEBE
:10019000012C0BD1002059490870082088700822D2
:1001A000012004F0D7F9012003F07CFE00F074FD7B
:1001B00012281AD15CB900205049087010208870AC
:1001C0000822012004F0C6F9012003F06BFE012C87
:1001D0000BD10020494908700820887008220120AE
:1001E00004F0B8F9012003F05DFE70BD1FB54FF6B5
:1001F000FF7003904FF4A06001F03EF94FF4E1303E
:1002000001F096F801F01EF800F058FC02F064FAD4
:1002100002F08AFA02F071FA03F0A0FB00F025FA6E
:1002200000F050FE00F0E5FC00F071FB00F0A4FED1
:100230004FF400720021324800F063FF4FF4007267
:100240000021304800F0B6FE00F019FE04462146B9
:100250002DA004F03FFA2B4930A004F03BFA4CE00B
:1002600003A800F006FA00F01AFD002845D000F0BF
:100270004EFB00F011FD58B900200121214A202336
:10028000CDE9002102908022014600F0A0FB2EE083
:1002900000F002FD12280BD100200121234A202367
:1002A000CDE9002102901D220A2000F090FB1EE003
:1002B00000F0F2FC24280BD100200121104A202359
:1002C000CDE9002102908022014600F080FB0EE083
:1002D00000F0E2FC36280AD100200121134A202335
:1002E000CDE9002102901D22162000F070FB00F0E5
:1002F000D9FC4FF4167000F0E2FFB1E7BC08002013
:1003000008000020580A00205732355158585F52D3
:1003100065616449443D2025640D0A00726561648D
:100320005F646174613D2025730D0A00080200209E
:10033000704700BFFEE700BFFEE700BFFEE700BF5B
:10034000FEE7704770477047704700000CB500200B
:10035000019000906C48006840F480306A49086061
:1003600000BF6948006800F4003000900198401C0C
:100370000190009818B90198B0F5A06FF1D16248CA
:10038000006800F4003010B10120009001E000206E
:1003900000900098012843D15C48006840F01000AC
:1003A0005A4908600846006820F0030008600846C3
:1003B000006840F0020008605348406852494860B5
:1003C0000846406848600846406840F480604860DD
:1003D0000846406820F47C1048600846406840F4B5
:1003E000E81048600846006840F08070086000BF70
:1003F0004548006800F000700028F9D04248406885
:1004000020F00300404948600846406840F0020080
:10041000486000BF3C48406800F00C000828F9D153
:100420000CBD10B5FFF792FF10BD10B5364800683F
:1004300040F00100344908600846406834490840EB
:100440003149486008460068324908402E49086032
:100450000846006820F4802008600846406820F4C0
:10046000FE0048604FF41F008860FFF7DAFF4FF08E
:1004700000602949086010BD10B50021002000224D
:10048000214B5B6803F00C0121B1042906D0082937
:1004900028D107E0214B224C236027E01F4B204C42
:1004A000236023E0184B5B6803F47010164B5B6805
:1004B00003F48032022303EB904022B9194B4343EB
:1004C000174C23600DE0104B5B6803F4003323B13D
:1004D000144B4343124C236003E0104B4343104C36
:1004E000236003E00D4B0E4C236000BF00BF064BA2
:1004F0005B68C3F303130C4CE15C094B1B68CB40F6
:10050000074C236010BD0000001002400020024094
:100510000000FFF8FFFFF6FE08ED00E000127A0091
:10052000D408002000093D00D808002008B50121AA
:10053000402001F02BFB1720ADF8000010208DF8B3
:10054000030003208DF8020069466E4801F062F84E
:100550000121082001F01AFB4FF46470ADF800008F
:1005600048208DF8030003208DF802006946664894
:1005700001F050F808BD10B504462CB94FF40071D5
:10058000614801F0DAF810BD012C04D121025E4867
:1005900001F0D3F8F7E7022C04D180215A4801F08A
:1005A000CCF8F0E7032C04D11021574801F0C5F82E
:1005B000E9E700BFE7E710B504469CB90022012136
:1005C000504801F0D8F8012202214E4801F0D3F83A
:1005D000012204214B4801F0CEF8012210214948A4
:1005E00001F0C9F8012C13D101221146454801F050
:1005F000C2F800220221434801F0BDF80122042183
:10060000404801F0B8F8012210213E4801F0B3F84B
:10061000022C13D1012211463A4801F0ACF8012214
:100620000221384801F0A7F800220421354801F0E2
:10063000A2F801221021334801F09DF8032C13D1B8
:10064000012211462F4801F096F8012202212D487F
:1006500001F091F8012204212A4801F08CF80022CF
:100660001021284801F087F810BD10B5FFF75EFF94
:1006700010BD70B5064600243EE02046FFF79BFF04
:10068000002535E02846FFF776FFA8B905EB840181
:100690001E480088084100F0010068B105EB8401A4
:1006A000012088401949098881431848018029465A
:1006B0002046FFF758FD19E02846FFF75CFF0128A8
:1006C00014D105EB840111480088084100F00100B5
:1006D00060B905EB8401012088400C490988084372
:1006E0000A49088029462046FFF72EFD681CC5B23E
:1006F000042DC7DB601CC4B2042CBEDB0348008899
:10070000308070BD00180140000C0140E808002056
:1007100000B585B04FF44040ADF800004FF4827052
:10072000ADF802000020ADF804000220ADF806008C
:100730000120ADF808004002ADF80A000020ADF835
:100740000C00ADF80E000720ADF810006946FE4819
:1007500001F038FD01220221FB4801F000FE0121D9
:10076000F94801F0D4FD05B000BD00B58BB0012102
:10077000084601F0FEF9F54801F084FEF2480C301D
:100780000090F34801901020029080010390002017
:1007900004908020059000200690079008904FF468
:1007A0008050099000200A906946E84801F00CFF4B
:1007B0000121E64801F033FF0BB000BD10B504463F
:1007C0001021E44800F0D5FF00BF0221DE4801F00F
:1007D00022FE0028F9D02146DB4801F0C9FD0122A4
:1007E0000221D94801F0BBFD00BF8021D64801F0AD
:1007F00012FE0128F9D000220221D34801F0AFFDFA
:100800001021D44800F0B5FF10BD10B504461021EA
:10081000D04800F0ACFF00BF0221CB4801F0FBFD47
:100820000028F9D000BF0221C74801F0F4FD0028DC
:10083000F9D02146C44801F09BFD01220221C248A3
:1008400001F08DFD00BF8021BF4801F0E4FD0128CB
:10085000F9D000220221BC4801F081FD1021BD48E1
:1008600000F087FF10BD70B504460D460021B74863
:1008700001F0D5FEB54830384563C463B2480C304A
:10088000B249303988630121B04801F0C8FE00BF89
:100890004FF4007001F0DEFE0028F9D04FF4007034
:1008A00001F0ECFE00BF8021A74801F0B4FD012853
:1008B000F9D070BD30B5ADF5017D002422E004F122
:1008C000B001C8B2FFF77AFF0020FFF777FF1020D2
:1008D000FFF774FF002507E09D4800EB8500005DF1
:1008E00001A94855681CC5B2802DF5DB802101A8FF
:1008F000FFF7B9FF964901EB8501085DFFF785FF1A
:10090000601CC4B2042CDADB0DF5017D30BD70B57E
:1009100000240CE0002506E000208D4901EB850154
:100920000855681CC5B2802DF6DB601CC4B2042CCF
:10093000F0DBFFF7BFFF70BDF0B514460B46CF17D5
:1009400001EB5777C7F3C702CF1701EB5777FF10BB
:10095000A1EBC707FEB20123B340DDB24CB17C4B23
:1009600003EB80039B5C2B43794F07EB8007BB5461
:100970001AE0774B03EB80039B5CDB43744F07EB80
:100980008007BB54724B03EB80039B5C2B43704F7F
:1009900007EB8007BB546E4B03EB80039B5CDB4390
:1009A0006B4F07EB8007BB54F0BD70B500240BE024
:1009B000694850F8345000EBC40086880122314663
:1009C000284600F0D8FE641C012CF1DB70BD2DE937
:1009D000F04F87B004460D4616461F46DDE91189E3
:1009E00000200690A246AB465B4850F839000190C3
:1009F000594800EBC900808800900022DDE9001012
:100A000000F0B9FEF81DC11700EB5171C1F3C70723
:100A10000020049045E0002005903BE006991098E6
:100A2000405C03900698401C80B206900020029023
:100A30001DE0039800F0010028B1424629462046F7
:100A4000FFF77AFF0AE0B8F1000F01D1012000E0C2
:100A50000020024629462046FFF76EFF039840100B
:100A60000390681CC5B20298401CC0B20290029864
:100A70000828DEDB601CC4B2A4EB0A00B04204D13B
:100A800054460BF1080000F0FF0B5D460598401C32
:100A9000C0B205900598B042C0DB0498401CC0B2BB
:100AA00004900498B842B6DBFFF704FF0122DDE9A9
:100AB000001000F060FE07B0BDE8F08F08B501211E
:100AC00041F2050001F062F8A020ADF8000003201B
:100AD0008DF8020018208DF8030069461D4800F0CB
:100AE00099FD1320ADF8000010208DF80300694631
:100AF000184800F08FFDFFF70BFEFFF736FE0121CF
:100B0000144800F036FEC82000F0D9FB012111483E
:100B100000F02DFEAE20FFF751FE0020FFF74EFE45
:100B20001020FFF74BFE0020FFF748FEB020FFF734
:100B300045FE8120FFF742FEFF20FFF73FFEA12088
:100B4000FFF73CFEA62009E00030014030000240E3
:100B5000580C002000080140EC080020FFF72EFE92
:100B6000A820FFF72BFE1F20FFF728FEC820FFF765
:100B700025FED320FFF722FE0020FFF71FFED52021
:100B8000FFF71CFE8020FFF719FED920FFF716FEA5
:100B90001F20FFF713FEDA20FFF710FE0020FFF7FB
:100BA0000DFEDB20FFF70AFE4020FFF707FE8D2039
:100BB000FFF704FE1420FFF701FEFFF7A8FEAF20A9
:100BC000FFF7FCFDFFF7F1FE08BD000008B50121AD
:100BD000102000F0DBFF48208DF803004220ADF824
:100BE000000003208DF802006946694800F012FDFC
:100BF00008BD0EB50121084600F0C8FFFFF7E6FF6B
:100C00000621022000F01CFE4020019000208DF8FB
:100C100008000C208DF8090001208DF80A0001A8B9
:100C200001F02AFA0121022000F00AFE02200190C0
:100C300000208DF808000C208DF8090001208DF8A7
:100C40000A0001A801F018FA4FF4A06000F014FCAB
:100C500017208DF8000002208DF8010001208DF88A
:100C600002008DF80300684600F00BFC4FF4A06012
:100C700000F002FC07208DF8000002208DF8010032
:100C800001208DF802008DF80300684600F0F9FBA2
:100C9000422001F068FA0EBD3E48008870473E4889
:100CA0000078704700203C490870704710B540201C
:100CB00001F048FA00282ED00221354800F03DFD11
:100CC000012801D13549087034480078022822D122
:100CD00002212F4800F031FDE8B92E48008812307B
:100CE0002C490880084600882D490988884201DD82
:100CF000002001E02748008826490880FFF7CCFF44
:100D00000446214627A003F0E5FC00202349087093
:100D1000012021490870402001F025FA10BD10B5CE
:100D2000022001F00FFA00282ED04021184800F0D0
:100D300004FD012802D102201849087017480078E4
:100D4000012821D14021124800F0F7FCE0B91148F8
:100D50000088112803DA12480088123001E00D489B
:100D600000880C4908800846008812380880FFF780
:100D700093FF0446214611A003F0ACFC0020074974
:100D80000870012004490870022001F0ECF910BD40
:100D9000001001400009002006090020020900207F
:100DA00004090020CBB3CAB1D5EB0AB5B1C7B0B6C0
:100DB000C8CAFDCEAAA3BA25640D0A00C4E6CAB10A
:100DC000D5EB0AB5B1C7B0B6C8CAFDCEAAA3BA253D
:100DD000640D0A0070B50546002405E0601CC4B22D
:100DE000C82C01DD002070BD0221FD4801F013FB7D
:100DF0000028F3D02946FA4801F0BAFA002405E0A9
:100E0000601CC4B2C82C01DD0020ECE70121F448CD
:100E100001F001FB0028F3D0F14801F0ABFAC0B2B9
:100E2000E1E700B585B00121880300F0BCFE002099
:100E3000ADF800004FF48270ADF802000020ADF86C
:100E400004000220ADF806000120ADF808004002C1
:100E5000ADF80A000020ADF80C00ADF80E00072038
:100E6000ADF810006946DE4801F0ACF90121DC481C
:100E700001F04DFAFF20FFF7ADFF05B000BD10B542
:100E800000244FF48051D74800F073FC9020FFF706
:100E9000A1FF0020FFF79EFF0020FFF79BFF00202F
:100EA000FFF798FFFF20FFF795FF44EA0024FF209B
:100EB000FFF790FF04434FF48051CA4800F057FCFD
:100EC000204610BD08B50121082000F05FFE4FF458
:100ED0006040ADF8000018208DF8030003208DF865
:100EE00002006946BF4800F095FB4FF46041BD48E1
:100EF00000F03DFC4FF48050ADF8000010208DF85C
:100F0000030003208DF802006946B64800F082FB1A
:100F10004FF48051B34800F02AFCFFF782FFFFF73F
:100F2000AEFFB149088008BD10B500244FF48051D0
:100F3000AC4800F01EFC0520FFF74CFFFF20FFF738
:100F400049FF04464FF48051A64800F010FC2046AB
:100F500010BD10B504464FF48051A24800F009FCC2
:100F60000120FFF737FF2046FFF734FF4FF4805191
:100F70009C4800F0FCFB10BD10B54FF4805199481F
:100F800000F0F7FB0620FFF725FF4FF4805195484E
:100F900000F0EDFB10BD10B54FF48051914800F00A
:100FA000E8FB0420FFF716FF4FF480518D4800F056
:100FB000DEFB10BD2DE9F04106460C4617464FF406
:100FC0008051884800F0D5FB0320FFF703FFC4F3EE
:100FD0000740FFF7FFFEC4F30720FFF7FBFEE0B278
:100FE000FFF7F8FE002505E0FF20FFF7F3FE705540
:100FF000681C85B2BD42F7DB4FF48051794800F0A0
:10100000B6FBBDE8F08110B500BFFFF78DFF00F023
:1010100001000028F9D110BD2DE9F04106460C462B
:101020001746FFF7A9FF4FF480516E4800F0A1FB6F
:101030000220FFF7CFFEC4F30740FFF7CBFEC4F357
:101040000720FFF7C7FEE0B2FFF7C4FE002504E06B
:10105000705DFFF7BFFE681C85B2BD42F8DB4FF440
:101060008051604800F083FBFFF7CDFFBDE8F081C1
:101070002DE9F04107460E461446F0B2C0F58075E2
:10108000AC4200DC254612E02A4631463846FFF7DE
:10109000C3FFAC4200D10BE02F442E44601B84B24E
:1010A000B4F5807F02DD4FF4807500E02546EBE764
:1010B00000BFBDE8F08110B5044621464BA003F007
:1010C00009FB2403FFF758FFFFF79DFF4FF4805102
:1010D000444800F04EFB2020FFF77CFEC4F307409D
:1010E000FFF778FEC4F30720FFF774FEE0B2FFF7C6
:1010F00071FE4FF480513B4800F039FBFFF783FF4E
:1011000010BD2DE9F05F81460F461646DFF8E4B0CA
:101110004FEA1738C7F30B0ACAF58054A64200DC21
:10112000344644E04FEA08314FF480525846FFF706
:1011300041FF002508E00AEB05001BF80000FF282E
:1011400000D003E0681C85B2A542F4DB00BFA542D5
:1011500016DA4046FFF7AFFF002507E019F8050053
:1011600005EB0A010BF80100681C85B2A542F5DB0E
:101170004FEA08314FF480525846FFF779FF04E0F8
:10118000224639464846FFF773FFA64200D10FE0DA
:1011900008F101084FF0000AA1442744301B86B231
:1011A000B6F5805F02DD4FF4805400E03446B9E7C5
:1011B00000BFBDE8F09F10B5FFF7DEFEFFF723FF8D
:1011C0004FF48051074800F0D2FAC720FFF702FE23
:1011D0004FF48051034800F0CAFAFFF714FF10BD26
:1011E00000380040000C01400809002066653A25DF
:1011F000780D0A00980F002010B54FF48051104868
:1012000000F0B7FAB920FFF7E5FD4FF480510C4824
:1012100000F0ADFA032000F02EF810BD10B54FF429
:101220008051074800F0A5FAAB20FFF7D3FD4FF43B
:101230008051034800F09BFA032000F01CF810BD19
:10124000000C014010B56FF0040000F064F92E4866
:1012500000682E49B0FBF1F02D490870084600786F
:1012600000EB4001C1EBC0104FF6FF7101EAC00076
:101270002849088010BD0146254A12784A434FF09C
:10128000E0235A6100229A611A46126942F0010273
:101290001A6100BF4FF0E022106900F001021AB19C
:1012A00000F48032002AF5D04FF0E022126922F0DB
:1012B00001024FF0E0231A6100229A617047014653
:1012C000144A12884A434FF0E0235A6100229A617F
:1012D0001A46126942F001021A6100BF4FF0E02283
:1012E000106900F001021AB100F48032002AF5D032
:1012F0004FF0E022126922F001024FF0E0231A6160
:1013000000229A6170470000D408002000127A0081
:101310000A0900200C09002000BF4A4A128802F086
:101320004002002AF9D0C2B2464B1B1D1A807047FA
:1013300010B586B00446012144F2040000F026FCFA
:101340004FF40070ADF8140003208DF8160018203B
:101350008DF8170005A93C4800F05CF94FF4806057
:10136000ADF8140004208DF8170005A9364800F0E8
:1013700051F925208DF8000003208DF801008DF82B
:10138000020001208DF80300684600F07AF801940D
:101390000020ADF80800ADF80A00ADF80C00ADF87B
:1013A00010000C20ADF80E0001A9264800F095FCB5
:1013B000012240F22551234800F027FD0121214858
:1013C00000F017FD06B010BD10B540F225511D48C4
:1013D00000F000FE10B31B4800F07CFDC4B21B48B7
:1013E000008800F40040C8B91848008800F4804024
:1013F00060B10A2C03D000201449088020E0134873
:10140000008840F400401149088019E00D2C06D1F5
:101410000E48008840F480400C49088010E00B48DA
:101420000088C0F30D000A490C5408480088401C8D
:101430000649088008460088C72801DD002008808A
:1014400010BD0000003801400008014014090020D0
:10145000981F00200648804706480047FEE7FEE741
:10146000FEE7FEE7FEE7FEE7FEE7FEE7FEE7FEE754
:101470002B0400083101000831490143314A116051
:10148000704770B5002100230F22C47804B32D4C9F
:10149000246804F4E064C4F5E064210AC1F10403A3
:1014A000CA40447804FA03F18478144021430901C6
:1014B000254C0678A155047804F01F050124AC40A2
:1014C00005786D11AD0005F1E025C5F8004109E092
:1014D000047804F01F050124AC401C4D06787611F9
:1014E00045F8264070BD1A4A0A400243154B1B1F9F
:1014F0001A60704739B1134A121D12680243114B2A
:101500001B1D1A6006E00F4A121D126882430D4B24
:101510001B1D1A607047042808D14FF0E0210969AB
:1015200041F004014FF0E022116107E04FF0E021AB
:10153000096921F004014FF0E022116170470000B9
:101540000000FA050CED00E000E400E080E100E0BE
:1015500080FFFF1F10B50446CC48844208D101210A
:10156000042000F02DFB0021042000F029FB46E0C0
:10157000C748844208D10121082000F021FB002146
:10158000082000F01DFB3AE0C248844208D1012146
:10159000102000F015FB0021102000F011FB2EE0C0
:1015A000BD48844208D10121202000F009FB002120
:1015B000202000F005FB22E0B848844208D1012138
:1015C000402000F0FDFA0021402000F0F9FA16E07A
:1015D000B348844208D10121802000F0F1FA0021B3
:1015E000802000F0EDFA0AE0AE48844207D10121E4
:1015F000801500F0E5FA0021A01500F0E1FA10BD19
:1016000010B50121084600F0DBFA0021012000F0AE
:10161000D7FA10BD2DE9F041024600250026002032
:1016200000230024002791F803C00CF00F0591F867
:1016300003C00CF0100CBCF1000F03D091F802C0F5
:101640004CEA050591F800C0BCF1000F31D01468D8
:1016500000202BE04FF0010C0CFA00F3B1F800C0B1
:101660000CEA03069E4220D183004FF00F0C0CFAC7
:1016700003F7BC4305FA03FC4CEA040491F803C0E9
:10168000BCF1280F06D14FF0010C0CFA00FCC2F897
:1016900014C00AE091F803C0BCF1480F05D14FF027
:1016A000010C0CFA00FCC2F810C0401C0828D1D371
:1016B0001460B1F800C0BCF1FF0F34DD54680020A5
:1016C0002EE000F1080C4FF0010808FA0CF3B1F815
:1016D00000C00CEA03069E4221D183004FF00F0C9C
:1016E0000CFA03F7BC4305FA03FC4CEA040491F836
:1016F00003C0BCF1280F05D100F1080C08FA0CF862
:10170000C2F8148091F803C0BCF1480F07D100F172
:10171000080C4FF0010808FA0CF8C2F81080401CC1
:101720000828CED35460BDE8F0814FF6FF710180E8
:10173000022181700421C170704702460020936825
:101740000B400BB1012000E0002070470146886883
:1017500080B2704702460020D3680B400BB10120D5
:1017600000E0002070470146C86880B27047016100
:101770007047416170470AB1016100E04161704703
:10178000C16070474FF480320A4382618161826197
:1017900082698269704702460020434B18684FF601
:1017A0008073184040EA021008433F4B18607047AE
:1017B0003E49C8617047F0B50A4600230024002165
:1017C000002500F00046B6F1004F02D1364EF16917
:1017D00001E0354E7168C0F3034583B200F4401652
:1017E000B6F5401F08D121F070612F4E766826F0C3
:1017F00070662D4F7E6012E000F48016B6F5801FF3
:1018000006D1032606FA05F4A14341F0706106E013
:10181000460D360103FA06F6B14341F0706122B17C
:10182000460D360103FA06F6314300F00046B6F1E4
:10183000004F02D11C4EF16101E01B4E7160F0BD02
:1018400030B500228B071C0F0F2303FA04F2164B4E
:1018500008338C1053F824309343134C08348D1004
:1018600044F8253023468C1053F824308C07240F7D
:1018700000FA04F423430C4C08348D1044F825304E
:1018800030BD0A49DC3108607047000000080140A3
:10189000000C0140001001400014014000180140FC
:1018A000001C0140002001400000014000002042D7
:1018B000DF48006840F00100DD49086008464068E4
:1018C000DC490840DA49486008460068DA490840BF
:1018D000D74908600846006820F480200860084660
:1018E000406820F4FE0048604FF41F008860704795
:1018F000CF49096821F48031CD4A11601146096849
:1019000021F480211160B0F5803F03D0B0F5802F25
:101910000ED106E0C649096841F48031C44A11601D
:1019200007E0C349096841F4A021C14A116000E001
:1019300000BF00BF704710B5014600220023002001
:101940004A11012A02D1BA4C236806E0022A02D1C8
:10195000B74C236A01E0B64C636A01F01F02012410
:1019600094401C400CB1012000E0002010BD38B5AF
:10197000002000900024002500BF3120FFF7DBFF8E
:1019800005460098401C00900098B0F5A06F01D06B
:10199000002DF2D03120FFF7CEFF08B1012400E086
:1019A0000024204638BD01460020A14A106820F0DE
:1019B000F80040EAC10010607047A0490860704715
:1019C000024600209A4B586820F47C1042EA01033A
:1019D0001843974B5860704798490866704701460E
:1019E0000020934A506820F003000843506070477D
:1019F0008F48406800F00C007047014600208C4A78
:101A0000506820F0F0000843506070470146002005
:101A1000874A506820F4E0600843506070470146F0
:101A20000020834A506820F4605040EAC1005060B2
:101A3000704729B17E4A527A02437D4B5A7204E0C4
:101A40007B4A527A82437A4B5A7270477B49D8312B
:101A50000860704701460020754A506820F44040F5
:101A60000843506070470021714A20321170704A5B
:101A700082F82010012802D004280AD104E00121B4
:101A80006B4A2032117005E00521694A203211703D
:101A900000E000BF00BF70476949086070476449B3
:101AA000096A0143624A1162704765494439086016
:101AB000704730B500210022002400235C4D6D6882
:101AC00005F00C0121B1042905D0082923D105E036
:101AD0005C4D056022E05B4D05601FE0544D6D6874
:101AE00005F47012524D6D6805F48034022505EB43
:101AF00092421CB9544D554305600BE04C4D6D6846
:101B000005F400351DB1504D5543056002E04D4DC3
:101B10005543056002E04B4D056000BF00BF444DDA
:101B20006D6805F0F0010909484D6B5C0568DD4002
:101B300045603F4D6D6805F4E061090A434D6B5CFB
:101B40004568DD4085603A4D6D6805F46051C90A0D
:101B50003E4D6B5C4568DD40C560354D6D6805F4F4
:101B60004041890B3A4D6B5CC568B5FBF3F50561E7
:101B700030BD29B12E4A526902432D4B5A6104E00F
:101B80002B4A526982432A4B5A61704729B1284A2D
:101B900092690243264B9A6104E0254A9269824386
:101BA000234B9A61704729B1214AD2690243204BE5
:101BB000DA6104E01E4AD26982431D4BDA61704744
:101BC00029B11B4AD2680243194BDA6004E0184A73
:101BD000D2688243164BDA60704729B1144A126901
:101BE0000243134B1A6104E0114A12698243104BFD
:101BF0001A61704712494039086070470F49C8643C
:101C000070470B49C87170470948406A40F08070BE
:101C100007494862704701460020054A92680A4019
:101C20000AB1012000E00020704701498872704726
:101C3000001002400000FFF8FFFFF6FE00004242E5
:101C40008004424200127A0000093D00160900207B
:101C50002609002010B50446FB48844209D1012121
:101C60008803FFF7ADFF00214FF48040FFF7A8FF86
:101C700032E0F648844209D101214804FFF7ADFF64
:101C800000214FF40030FFF7A8FF25E0F048844220
:101C900009D101218804FFF7A0FF00214FF4802023
:101CA000FFF79BFF18E0EB48844209D10121C804EB
:101CB000FFF793FF00214FF40020FFF78EFF0BE0AA
:101CC000E548844208D101210805FFF786FF00217D
:101CD0004FF48010FFF781FF10BD2DE9F04786B06B
:101CE00005460E460024A24600BFA1460027B08943
:101CF00000B100BF2F462C8A4CF6FF700440F088DC
:101D000004432C82AC894EF6F3100440B08831892C
:101D10000843718908430443AC81AC8A4FF6FF4005
:101D20000440B0890443AC8201A8FFF7C2FEC64854
:101D3000874202D1DDF810A001E0DDF80CA0A889EF
:101D400000F4004040B10AEBCA0000EB0A10316811
:101D50004900B0FBF1F807E00AEBCA0000EB0A10FB
:101D600031688900B0FBF1F86420B8FBF0F00401A1
:101D70002009642101FB1089A88900F4004040B1CA
:101D8000322000EBC900B0FBF1F000F00700044383
:101D900008E0322000EB09106421B0FBF1F000F004
:101DA0000F0004432C8106B0BDE8F0874FF41651B4
:101DB000016000218180C18001810C2141810021CD
:101DC0008181704710B502460020108A4FF2FF0350
:101DD00018400B884C8823438C882343CC882343AA
:101DE0001843108210BD0021018041808180C18094
:101DF000704721B1828942F40052828104E08289D5
:101E00004DF6FF731A4082817047F0B503460024F7
:101E100000260025002040F66A17B94200D100BF15
:101E20001846C1F3421401F01F06012707FA06F510
:101E3000012C01D10C3004E0022C01D1103000E063
:101E400014301AB107682F43076002E00768AF43F8
:101E50000760F0BD1AB1838A0B43838202E0838A54
:101E60008B4383827047028A4FF6F0731A400282D6
:101E7000028A0A430282704782894FF2FF731A4036
:101E8000828182890A438281704721B1828942F02E
:101E90000202828104E082894FF6FD731A4082813A
:101EA0007047028A4FF6DF731A400282028A0A43A1
:101EB0000282704721B1028A42F48042028204E029
:101EC000028A4BF6FF731A4002827047C1F3080280
:101ED0008280704701468888C0F308007047818976
:101EE00041F0010181817047028BD2B20283028BE3
:101EF00042EA012202837047028B02F47F4202838E
:101F0000028B0A430283704721B1828A42F0200289
:101F1000828204E0828A4FF6DF731A408282704721
:101F200021B1828A42F01002828204E0828A4FF656
:101F3000EF731A408282704721B1828A42F0080210
:101F4000828204E0828A4FF6F7731A4082827047D9
:101F500021B1828942F40042828103E08289C2F386
:101F60000E028281704721B1828A42F4006282822D
:101F700004E0828A4FF2FF731A4082827047828A9D
:101F80004FF6FB731A408282828A0A43828270472C
:101F900021B1828A42F00202828204E0828A4FF6F4
:101FA000FD731A408282704702460020B1F5007F1F
:101FB00000D100BF13880B400BB1012000E00020CE
:101FC000704701F40072B2F5007F00D100BFCA4330
:101FD0000280704770B502460024002300250020CF
:101FE00040F66A16B14200D100BFC1F3421501F0BC
:101FF0001F03012606FA03F3012D02D1968933400F
:1020000006E0022D02D1168A334001E0968A334061
:102010000C12012606FA04F41688344013B10CB1F0
:10202000012000E0002070BD10B50022002340F622
:102030006A14A14200D100BF0A1201249440A3B245
:10204000DC43048010BD0000003801400044004023
:1020500000480040004C004000500040002044492F
:102060000860091D0860091D0860091D08604148D5
:102070003F4914310860704700213D498279002AA8
:102080003AD00A46126803689A430B461A600A1D42
:10209000126803689A430B1D1A60027911440A689A
:1020A00003681A430A60324A0832126803689A4386
:1020B0002F4B08331A601A1D126803689A432C4B81
:1020C0000C331A604279102A0ED11A1F1268036865
:1020D0001A43274B08331A601A1D126803681A4303
:1020E000234B0C331A600DE02149427911440A68F0
:1020F00003681A430A6005E0027911440A6803681C
:102100009A430A6070470021016001710C214171FE
:102110000021817170471649103109680143144A42
:1021200010321160704701460020114A14321268C3
:102130000A400AB1012000E0002070470C49143128
:1021400008607047014600200022094B1B6803EA23
:102150000102074B14331B680B4013B10AB1012075
:1021600000E0002070470249143108607047000009
:1021700000040140FFFF0F0010B50446BE48844232
:1021800008D101218014FFF71BFD0021A014FFF7E7
:1021900017FD16E0B948844208D101210014FFF769
:1021A0001CFD00212014FFF718FD0AE0B44884420A
:1021B00007D10121C013FFF710FD0021E013FFF745
:1021C0000CFD10BD10B50022028802F441520B88AC
:1021D0004C8823438C882343CC8823430C89234396
:1021E0004C8923438C892343CC8923431A4302809F
:1021F000838B4FF2FF74234083830B8A038210BDCD
:102200002DE9F04F85B005460C464FF00009022736
:102210004FF000084FF0010B0026B246A88B4FF29A
:1022200040010840A88302202884B5F81C90A068CB
:10223000022801D100BF38E0A08810B94FF0010B8F
:1022400001E04FF0020B8D48854200D100E000BF55
:102250006846FFF72EFCDDF800A0E088B0F5007FAF
:102260000AD14FEA1A2000EB80004000A168B0FBC1
:10227000F1F0401D86B20BE04FEA4B10BAFBF0F0D4
:1022800000EB80004000A168B0FBF1F0401D86B279
:102290000A20B6FBF0F606F00108A6EB0800C0F332
:1022A0004F074FF6FF7000EA0828022F01DBFF2FCF
:1022B00002DD02274FF00008E08840EA08003843BA
:1022C0002884A088A189084361880843218808439D
:1022D00040F4006040EA0909A5F81C9005B0BDE88B
:1022E000F08F0021018041808180C1800181418186
:1022F0008181C181072101827047002101804180D5
:102300008180C1800221816000218181704721B1DB
:10231000028842F04002028004E002884FF6BF7358
:102320001A400280704721B1828B42F4806282831E
:1023300004E0828B4FF6FF331A408283704730B53A
:10234000002400230C110125A540ABB21AB18588E9
:102350001D43858002E085889D43858030BD1AB18C
:1023600083880B43838002E083888B43838070479C
:10237000818170470146888970474FF6FF6291421C
:1023800004D0028842F48072028004E002884FF692
:10239000FF631A400280704721B1828842F0040234
:1023A000828004E082884FF6FB731A408280704777
:1023B00002884FF2FF731A40028002880A430280AB
:1023C0007047018841F480510180704721B1028833
:1023D00042F40052028004E002884DF6FF731A4076
:1023E0000280704702460020012901D0108B00E0D6
:1023F000908A70470146088A7047B1F5804F04D132
:10240000028842F48042028004E002884BF6FF73A7
:102410001A40028070470246002013890B400BB11E
:10242000012000E000207047CA4302817047F0B5E8
:102430000246002000240023002501F00F0701269A
:10244000BE40B4B20B1101269E40B3B2968806EA94
:1024500003051689264016B10DB1012000E00020C9
:10246000F0BD10B5002201F00F040123A3409AB281
:10247000D343038110BD000000300140003800400C
:10248000003C004001684FF6FE72114001600021DF
:10249000016041608160C1608D49884208D18C49EA
:1024A0000839496841F00F01894A083A51608AE0C9
:1024B00087491431884208D185490839496841F073
:1024C000F001834A083A51607DE081492831884211
:1024D00008D17F490839496841F470617C4A083A5B
:1024E000516070E07A493C31884208D17849083916
:1024F000496841F47041764A083A516063E0744992
:102500005031884208D172490839496841F4702134
:102510006F4A083A516056E06D496431884208D1EB
:102520006B490839496841F47001694A083A5160B9
:1025300049E067497831884208D1654908394968D6
:1025400041F07061624A083A51603CE0614988425A
:1025500006D1011F096841F00F01021F116032E02E
:102560005C491431884208D15A49091F096841F071
:10257000F001584A121F116025E05649283188425F
:1025800008D15449091F096841F47061514A121F6A
:10259000116018E04F493C31884208D14D49091F6C
:1025A000096841F470414B4A121F11600BE0494920
:1025B0005031884207D14749091F096841F4702109
:1025C000444A121F1160704710B50022026847F696
:1025D000F0739A430C6A8B6823430C6923434C695C
:1025E00023438C692343CC6923434C6A23438C6A7D
:1025F00023431A430260CB6843600B6883604B68D7
:10260000C36010BD0021016041608160C160016153
:1026100041618161C161016241628162704721B1A2
:10262000026842F00102026004E002684FF6FE73A5
:102630001A40026070471AB103680B43036002E05E
:1026400003688B43036070474160704701464868E8
:1026500080B2704701460020002201F080531BB178
:102660001C4B083B1A6802E0194B083B1A6802EA47
:1026700001030BB1012000E00020704700F0805101
:1026800019B11449091F086002E01149083948606E
:10269000704701460020002201F080531BB10D4B12
:1026A000083B1A6802E00A4B083B1A6802EA010379
:1026B0000BB1012000E00020704700F0805119B1FB
:1026C0000449091F086002E0014908394860704761
:1026D000080002400804024010B54FF48020FFF7C4
:1026E00042FD4FF480203A490860082048710120DB
:1026F00088710846FFF7C0FC10BD10B50020FFF739
:10270000A5F90121C805FFF74EFA10BD10B5314CEF
:10271000A07A18B105203049086002E001202E4956
:102720000860FDF782FE10BD08B54FF4A060FEF70B
:10273000A3FE14208DF8000002208DF80100002077
:102740008DF8020001208DF803006846FEF799FE1F
:102750002A208DF8000001208DF801006846FEF760
:1027600090FE08BD704730B50B46002100BF16E053
:102770000A24B4EB107F05D9302404EB107403F85D
:10278000114005E0412404EB10740A3C03F81140A9
:10279000000100254C00641C1D554C1CE1B2914207
:1027A000E6DB30BD70B50D480468001D0568001DEE
:1027B0000668344454B1082209492046FFF7D3FF84
:1027C0000422074910312846FFF7CDFF70BD0000F5
:1027D0002C09002080200020300A0020E8F7FF1F8D
:1027E0003609002010B500F00DF810BD10B54FF4FB
:1027F0008020FFF7B8FC10BD012001490870704728
:10280000B408002010B588B0002468480068684902
:1028100008800846008800F400406649098808409E
:1028200008B101F0B9F86248008800F4806061499D
:102830000988084030B14FF6FF305C4908605E49B6
:10284000486880475A48008800F400505949098870
:10285000084018B14DF6FF7054490860544800888C
:1028600000F4805053490988084030B14EF6FF709B
:102870004E490860002000F057FA4D48008800F4E7
:1028800000604C490988084060B14C48007810B19C
:1028900000F0C3F902E0022000F046FA4FF2FF70A8
:1028A000424908604248008800F4007041490988A4
:1028B000084040B14FF6FF503C490860404800785E
:1028C000401C3F4908703A48008800F4807039493C
:1028D00009880840002866D04FF6FF603349086039
:1028E000081D006800F40040002856D035480068F4
:1028F000401C3449086008460068032850D92B481A
:10290000001F006800F00800002849D12748001F78
:10291000006880B22C490860002408E02B4901EBD4
:102920008400D0F8000C80B24DF82400641C082C00
:10293000F4D32548006840F00100234908600846A8
:10294000006880B21949091F08601F48006820F01C
:1029500001001D4908600846006880B21349091F3C
:10296000086000BF1148006800F480600028F9D0BA
:102970004FF6FF300D490860002408E05DF82400A0
:1029800080B2124A02EB8401C1F8000C641C082CCE
:10299000F4D300200B49086002E0002009490860D8
:1029A000072000F0C1F908B010BD0000445C0040F1
:1029B000500900204E0A00209C090020340A002003
:1029C00052090020540900205809002000500040FE
:1029D00010B5FFF7E7FE002079490968887200F01A
:1029E00005F901F0A9FD00207649086010BD10B579
:1029F000002073490968887271490968C872724871
:102A0000C0796F4909684872002001F0AFF94FF4AE
:102A10000071002001F0C4F91021002001F0D9F963
:102A20001821002001F093FB5821002001F083FBC6
:102A3000002001F08BFA654890F82C10002001F07E
:102A4000CCFB002001F046FA4FF4C061012001F0F8
:102A5000A7F94FF48071012001F06DFB08210120DE
:102A600001F099FB0021012001F0D1F92021012082
:102A700001F0AFF9002000F0E2FE012051490860AA
:102A800010BD5348817A11B105214E4A116070473B
:102A900004204C490860704770477047014629B9C7
:102AA0000120474A12681082002070474948FCE71D
:102AB00010B504464849204600F0B7FB10BD10B5DC
:102AC00004464649204600F0B0FB10BD70B50446F0
:102AD0000025062C1AD13A480068007800F07F00E3
:102AE000012813D136480068407978B93448006825
:102AF0008078222802D1AFF2390512E03048006810
:102B0000807821280DD1AFF257050AE02C480068E3
:102B1000007800F07F00212803D1032C01D1AFF20F
:102B200083050DB9022070BD25480068856100212C
:102B30002348006841820020A8470020F3E720488E
:102B40000068C178234801600020704700B5024644
:102B50001B480068007800F07F00212804D10B2A70
:102B600002D1FFF7ECFF00BD0220FCE710B50446E0
:102B70001B49204600F059FB10BD10B50446194909
:102B8000204600F052FB10BD70B505460C480068A9
:102B9000C478042C01DD002070BD134800EBC40193
:102BA000284600F042FBF7E70246002901DD02203B
:102BB0007047002A01DD0220FAE70020F8E7000054
:102BC000440A0020300A0020E64900089C09002041
:102BD0008020002094090020080A0020000A00201C
:102BE000F0090020F8090020100A002001217F4888
:102BF000016000207E4A1080104600887B4A1060E9
:102C00000020121D10604FF4E050794A10801046E9
:102C10000088764A10600020704738B500210022F5
:102C200000230093714B1B6898B200BF09E0714C00
:102C300004EB8103D3F8003C9BB26F4C44F8213085
:102C4000491C0829F3D340F48060684B186040F0B9
:102C50000100186020F00100186000BF634B1B1DCD
:102C60001B6803F48063002BF8D04FF6FF335F4CF2
:102C7000241D2360002109E05F4B53F821309BB2F3
:102C80005C4D05EB8104C4F8003C491C0829F3D3D2
:102C900040F00800554B18601B6898B240F00400E3
:102CA000524B1860554B1B680093544B1A6822F026
:102CB000030242F001021A60514B1B6843F0040307
:102CC0004F4C2360494B1B1D1B6803F4805333B9E1
:102CD00030BF23461B6823F00403236014E04EF644
:102CE000FF73424C241D2360231F1B6898B220F001
:102CF0000800231F1860414C009B2360404B1B6859
:102D000023F004033E4C236038BD10B537480068FB
:102D100084B224F0040435480460FFF7F7FC4FF454
:102D20003F403249086010BD70B50546072D01D0FF
:102D3000344805703348007808284ED2DFE800F0A8
:102D400004111A202B384E4F2F48006828B9FFF77E
:102D5000DCFF06202B49087002E005202949087095
:102D600041E0FFF7D2FF04202649087001202649E0
:102D7000086038E00220234948700320087032E0E0
:102D800020484078401E1F4948700846407808B9DE
:102D90000420087027E01548006884B244F010044D
:102DA000124804600520174908700A2048701AE08C
:102DB00014484078401E134948700846407858B976
:102DC0000A48006884B224F0100408480460062011
:102DD000087000200C49086005E000BF00BF062015
:102DE0000849087000BF00BF70BD0000405C004093
:102DF0004E0A00200050004060200020007000407B
:102E000010ED00E0350A0020380A002010B5044615
:102E10002CB90120F64909680882002010BDF54947
:102E2000096808688047F24800680A30F6E710B57C
:102E3000EF480068C078F0494978884213DCEC48D4
:102E40000068807878B9EA480068808858B9E8480E
:102E50000068C078E64909688872E64909684868E8
:102E60008047002010BD0220FCE710B504462CB9B5
:102E70000120DF4909680882002010BDDD4909688A
:102E800088688047DA4800680C30F6E710B5D84B00
:102E90001B68D978D64B1B685879D84B1B689A6940
:102EA00090470446D2480068807AE8B13CB9D048DF
:102EB0000068007918B9CE480068807808B102200F
:102EC00010BD8CB9CB490968C8688047C8480068FC
:102ED0004079C7490968C872C5480068C078C449C4
:102EE000096808730020EBE70220E9E710B5044603
:102EF0002CB90220BE4909680882002010BD0020BC
:102F0000BF490880BA480068007800F07F0018BB0D
:102F1000B7490968487A00F0200131B1B849097809
:102F200041F00201B64A117005E0B549097801F097
:102F3000FD01B34A117000F0400131B1B049097888
:102F400041F00101AE4A117005E0AD49097801F088
:102F5000FE01AB4A11703AE0A5480068007800F025
:102F60007F00012801D1A648C8E7A1480068007881
:102F700000F07F00022828D19D4A1268517901F0A3
:102F80000F0001F080027AB19E4B03EB8002D2F871
:102F9000002C02F03002102A16D1994A127842F021
:102FA0000102974B1A700FE0964B03EB8002D2F8A8
:102FB000002C02F44052B2F5805F05D1904A12789D
:102FC00042F001028E4B1A7001E0002096E7894919
:102FD0000968086980478A4890E72DE9F0478448E6
:102FE0000068007800F07F08B8F1000F0AD180482F
:102FF0000068407A00F0DF007D49096848720020CF
:10300000BDE8F087B8F1020F7ED1794800684088AA
:1030100018B977480068007908B10220F0E7DFF8B6
:10302000D89173480068477927F080052C4670488E
:103030000068407900F0800038B1724901EB8400EB
:10304000D0F8000C00F0300606E06E4901EB840079
:10305000D0F8000C00F4405699F80000A84204D9BA
:103060001EB163480068807A08B90220C8E707F0FB
:10307000800080B1634901EB8400D0F8000C00F0BF
:10308000300010284BD1E0B201F01DF8E0B2302141
:1030900000F09FFE43E05B4901EB8400D0F8000C98
:1030A00000F44050B0F5805F39D1E4B9564A92F847
:1030B0002C10E0B201F091F8524A02EB8401D1F8F1
:1030C000001C4BF68F7201EA020080F4805080F4FD
:1030D000005040F4004141F080014A4B03EB840270
:1030E000C2F8001C1BE0E0B200F0D5FF454A02EB3D
:1030F0008401D1F8001C4BF68F7201EA020080F4C3
:10310000805080F4005000E00FE040F4004141F0B6
:1031100080013C4B03EB8402C2F8001C00BF354920
:1031200009684869804700206AE700BF022067E716
:103130002DE9F0412E480068467926F080073C468C
:103140002B480068407900F0800038B12D4901EB30
:103150008400D0F8000C00F0300506E0294901EBAE
:103160008400D0F8000C00F4405523480078A042B9
:1031700008D91F480068408820B91DB11C48006864
:10318000807A10B90220BDE8F08106F08000A0B17D
:103190001C4A02EB8401D1F8001C48F6BF7201EA18
:1031A000020080F0100040F4004141F08001154B16
:1031B00003EB8402C2F8001C14E0124A02EB840103
:1031C000D1F8001C4BF68F7201EA020080F48050A7
:1031D00040F4004141F080010A4B03EB8402C2F845
:1031E000001C00BF03490968886980470020CAE7BE
:1031F000440A0020500A002098090020480A0020B4
:103200003C0A0020005000409C09002010B5F748FF
:103210000068407A40F02000F44909684872F44997
:103220000968C8698047002010BD10B50246EF4804
:103230000068438A32B98888C01AEC4C246820821E
:10324000002010BD08681844FBE72DE9F041E7486D
:10325000006800F110042688A068C0B1BEB1A5883E
:10326000B54200D93546A8B2A168884707462088EC
:10327000401B2080608828446080002000F07FFF91
:103280008046AAB24146384600F03EFD00BF208885
:1032900050B14FF44050D74908800021084600F053
:1032A0007AFF3020D44908802088A188884204DB36
:1032B0000320CE490968087218E02088002804DD40
:1032C0000520CA490968087210E0208870B90620F4
:1032D000C649096808720021C848006880B2801C8D
:1032E000C74A42F810103020C3490880BDE8F08179
:1032F0002DE9F047BD48006800F110052E88BB4855
:103300000068077AD6B9042F18D1BE480078012882
:103310000FD10021B948006880B2801CB84A42F839
:1033200010103020B449088000BF0020B549087053
:1033300003E007271020B049088027E0AC88A642A8
:1033400001D8042000E002200746B44200D93446E8
:10335000A0B2A96888478046002000F005FF81469A
:10336000A2B24946404600F0B5FCA1B2002000F0F0
:1033700012FF2888001B288068882044688030203D
:103380009D49088000029B49088000BF9749096851
:103390000F72BDE8F08770B5022694480068447843
:1033A00092480068007800F07F00002844D1092C82
:1033B00003D1FFF73CFD06465FE0052C14D18B4896
:1033C0000068C0787F280BDC88480068807838B9AE
:1033D00086480068808818B984480068807A08B1F7
:1033E000082565E0002648E0032C0ED17F480068E0
:1033F000C078012807D17D480068808818B9FFF798
:1034000005FF064639E0022637E0012C35D1774822
:103410000068C07801280DD174480068808848B9D8
:1034200072480068407A00F0200018B1FFF7D5FD1F
:10343000064622E0022620E06C480068007800F092
:103440007F00012805D10B2C17D1FFF71FFD064681
:1034500013E066480068007800F07F0002280BD176
:10346000012C03D1FFF7B9FD064606E0032C04D179
:10347000FFF75EFE064600E002264EB1E0B2624A69
:103480001268516988470646032E01D109250FE0CD
:103490000EB108250CE0062500215848006880B2CE
:1034A000801C574A42F8101030205349088000BF52
:1034B0004E4909680D7270BD2DE9F84F4B48006800
:1034C00045780027BA46062D1BD148480068007889
:1034D00000F07F00002813D144490968887801284A
:1034E00003D149490968CF690AE0022803D1464956
:1034F00009680F6A04E0032802D1434909684F6A4A
:10350000ADE0002D67D1394800684088002862D1BD
:1035100036480068C08802285DD1344800680079C8
:10352000002858D131480068007800F07F0030B999
:103530002E480068808810B9AFF24F678FE02B48A3
:103540000068007800F07F00012811D12749096840
:1035500048792D4909688A690021904700287ED161
:1035600022480068807A002879D0AFF27F6776E041
:103570001E480068007800F07F0002286FD11B48C9
:103580000068407900F00F0618480068407900F0A4
:10359000700916480068407900F0800038B11B4976
:1035A00001EB8600D0F8000C00F0300806E0174967
:1035B00001EB8600D0F8000C00F440581448007865
:1035C000B0424CD9B9F1000F49D1B8F1000F46D043
:1035D000AFF2E76743E0082D1CD10448006800788B
:1035E00000F07F00D8BBAFF2DB7738E0440A002060
:1035F000500A0020540A0020560A0020505C004067
:10360000006000403E0A0020480A002000500040B0
:10361000980900200A2D22D1C5480068007800F0E2
:103620007F0001281BD1C2480068807AB8B1C04829
:103630000068408898B9BE480068007978B9BC48ED
:103640000068C08801280AD1B94909684879B94990
:1036500009688A690021904708B9AFF2F17757B13C
:10366000B3480068A0F812A0B14800688761002044
:10367000B84700240FE0AE4A12685078AD4A12688D
:10368000116988470446032C05D10920A849096817
:103690000872BDE8F88FA6480068008A4FF6FF71EF
:1036A000884204D10920A24909680872F1E7022C76
:1036B00003D09F480068008A20B908209C49096807
:1036C0000872E6E79A480068007800F08000E0B3EE
:1036D00097480068C088009095480068008A009963
:1036E000884204D9924900980968088223E09048EA
:1036F0000068008A8E490968C98888421BDA8C48AC
:103700000068008A8B49096891F82C10884203DA16
:103710000020894908700EE085480068008A8549C4
:10372000096891F82C1090FBF1F201FB120010B91E
:103730000120814908707F48006890F82C107C486F
:1037400000688182FFF7D4FD07E0FFE70320784996
:103750000968087200037949088000BF99E710B52D
:10376000774890F82C10002000F037FD7048006872
:10377000007A082805D1400270490880102071495C
:1037800008806B480068007A092801D1012010BD2B
:103790000020FCE738B501246B48006880B2001DAA
:1037A0006A4931F8100080B201EB40000090604897
:1037B0000068007A092832D0009800785C490968CE
:1037C00008700098401C00900098007858490968DB
:1037D00048700098401C0090009800EB4400009056
:1037E000009931F8020B009100F0A0FE50490968E1
:1037F0004880009800EB44000090009931F8020BDB
:10380000009100F093FE4A4909688880009800EB17
:10381000440000900098008845490968C88001204C
:1038200043490968087242480068C08810B9FFF728
:10383000B2FD01E0FFF740FEFFF791FF38BD30B564
:103840000146434B1A78002014E00306414C04EB78
:103850009353D3F8003C48F68F74234048F2800419
:103860002343C4B2234304063A4D05EB9454C4F8F1
:10387000003C401C9042E8D341F08003324C241FAE
:10388000236030BD10B52A480068047A022C01D0AC
:10389000042C05D1FFF72CFD25480068047A1CE0B4
:1038A000062C19D122480068407805280ED12048FE
:1038B0000068007800F07F0040B91D490968C878A9
:1038C000FFF7BDFF24490968086A8047194909685C
:1038D00088688047082400E00824154909680C72AC
:1038E000FFF73DFF10BD10B511480068047A022CA7
:1038F00001D0042C01D1082412E0032C01D0052CA6
:1039000005D1FFF7A2FC0A480068047A08E0072CFA
:1039100005D108490968C8688047082400E00824E0
:10392000034909680C72FFF71AFF10BD70470000C9
:10393000440A0020480A00203E0A0020540A0020C1
:103940009C090020560A0020505C004000600040A6
:103950009809002000500040500A002010B5084887
:10396000084908600220096808720748074908608A
:10397000074808490860054909680868804710BD7C
:1039800080200020440A00209C090020480A0020D2
:10399000CC090020500A002008B50020009022E148
:1039A000C448008800F00F00C3490870084600783A
:1039B00000287CD1C1480068C149088008460088B9
:1039C00000F03000BF490880BD48008800F4405036
:1039D000BB490880B94909684BF6BF7201EA020089
:1039E00080F4005080F0200040F4004141F080015C
:1039F000B24A1160AF48008800F0100090BB10463A
:103A0000006848F60F71084011460860FFF73AFF5A
:103A1000AA4909684BF6BF7201EA0200A849098861
:103A200001F4805109B180F48050A549098801F45E
:103A3000005109B180F40050A249098801F0100139
:103A400009B180F010009F49098801F0200109B1F7
:103A500080F0200081B241F4004141F08001974A9A
:103A6000116008BDFFE79548006880B20090BDF87E
:103A7000000000F40060B0B390480068C0F30E008E
:103A800048F68F7108408D490860FFF783FE8B4927
:103A900009684BF6BF7201EA02008949098801F4FE
:103AA000805109B180F480508549098800E056E0D2
:103AB00001F4005109B180F400508249098801F0F5
:103AC000100109B180F010007E49098801F0200141
:103AD00009B180F0200081B241F4004141F0800141
:103AE000764A1160BDE7FFE7BDF8000000F4004032
:103AF000002878D071480068C0F30E0048F68F7136
:103B000008406E490860FFF7EEFE6C4909684BF605
:103B1000BF7201EA02006A49098801F4805109B1C3
:103B200080F480506649098801F4005109B180F49D
:103B300000506449098801F0100109B180F01000BB
:103B40006049098801F0200109B180F0200081B2AC
:103B500041F4004141F08001584A116081E7564824
:103B60000078594901EB8000D0F8000C80B2009039
:103B7000BDF8000000F40040C0B14F48007801EBF0
:103B80008000D0F8000CC0F30E0048F68F7108409A
:103B9000494909784C4A02EB8101C1F8000C4649B9
:103BA0000978491E494A52F821008047BDF80000B3
:103BB00000F08000B8B140480078434901EB800034
:103BC000D0F8000C48F60F7108403B4909783E4A8E
:103BD00002EB8101C1F8000C37490978491E3C4AC3
:103BE00052F82100804735484430006880B231499E
:103BF000088000F4004000287FF4D2AE00BF30E718
:103C000010B500244AE047F6FF702C4944310860A3
:103C10002848008800F00F002749087008460078FF
:103C2000294901EB8000D0F8000C84B204F4004074
:103C3000C8B12148007801EB8000D0F8000CC0F337
:103C40000E0048F68F7108401B4909781E4A02EBA6
:103C50008101C1F8000C18490978491E1B4A52F825
:103C6000210080471AE004F08000B8B112480078C3
:103C7000154901EB8000D0F8000C48F60F710840A0
:103C80000D490978104A02EB8101C1F8000C0A497C
:103C90000978491E0E4A52F82100804707484430EF
:103CA000006880B20349088000F400400028AAD1CF
:103CB00010BD000050090020400A0020005C0040B8
:103CC000540A0020560A00200050004078090020C5
:103CD0005C090020F0B5144604F1010C4FEA6C07B2
:103CE000DFF848C00CEB41033D460AE00678401C73
:103CF00090F800C046EA0C2223F8022B9B1C401CC3
:103D00006D1E002DF2D1F0BDF0B5561C7510074E9A
:103D100006EB41042B4605E034F8047B20F8017BD8
:103D2000401C5B1E002BF7D1F0BD0000006000407E
:103D3000FA4908607047F948006880B27047F7494F
:103D4000091D08607047F548001D006880B2704783
:103D5000F2480830006880B27047F0490C310860C2
:103D60007047EE480C30006880B270474FF6F8712B
:103D70000140EA4A103211607047E848103000688C
:103D800080B27047E64B03EB8002C2F8001C70471C
:103D90000146E34A02EB8100D0F8000C80B2704784
:103DA00010B5DF4B03EB8002D2F8002C48F68F13DE
:103DB0001A400A43DA4C04EB8003C3F8002C10BD10
:103DC0000146D74A02EB8100D0F8000C00F4C06035
:103DD000704730B5D24C04EB8003D3F8003C48F672
:103DE000BF7403EA040201F010030BB182F0100269
:103DF00001F020030BB182F0200242F4004343F0B3
:103E00008003C74D05EB8004C4F8003C30BD30B5DD
:103E1000C34C04EB8003D3F8003C4BF68F7403EAE9
:103E2000040201F480530BB182F4805201F4005378
:103E30000BB182F4005242F4004343F08003B84DCA
:103E400005EB8004C4F8003C30BD30B503460C4699
:103E50001846FFF79DFF0546012C07D125F4805039
:103E6000AF4A02EB8301C1F8000C08E0022C06D136
:103E700025F01000AA4A02EB8301C1F8000C30BD06
:103E80000146A74A02EB8100D0F8000C00F0300098
:103E900070470146A24A02EB8100D0F8000C00F402
:103EA0004050704710B59E4B03EB8002D2F8002CB7
:103EB00048F6BF7302EA030181F0100181F020018E
:103EC00041F4004242F08002954C04EB8003C3F8B9
:103ED000002C10BD10B5924B03EB8002D2F8002CE1
:103EE0004BF68F7302EA030181F4805181F4005193
:103EF00041F4004242F08002894C04EB8003C3F895
:103F0000002C10BD864A02EB8001D1F8001C41F460
:103F1000807148F68F72114048F280021143804B45
:103F200003EB8002C2F8001C70477D4A02EB80015F
:103F3000D1F8001C48F68F62114048F2800211430C
:103F4000774B03EB8002C2F8001C7047744A02EB07
:103F50008001D1F8001C48F68F62114048F28002BF
:103F600011436F4B03EB8002C2F8001C70476C4A90
:103F700002EB8001D1F8001C41F4807148F68F7289
:103F8000114048F280021143654B03EB8002C2F8F6
:103F9000001C7047624A02EB8001D1F8001C41F41A
:103FA000807148F68F72114048F2800211435C4BD9
:103FB00003EB8002C2F8001C7047594A02EB8001F3
:103FC000D1F8001C48F68F62114048F2800211437C
:103FD000534B03EB8002C2F8001C70470146504A65
:103FE00002EB8100D0F8000C00F03000102801D165
:103FF000012070470020FCE70146494A02EB81009E
:10400000D0F8000C00F44050B0F5805F01D10120E1
:1040100070470020FCE7424A02EB8001D1F8001C07
:10402000C1F30E0148F68F7211403D4B03EB800245
:10403000C2F8001C70473A4A02EB8001D1F8001C1C
:1040400048F60F721140364B03EB8002C2F8001C99
:104050007047334A02EB8001D1F8001C48F68F729A
:1040600011404CF2800211432D4B03EB8002C2F849
:10407000001C70472A4A02EB8001D1F8001C48F668
:104080008F72114048F2C0021143254B03EB8002AE
:10409000C2F8001C7047224A02EB8001D1F8001CD4
:1040A00001F4804171B102EB8001D1F8001C48F6A7
:1040B0008F7211404CF280021143194B03EB8002C6
:1040C000C2F8001C7047164A02EB8001D1F8001CB0
:1040D00001F0400171B102EB8001D1F8001C48F6FB
:1040E0008F72114048F2C00211430D4B03EB800266
:1040F000C2F8001C704710B5094B03EB8002D2F8E0
:10410000002C48F68F731A4048F280031A430A4382
:10411000034C04EB8003C3F8002C10BD405C00404E
:10412000005000400146FC4A02EB8100D0F8000C30
:1041300000F00F00704710B54A105200F74B1B6893
:104140009BB203EBC003F64C44F8132010BD10B52E
:104150004A105300F14A126892B202EBC002121DDB
:10416000EF4C44F8123010BD0146EC48006880B2B4
:1041700000EBC100EA4A32F8100080B270470146F5
:10418000E648006880B200EBC100001DE44A32F846
:10419000100080B27047E14A126892B202EBC0028E
:1041A000921CDF4B43F81210704702463E290BDD8C
:1041B000481101F01F030BB9431E98B24FF400439E
:1041C00043EA8023136007E0481001F001030BB1BC
:1041D000431C98B283021360704710B50246CF4863
:1041E000006880B200EBC200801DCD4C04EB4003A0
:1041F0003E290BDD481101F01F040CB9441EA0B28A
:104200004FF4004444EA80241C6007E0481001F0A9
:1042100001040CB1441CA0B284021C6010BD014614
:10422000BE48006880B200EBC100801CBC4A32F876
:104230001000C0F3090070470146B848006880B21A
:1042400000EBC100801DB64A32F81000C0F309002F
:10425000704730B54B105B00B04C2468A4B204EB3F
:10426000C004AF4D45F8143053105C00AB4B1B68D5
:104270009BB203EBC0031B1D45F8134030BD10B5C6
:104280004A105200A54B1B689BB203EBC003A44C21
:1042900044F8132010BD10B54A1053009F4A12680D
:1042A00092B202EBC002121D9D4C44F8123010BDB8
:1042B00001469A48006880B200EBC100984A32F883
:1042C000100080B2704701469448006880B200EB4D
:1042D000C100001D924A32F8100080B2704730B51C
:1042E0000B46012B1FD18D49096889B201EBC00132
:1042F000891C8B4D05EB41043E2A0BDD511102F068
:104300001F050DB94D1EA9B24FF4004545EA8125A0
:10431000256007E0511002F001050DB14D1CA9B256
:104320008D0225600AE0022B08D17C49096889B218
:1043300001EBC001891C7A4C44F81120012B1FD1DC
:104340007649096889B201EBC001891D744D05EBFE
:1043500041043E2A0BDD511102F01F050DB94D1E1F
:10436000A9B24FF4004545EA8125256007E05110C8
:1043700002F001050DB14D1CA9B28D0225600AE0C5
:10438000022B08D16549096889B201EBC001891D7A
:10439000634C44F8112030BD30B5034601291FD1CC
:1043A0005E48006880B200EBC300801C5C4D05EBEA
:1043B00040043E2A0BDD501102F01F050DB9451EC9
:1043C000A8B24FF4004545EA8025256007E050106B
:1043D00002F001050DB1451CA8B2850225600AE076
:1043E000022908D14D48006880B200EBC300801C50
:1043F0004B4C44F8102030BD30B5034601291FD185
:104400004648006880B200EBC300801D444D05EBB8
:1044100040043E2A0BDD501102F01F050DB9451E68
:10442000A8B24FF4004545EA8025256007E050100A
:1044300002F001050DB1451CA8B2850225600AE015
:10444000022908D13548006880B200EBC300801D06
:10445000334C44F8102030BD01463048006880B22B
:1044600000EBC100801C2E4A32F81000C0F3090096
:10447000704701462948006880B200EBC100801DEA
:10448000274A32F81000C0F309007047014623485C
:10449000006880B200EBC100801D214A32F8100094
:1044A00000F47C4008B1012070471C48006880B2CD
:1044B00000EBC100801C1A4A32F81000C0F309005A
:1044C00008B10220F0E70020EEE710B5012910D175
:1044D000114B03EB8002D2F8002C48F68F731A4080
:1044E00048F2C0031A430C4C04EB8003C3F8002CC1
:1044F00011E002290FD1084B03EB8002D2F8002C07
:1045000048F68F731A404CF280031A43024C04EBB6
:104510008003C3F8002C10BD00500040505C0040E8
:1045200000600040024641EA022070470146CAB2DC
:104530000B1243EA0220704700201D4908604FF427
:104540003F401C490880084600881949091F086037
:10455000002070472DE9F04104460E46154604F050
:104560007F00FFF701FE0746AAB239463046FFF743
:10457000B1FBA9B204F07F00FFF70DFE0020BDE8FB
:10458000F0812DE9F04104460E46002504F07F003D
:10459000FFF752FE054604F07F00FFF7F0FD0746E7
:1045A0002A4639463046FFF7AFFB2846BDE8F08182
:1045B000445C00404E0A00202DE9F05F05460020D3
:1045C00092469B4688460646814640241BE0284684
:1045D00041464746224600F042F853465A46C01A22
:1045E000914110D311461846224600F029F82D1AA1
:1045F00067EB01084F4622460120002100F020F819
:1046000017EB00094E41201EA4F10104DFDC4846EF
:1046100031462A464346BDE8F09F0000064C074D50
:1046200006E0E06840F0010394E807009847103482
:10463000AC42F6D3FBF780FD804A0008A04A000890
:10464000202A04DB203A00FA02F100207047914052
:10465000C2F1200320FA03F3194390407047202A47
:1046600004DB203A21FA02F00021704721FA02F31C
:10467000D040C2F12002914008431946704770B5FE
:104680008C1810F8015B15F0070301D110F8013BFD
:104690002A1106D110F8012B03E010F8016B01F884
:1046A000016B5B1EF9D12B0705D40023521E0DD4DC
:1046B00001F8013BFAE710F8013BCB1A921C03E02A
:1046C00013F8015B01F8015B521EF9D5A142D8D362
:1046D000002070BD0FB4054B10B503A9044A029821
:1046E00000F018F810BC5DF814FB00001913000866
:1046F0001009002002E008C8121F08C1002AFAD1E0
:1047000070477047002001E001C1121F002AFBD151
:10471000704700002DE9FF4F8DB09B460F460446C1
:10472000002606E025280BD05A460F999047641CB6
:10473000761C20780028F5D111B03046BDE8F08F06
:104740000025A8460122984900E0054314F8013FDE
:10475000203B02FA03F00842F7D120782E2817D127
:1047600014F8010F45F004052A280ED06FF02F022F
:104770002078A0F1300109290AD808EB880102EB62
:10478000410100EB0108641CF2E757F8048B641C3C
:1047900020786C280DD004DC4C2812D06A2811D166
:1047A00004E074280DD07A280CD10AE045F40015F5
:1047B00007E0617845F48015814202D1641C05F55B
:1047C0008015641C2078692844D008DC0028B3D008
:1047D000582867D063280FD0642808D13AE07028A1
:1047E00065D0732812D075285AD078285AD05A46E6
:1047F0000F999047761CD5E017F8040B8DF8000050
:1048000000208DF80100E946012003E057F8049BE1
:104810004FF0FF3069074FF0000501D40AE06D1C2E
:1048200045450DDA8542FADB19F805100029F6D165
:1048300006E06D1C8542FCDB19F805100029F8D153
:104840002E4404E019F8010B5A460F9990476D1E4B
:10485000F8D2A7E00A200021CDE90801C5F30250F3
:1048600002280CD001CFC117021E71F100020CDA30
:104870000023D0EB030063EB01012D2208E0FF1DB4
:1048800027F00707F7E80201EEE72A0504D52B22F7
:104890008DF8282001223CE0EA073AD02022F7E7F1
:1048A0000A2000E010200021CDE9080107E01020D7
:1048B000002145F00405CDE908014FF00808C5F3D3
:1048C0000250022810D001CF00214FF0000A2A0721
:1048D00020D52278702A0DD0DDE908C38CF0100CA9
:1048E0005CEA030C0CD015E0FF1D27F00707F7E882
:1048F0000201EAE740228DF828204FF0010A0CE07F
:1049000050EA010306D030238DF828308DF8292095
:10491000022292462278582A04D024A20DF12009BE
:104920000B9209E026A2F9E7DDE90823FFF744FE30
:104930000B9B9B5C09F8013D50EA0102F4D1ADEB01
:10494000090020300890680701D44FF00108089949
:10495000884503DD0898A8EB000000E000208046B1
:10496000002506E00AA85A46405D0F9990476D1C45
:10497000761C5545F6DB04E030205A460F999047E7
:10498000761CB8F10001A8F10108F5DC05E019F882
:10499000010B5A460F999047761C0899481E0890BB
:1049A0000029F4DC641CC4E60928010030313233EC
:1049B000343536373839616263646566000000005B
:1049C0003031323334353637383941424344454645
:1049D0000000000012010002000000408404105793
:1049E00000020102030109022200010100E0320974
:1049F0000400000103010100092100010001222D32
:104A0000000705810308002005010906A10105072B
:104A100019E029E715002501750195088102950126
:104A200075088103950675081500256505071900A9
:104A300029658100C0040309042603530054004D76
:104A4000006900630072006F0065006C0065006320
:104A500000740072006F006E006900630073001E36
:104A600003530054004D003300320020004A006F11
:104A700000790073007400690063006B000000009F
:104A8000A04A000800000020580A00007E460008E6
:104A9000384E0008580A0020481A00000447000851
:104AA00011450801400216060AFE0AC612E012F07D
:104AB0000214F80416FCFCFC8DF8F8F0B0019BF829
:104AC000F83E9DF8F830301C4EB0B0303030208FBA
:104AD0007848FE82BABA030218FE3DFFFFFE0601C7
:104AE0004CFFFFFF09290A712A60011D6FEFEF6774
:104AF000011C7F7F7F062DE7EFEF6F15693D68088A
:104B00003030313131F1F1051980793D0110280A39
:104B100024A42E24E4242EA424B910094A4C48F8D5
:104B2000484C4AF8EC1F1F0F80C41F1F1F38098014
:104B3000BFFFF3F33333F305BCFFBFBFBD113F80AD
:104B4000C0F07E3F0F0C3AC00129801CC02010012C
:104B5000AB20C00A11300A120A07027F02070A12AC
:104B60001E0B0A0A0A7F04A20B04113F3F3F280FC5
:104B7000181C0C0E070703010D0C1C3C3F1F667030
:104B800008010303070F1E1E19BDCC0F0D0C0129D0
:104B9000BD980A1F2040404050205F800A912FE0BE
:104BA000FEFEFCF0E001F5F8FCFFF82E073F7F7FEA
:104BB000FF013C7F7F7FD761360C040418E02C8016
:104BC000E0FC1D9BFCE050611C06081FC21B3F7FE0
:104BD00004741F0F021402017A029B644D01030347
:104BE00007014C0303011219B56A02BF39C3290F2B
:104BF0004A011D3921990C01387C3F7FFF010009D2
:104C00001AFEFCF8F0E0C0808012806E406070F800
:104C1000FC3106387F7F3F1F074CF0F8FE760B19FA
:104C2000F8E07201106BE0F87D033CFCF85C818ECB
:104C3000F076300C98B8F06462727C3C3C1808281E
:104C4000103018383C7C7C72727252585C1808081C
:104C500013A10E29C0FCC1C080AD011106100101D5
:104C6000030FC01D0203030119740302020511049E
:104C70000203010C10C01F011501261E070F3F7F04
:104C8000FF0102100319E039E23907D9ECA11A0338
:104C90003BFC7F1F073E0123297649011F7F3F1FF1
:104CA0000F0F07E969CF1BC060010315C0804F01DA
:104CB0000103070F1FB5493E01310A12FC012E7C8A
:104CC0007C3C3C1C017A0C01390F1A3C011A7C0116
:104CD0000912340122300B02030B030303010F05F9
:104CE0000313030C2008030E020202030216090F2D
:104CF00009090F250F080B0C280A080401020C0FE4
:104D0000070406DF500803020C0C0407042C0304FC
:104D100004385119141204120F1A043C1114070418
:104D2000072A04113927021507100C0CF23E20F84F
:104D30000618E07E02041380FE25883002FE232040
:104D4000181644F84042FC12FE23C838300B428249
:104D50001AB88C081C8482C03809FCFE2222E22288
:104D600022F255742CC080180B1012FE202004FC77
:104D7000181462A0400BFC10F80222C2FA02C222F0
:104D800002FFECF201300F48656C6C6F2C2057323B
:104D900035515858217CA24A042C300A02030406DB
:104DA000070809FFFF35080140027CFFFF0F0C4197
:104DB0001A5A52FB17EF66193A693EA50204060813
:104DC000141A03531254124D1233021D3213F927D1
:104DD0000C30082D3904411A02E513D1291B08EFC4
:104DE0000413992A1B089B041ACD04134D2B1B088E
:104DF000A9041A6D041A7B041A8904413240293C23
:104E00001A83240916581A911C13D4493308121A0C
:104E1000E60832221B084A1C311AF81032091A35EA
:104E20001032041A390832261A5F08321E13340968
:084E300073201A199B012100F7
:0400000508000131BD
:00000001FF
