:020000040800F2
:100000009007002045010008690400086104000809
:10001000650400088D0100083D0D00080000000087
:10002000000000000000000000000000510A00086D
:10003000990300080000000001090008410B0008B6
:100040005F0100085F0100085F0100085F01000810
:100050005F0100085F0100085F0100085F01000800
:100060005F0100085F0100085F0100085F010008F0
:100070005F0100085F0100085F0100085F010008E0
:100080005F0100085F0100085F0100085F010008D0
:100090005F0100085F0100085F0100085F010008C0
:1000A0005F0100085F0100085F0100085F010008B0
:1000B0005F0100085F0100085F0100085F010008A0
:1000C0005F0100085F0100085F0100085F01000890
:1000D0005F010008A10B00085F0100085F01000834
:1000E0005F0100085F0100085F0100085F01000870
:1000F0005F0100085F0100085F0100085F01000860
:100100005F0100085F0100085F0100085F0100084F
:100110005F0100085F0100085F0100085F0100083F
:100120005F0100085F0100085F0100085F0100082F
:10013000DFF80CD000F018F800480047850D0008E3
:10014000900700200648804706480047FEE7FEE784
:10015000FEE7FEE7FEE7FEE7FEE7FEE7FEE7FEE777
:10016000490B000831010008064C074D06E0E06825
:1001700040F0010394E8070098471034AC42F6D3EE
:10018000FFF7DAFF080F0008280F0008FEE700005D
:1001900080B540F60000C4F201000221012200F007
:1001A00059F980BD0422010FC4F2020261F38A22D0
:1001B0001060704702684FF6FE7C42F00103002990
:1001C00008BF02EA0C0303607047000002684FF6A4
:1001D000FE731A407F230421C4F20203C4F2020119
:1001E000026000229842026042608260C26016DCB7
:1001F0004322C4F2020290422CDC0822C4F2020222
:10020000904251D01C22C4F2020290424ED03022C1
:10021000C4F2020290425ED14FF4706058E040F2A6
:100220002F42C4F20202904226DC8022C4F2020273
:1002300090423DD040F20842C4F2020290423AD0CD
:1002400040F21C42C4F20202904244D101F58061A6
:10025000F0203DE04422C4F20202904236D05822FF
:10026000C4F2020290421CD06C22C4F202029042FC
:1002700031D14FF470002BE040F23042C4F2020260
:1002800090421CD040F24442C4F2020290421BD081
:1002900040F25842C4F20202904218BF704701F582
:1002A00080614FF4702013E00F2011E0F0200FE088
:1002B0004FF070600CE001F580610F2008E001F55F
:1002C00080614FF4706003E001F580614FF470408D
:1002D0000A681043086070470022010FC4F202024E
:1002E00061F38A221168084018BF0120704700009E
:1002F0002DE9F047026847F6F073D1E9026A9A43A4
:1003000001F11007B0CF01F11C0E3243D1E9008991
:100310009EE80A501A4322432A433A43114341EAD2
:100320000C0141EA0E010160C0F804A0C0F8088089
:10033000C0F80C90BDE8F08710B58CB00120012109
:1003400000F0E0FA3024C4F202042046FFF73EFF3A
:1003500043F20C00C4F20100019040F28000C2F2AE
:1003600000000290102003904FF480600490002061
:100370008021CDE906104FF480510590CDE90800A9
:10038000CDE90A1001A92046FFF7B2FF204601215E
:10039000FFF710FF0CB010BD704700002DE9F041D1
:1003A000CA7802F00F0CD30644BF8B784CEA030CDA
:1003B00009880B0621D0056800234FF001084FF093
:1003C0000F0E002608E000BF282A08BF476101364B
:1003D000082E03F104030FD008FA06F70F42F6D0F7
:1003E0000EFA03F425EA04040CFA03F5482A45EA58
:1003F0000405E9D10761EAE70560B1F5807F38BF00
:10040000BDE8F081446800234FF4807E4FF00F0870
:10041000002607E0282A08BF47610136082E03F1AD
:10042000040310D00EFA06F707EA0105BD42F4D125
:1004300008FA03F5AC430CFA03F5482A44EA05042C
:10044000E8D10761E9E74460BDE8F08141617047A8
:10045000016170471023002A08BF1423C150704760
:10046000FEE70000FEE700007047000010B5C1780D
:1004700000294EF20011CEF200011AD04EF60C52B5
:10048000CEF200021268072323EA12220F23C2F1E0
:10049000040C23FA02F24378847890F800E003FA1F
:1004A0000CF322401A43120101EB0E0383F80023E0
:1004B00000E080310078012300F01F0203FA02F20D
:1004C000C0F3421041F8202010BD000040F08060D1
:1004D0004EF60C5140F0FD70CEF2000108607047FE
:1004E0004EF623510001CEF2000108707047000063
:1004F00080B540F280010020C2F200014FF0000CF4
:100500006FF00303CA180433B3F5FE7F1071F9D1FD
:100510000CF1010CBCF1040F01F10101F0D100F06C
:100520009BF880BDB0B5CD0801F0070E40F2800108
:10053000C2F2000101EB80004FF0010C415D0CFAAA
:100540000EF341EA0304002A08BF21EA03044455DC
:10055000B0BD0000B0B582B041F20500012100F04D
:10056000DDF9A02040F60004C1F60300C4F2010446
:1005700001AD019020462946FFF710FF1720ADF886
:10058000040010208DF8070020462946FFF706FFDB
:1005900020460121FFF75CFF00F004F9FFF7CCFED5
:1005A00020460421FFF752FFC82000F0C9FB204677
:1005B0000421FFF74DFFAE2000F01AF9002000F0F3
:1005C00017F9102000F014F9002000F011F9B02004
:1005D00000F00EF9812000F00BF9FF2000F008F97F
:1005E000A12000F005F9A62000F002F9A82000F0F3
:1005F000FFF81F2000F0FCF8C82000F0F9F8D32025
:1006000000F0F6F8002000F0F3F8D52000F0F0F844
:10061000802000F0EDF8D92000F0EAF81F2000F06B
:10062000E7F8DA2000F0E4F8002000F0E1F8DB2041
:1006300000F0DEF8402000F0DBF88D2000F0D8F864
:10064000142000F0D5F8FFF753FFAF2000F0D0F8EA
:10065000FFF79EFD02B0B0BDF0B5ADF5017D40F2F3
:100660008005C2F200052E1F002701ACA7F1500043
:10067000C0B200F0BDF8002000F0BAF8102000F081
:10068000B7F84FF0FF30314611F8042F231801302E
:100690007F285A70F8D12046802100F007F9E81928
:1006A00090F8000200F0D0F80137042F06F101069F
:1006B000DCD10DF5017DF0BD2DE9F04F87B0049040
:1006C00040F6000005920D46C4F20100022100220E
:1006D0001C460026FFF7BEFEE01DB6EBD00F54D03F
:1006E000C00801900598119C0138C0B2DDF810B027
:1006F000B4FA84F7013000224FF0000A2E46009031
:1007000005E000BF01320199D0B281423DD9059880
:100710000028F7D04FF000090392CDF808A000BFE1
:1007200010991FFA8AF006950D5C4FF0000800BF83
:10073000E80722465FFA8BF0F1B208BF7A09FFF7AB
:10074000F1FE6D080136B8F1070F08F10108EFD38B
:100750000BF1010B049A5FFA8BF00599801A09F1ED
:100760000109884208BF9346069D5FFA89F00AF1A5
:10077000010A08BF083588422E46D1D30098DDF81B
:1007800008A0039A82442E46BCE7FFF765FF40F6B7
:100790000000C4F2010002210122FFF75BFE07B056
:1007A000BDE8F08F10B586B04CF20000C0F2041026
:1007B00001904FF4003002900120C0F2002003901D
:1007C000002043F2000404900720C4F20104ADF8B5
:1007D000140001A9204600F017F920460221012249
:1007E00000F002F92046012100F0F4F806B010BD37
:1007F00070B543F20005C4F20105A5F52054064684
:1008000020461021FFF722FE2846022100F0F4F8CE
:100810000028F9D02846314600F0F4F82846022195
:10082000012200F0E1F800BF2846802100F0E4F842
:100830000128F9D028460221002200F0D5F82046F0
:100840001021FFF703FE70BD70B543F20005C4F23E
:100850000105A5F52054064620461021FFF7F8FDB6
:100860002846022100F0C8F80028F9D028460221C5
:1008700000F0C2F80028F9D02846314600F0C2F84E
:1008800028460221012200F0AFF800BF284680214F
:1008900000F0B2F80128F9D028460221002200F029
:1008A000A3F820461021FFF7D1FD70BDF0B581B04F
:1008B0003027C4F202070D46064643F200043846CC
:1008C0000021C4F20104FFF775FC04F10C007D6007
:1008D000FE60B86038460121FFF76CFC4FF40070F1
:1008E000FFF7FAFC0028F9D04FF40070FFF75AFC2C
:1008F0002046802100F080F80128F9D001B0F0BD39
:1009000070470000002941F21401C4F202010A6894
:100910000CBF22EA0000104308607047002941F232
:100920001801C4F202010A680CBF22EA0000104359
:100930000860704710B541F20404C4F20204226852
:1009400002F00C02082A41F20022C0F27A021CD105
:100950002368D4F800C0C3F3834E5FEACC330EF1B2
:10096000020C06D440F60012C0F23D020CFB02F26B
:100970000BE023689B0302D40CFB02F205E040F677
:100980000012C0F23D020CFB02F20260226840F647
:10099000F863C2F30312C0F600039A5C0168D14009
:1009A00041602268C2F302229A5C21FA02F282605C
:1009B0002268C2F3C2229A5C40F6F463D140C1605F
:1009C0002268C0F60003C2F381329A5CB1FBF2F1F7
:1009D000016110BD0288002918BF012122F04002E8
:1009E00042EA811101807047002A82880CBF22EA06
:1009F00001011143818070470089084018BF012020
:100A000070470000818170472DE9F04102880B8812
:100A100002F4415C4A88B1F804E043EA0C03CC8854
:100A20001A430D8942EA0E024E8922438F892A43D6
:100A3000B1F80E8032433A4342EA08020280828BC8
:100A400022F400628283098A0182BDE8F0810000FD
:100A50007047000080B500F001F880BD82B041F21F
:100A600004000021C4F202000191009150F8041C1E
:100A700041F4803140F8041C50F8041C01F40031AA
:100A80000091019901310191009919B90199B1F5CC
:100A9000A06FF1D150F8041C890354BF002101213B
:100AA00000910099012936D142F20001C4F20201FD
:100AB0000A6842F010020A600A6822F003020A6023
:100AC0000A6842F002020A60016801600168016080
:100AD000016841F480610160016821F47C110160CA
:100AE000016841F4E811016050F8041C41F0807184
:100AF00040F8041C50F8041C8901FBD5016821F062
:100B000003010160016841F002010160016801F028
:100B10000C010829FAD102B07047000010B520F08E
:100B20007F404EF210040138CEF2000460600F20C6
:100B3000FFF7D6FC0020A0600720206010BD000059
:100B400080B500F009F980BD80B541F20000C4F223
:100B500002000168002241F0010101604168CFF606
:100B6000FF021140416001684FF6FF72CFF6F66256
:100B700011400160016821F480210160416821F485
:100B8000FE0141604FF41F018160FFF763FF4EF6E5
:100B90000850CEF200004FF00061016080BD0000FF
:100BA00010B543F60004C4F20104204640F225517A
:100BB00000F034F838B3204600F0BCF840F2883139
:100BC000C2F200010A88130448BF10BD5304C0B22A
:100BD00005D40D280AD142F48040088010BD0A28AF
:100BE00014BF002042F40040088010BD40F2C02431
:100BF000531C6FF39F32C2F20004A05498B2C7286E
:100C000088BF00230B8010BD8289002918BF0121F5
:100C100022F4005242EA413181817047C1F342120D
:100C2000022A06D0012A14BF00F1140200F10C02BE
:100C300001E000F110021288008801F01F03090A88
:100C4000DA40C840104000F001007047C1F3421381
:100C500001F01F0C1421022B08BF1021012B4FF0B3
:100C6000010308BF0C21002A03FA0CF243580CBF01
:100C700023EA02021A4342507047000070B586B062
:100C80000446008A0D46C98820F44050084320825B
:100C9000A0894EF6F3110840A9882A896B89084378
:100CA00010431843A081A08AA98920F4407008430A
:100CB00001AEA0823046FFF73DFE43F6000106F18B
:100CC0000800C4F201018C4208BF06F10C00006864
:100CD0001922B4F90C1050432A680123B1F1FF3FE7
:100CE000C8BF022302FA03F1B0FBF1F048F21F5132
:100CF000C5F2EB11A0FB01235A096FF0630302FB5D
:100D00000300B4F90C300326B3F1FF3FC8BF04263B
:100D100000FA06F000F13200A0FB01014FF00700DD
:100D2000C8BF0F2000EA511040EA0210208106B02F
:100D300070BD000080886FF35F207047FEE7000001
:100D40004FF47A71414340F28C30C2F200000160EE
:100D500001680029FCD1704740F28C30C2F20000DB
:100D60000168002908BF70470168013901607047B8
:100D700043F60001C4F201010A885206FCD5C2B252
:100D80008A80704784B000F035F84FF4E13000F00D
:100D900045F84FF4A060FFF799FB15A000F082F82A
:100DA000FFF7D8FBFFF7A4FB40F20406002401255F
:100DB000C2F200060A2001211D222023CDE9006590
:100DC0000294FFF779FC00BF6FF009070A37FFF7BD
:100DD0008FFBF8B201211D222023CDE9006502948A
:100DE000FFF76AFCC820FFF7ABFF6E2FEED3EBE7EF
:100DF0007364610080B540F27800C2F200000068C0
:100E00004DF68361C4F21B31A0FB0101880CFFF792
:100E100085FE0020FFF764FB80BD0000F0B587B0C1
:100E2000054644F204000121FFF778FD43F6000473
:100E300040F20020C4F20104C1F60300A4F54056BC
:100E400006AF069030463946FFF7A8FA4FF48060A7
:100E5000ADF8180004208DF81B0030463946FFF726
:100E60009DFA40F22530C0F20310019001A8FFF76F
:100E7000FDFA00204FF4402103900491ADF81400D6
:100E800002A920460295FFF7F9FE204640F22551BF
:100E90000122FFF7DBFE20460121FFF7B5FE07B078
:100EA000F0BD0000014A024900F013B8710D0008BE
:100EB0000000002002E008C8121F08C1002AFAD171
:100EC00070477047002001E001C1121F002AFBD1CA
:100ED00070472DE9F04116460F460446002503E011
:100EE0003946B047641C6D1C20780028F8D128468C
:100EF000BDE8F081020406080000000001020304BE
:100F00000102030406070809280F0008000000205A
:100F100080000000B40E0008A80F00088000002028
:100F200010070000C40E00080000000000000000D0
:100F30000000000000E0FEFEFCF0E0E0E0E0E0F891
:100F4000FCFFF800000000000000000000000000AE
:100F50000000073F7F7FFFFFFFFFFF7F7F7F3F0F87
:100F60000000000000000000000C040418E0000075
:100F70000080E0FCFFFFFFFFFCE0800000000000BD
:100F8000000000000000000000000006081F3F3FB6
:100F90003F3F7F3F3F3F1F0F020000000000000067
:080FA00000A24A040000000059
:0400000508000131BD
:00000001FF
