:020000040800F2
:10000000D8040020450100084D0200084502000800
:10001000490200088D0100087D060008000000006C
:100020000000000000000000000000009103000834
:100030009101000800000000D502000881040008BA
:100040005F0100085F0100085F0100085F01000810
:100050005F0100085F0100085F0100085F01000800
:100060005F0100085F0100085F0100085F010008F0
:100070005F0100085F0100085F0100085F010008E0
:100080005F0100085F0100085F0100085F010008D0
:100090005F0100085F0100085F0100085F010008C0
:1000A0005F0100085F0100085F0100085F010008B0
:1000B0005F0100085F0100085F0100085F010008A0
:1000C0005F0100085F0100085F0100085F01000890
:1000D0005F010008E10400085F0100085F010008FB
:1000E0005F0100085F0100085F0100085F01000870
:1000F0005F0100085F0100085F0100085F01000860
:100100005F0100085F0100085F0100085F0100084F
:100110005F0100085F0100085F0100085F0100083F
:100120005F0100085F0100085F0100085F0100082F
:10013000DFF80CD000F018F800480047AD060008C2
:10014000D80400200648804706480047FEE7FEE73F
:10015000FEE7FEE7FEE7FEE7FEE7FEE7FEE7FEE777
:100160008904000831010008064C074D06E0E068EC
:1001700040F0010394E8070098471034AC42F6D3EE
:10018000FFF7DAFFE407000804080008FEE70000B4
:10019000704700002DE9F041CA7802F00F0CD30639
:1001A00044BF8B784CEA030C09880B0621D0056804
:1001B00000234FF001084FF00F0E002608E000BFAB
:1001C000282A08BF47610136082E03F104030FD027
:1001D00008FA06F70F42F6D00EFA03F425EA0404F3
:1001E0000CFA03F5482A45EA0405E9D10761EAE774
:1001F0000560B1F5807F38BFBDE8F0814468002319
:100200004FF4807E4FF00F08002607E0282A08BF31
:1002100047610136082E03F1040310D00EFA06F7E9
:1002200007EA0105BD42F4D108FA03F5AC430CFA24
:1002300003F5482A44EA0504E8D10761E9E7446088
:10024000BDE8F081FEE70000FEE700007047000017
:1002500010B5C17800294EF20011CEF200011AD07B
:100260004EF60C52CEF200021268072323EA122245
:100270000F23C2F1040C23FA02F24378847890F839
:1002800000E003FA0CF322401A43120101EB0E03C3
:1002900083F8002300E080310078012300F01F0282
:1002A00003FA02F2C0F3421041F8202010BD000012
:1002B00040F080604EF60C5140F0FD70CEF200012F
:1002C000086070474EF623510001CEF2000108701D
:1002D0007047000070470000002941F21801C4F285
:1002E00002010A680CBF22EA000010430860704750
:1002F00010B541F20404C4F20204226802F00C02B8
:10030000082A41F20022C0F27A021CD12368D4F8F4
:1003100000C0C3F3834E5FEACC330EF1020C06D467
:1003200040F60012C0F23D020CFB02F20BE0236823
:100330009B0302D40CFB02F205E040F60012C0F26F
:100340003D020CFB02F20260226840F2D473C2F359
:100350000312C0F600039A5C0168D1404160226834
:10036000C2F302229A5C21FA02F282602268C2F38E
:10037000C2229A5C40F2D073D140C1602268C0F6BC
:100380000003C2F381329A5CB1FBF2F1016110BD4E
:100390007047000080B500F001F880BD82B041F2E6
:1003A00004000021C4F202000191009150F8041CE5
:1003B00041F4803140F8041C50F8041C01F4003171
:1003C0000091019901310191009919B90199B1F593
:1003D000A06FF1D150F8041C890354BF0021012102
:1003E00000910099012936D142F20001C4F20201C4
:1003F0000A6842F010020A600A6822F003020A60EA
:100400000A6842F002020A60016801600168016046
:10041000016841F480610160016821F47C11016090
:10042000016841F4E811016050F8041C41F080714A
:1004300040F8041C50F8041C8901FBD5016821F028
:1004400003010160016841F002010160016801F0EF
:100450000C010829FAD102B07047000010B520F055
:100460007F404EF210040138CEF2000460600F208D
:10047000FFF728FF0020A0600720206010BD0000CB
:1004800080B500F0FDF880BD80B541F20000C4F2F7
:1004900002000168002241F0010101604168CFF6CD
:1004A000FF021140416001684FF6FF72CFF6F6621D
:1004B00011400160016821F480210160416821F44C
:1004C000FE0141604FF41F018160FFF763FF4EF6AC
:1004D0000850CEF200004FF00061016080BD0000C6
:1004E00010B543F60004C4F20104204640F2255141
:1004F00000F034F838B3204600F0BCF840F2D001E8
:10050000C2F200010A88130448BF10BD5304C0B2F0
:1005100005D40D280AD142F48040088010BD0A2875
:1005200014BF002042F40040088010BD40F20804CF
:10053000531C6FF39F32C2F20004A05498B2C72834
:1005400088BF00230B8010BD8289002918BF0121BC
:1005500022F4005242EA413181817047C1F34212D4
:10056000022A06D0012A14BF00F1140200F10C0285
:1005700001E000F110021288008801F01F03090A4F
:10058000DA40C840104000F001007047C1F3421348
:1005900001F01F0C1421022B08BF1021012B4FF07A
:1005A000010308BF0C21002A03FA0CF243580CBFC8
:1005B00023EA02021A4342507047000070B586B029
:1005C0000446008A0D46C98820F440500843208222
:1005D000A0894EF6F3110840A9882A896B8908433F
:1005E00010431843A081A08AA98920F440700843D1
:1005F00001AEA0823046FFF77BFE43F6000106F114
:100600000800C4F201018C4208BF06F10C0000682A
:100610001922B4F90C1050432A680123B1F1FF3FAD
:10062000C8BF022302FA03F1B0FBF1F048F21F51F8
:10063000C5F2EB11A0FB01235A096FF0630302FB23
:100640000300B4F90C300326B3F1FF3FC8BF042602
:1006500000FA06F000F13200A0FB01014FF00700A4
:10066000C8BF0F2000EA511040EA0210208106B0F6
:1006700070BD000080886FF35F207047FEE70000C8
:1006800040F2D400C2F200000168002908BF7047A0
:10069000016801390160704743F60001C4F20101AD
:1006A0000A885206FCD5C2B28A80704700F010F862
:1006B0004FF4E13000F020F84FF4A060FFF7F8FDB0
:1006C00002A000F05DF800BFFEE700BF73646100A8
:1006D00080B540F20400C2F2000000684DF683616C
:1006E000C4F21B31A0FB0101880CFFF7B7FE00200C
:1006F000FFF7E8FD80BD0000F0B587B0054644F285
:1007000004000121FFF7E8FD43F6000440F2002059
:10071000C4F20104C1F60300A4F5405606AF0690EA
:1007200030463946FFF736FD4FF48060ADF81800CB
:1007300004208DF81B0030463946FFF72BFD40F2B0
:100740002530C0F20310019001A8FFF781FD0020C1
:100750004FF4402103900491ADF8140002A9204603
:100760000295FFF72BFF204640F225510122FFF7AB
:100770000DFF20460121FFF7E7FE07B0F0BD0000A6
:10078000014A024900F013B8990600080000002051
:1007900002E008C8121F08C1002AFAD1704770474A
:1007A000002001E001C1121F002AFBD170472DE992
:1007B000F04116460F460446002503E03946B0478F
:1007C000641C6D1C20780028F8D12846BDE8F08113
:1007D00002040608000000000102030401020304F1
:1007E00006070809080800080000002008000000AB
:1007F000900700081008000808000020D00400003E
:10080000A0070008000000000000000000A24A0449
:0400000508000131BD
:00000001FF
