:020000040800F2
:10000000E004002045010008F5030008C5020008CF
:10001000F1030008B90100088D0800080000000085
:10002000000000000000000000000000A105000822
:10003000F9010008000000007D0400089106000896
:100040005F0100085F0100085F0100085F01000810
:100050005F0100085F0100085F0100085F01000800
:100060005F0100085F0100085F0100085F010008F0
:100070005F0100085F0100085F0100085F010008E0
:100080005F0100085F0100085F0100085F010008D0
:100090005F0100085F0100085F0100085F010008C0
:1000A0005F0100085F0100085F0100085F010008B0
:1000B0005F0100085F0100085F0100085F010008A0
:1000C0005F0100085F0100085F0100085F01000890
:1000D0005F010008F10600085F0100085F010008E9
:1000E0005F0100085F0100085F0100085F01000870
:1000F0005F0100085F0100085F0100085F01000860
:100100005F0100085F0100085F0100085F0100084F
:100110005F0100085F0100085F0100085F0100083F
:100120005F0100085F0100085F0100085F0100082F
:10013000DFF80CD000F02EF800480047D508000882
:10014000E00400200648804706480047FEE7FEE737
:10015000FEE7FEE7FEE7FEE7FEE7FEE7FEE7FEE777
:10016000990600083101000830B50B460146002011
:100170002022012409E021FA02F59D4205D303FA69
:1001800002F5491B04FA02F52844151EA2F10102EA
:10019000F1DC30BD064C074D06E0E06840F001039D
:1001A00094E8070098471034AC42F6D3FFF7C4FF39
:1001B000700B0008900B0008FEE70000042807D829
:1001C0002021DFE800F00E0307090C00402108E0C1
:1001D000C0B27047802104E04FF4807101E04FF419
:1001E000007180B541F20040C4F2010000F05EF8F9
:1001F000BDE88040C0B27047704700002DE9F04173
:10020000CA7802F00F0CD30644BF8B784CEA030C7B
:1002100009880B0621D0056800234FF001084FF034
:100220000F0E002608E000BF282A08BF47610136EC
:10023000082E03F104030FD008FA06F70F42F6D098
:100240000EFA03F425EA04040CFA03F5482A45EAF9
:100250000405E9D10761EAE70560B1F5807F38BFA1
:10026000BDE8F081446800234FF4807E4FF00F0812
:10027000002607E0282A08BF47610136082E03F14F
:10028000040310D00EFA06F707EA0105BD42F4D1C7
:1002900008FA03F5AC430CFA03F5482A44EA0504CE
:1002A000E8D10761E9E74460BDE8F0818068084073
:1002B00018BF0120704700001023002A08BF142334
:1002C000C1507047FEE70000B0B582B02020012188
:1002D00000F0D6F80F2041F20044C1F20300C4F24E
:1002E000010401AD019020462946FFF787FF202039
:1002F000012100F0C5F840F2E030C4F6030001909F
:1003000020462946FFF77AFF02B0B0BD80B5FFF75F
:10031000DBFF80BD80B50A46014602A000F054FB19
:1003200080BD00BFB5DA2564D0D0B5DA2564C1D070
:1003300020444F574E0D0A0080B50A46014602A0E0
:1003400000F042FB80BD00BFB5DA2564D0D0B5DA3D
:100350002564C1D02055500D0A0000002DE9F04F52
:1003600081B040F2080480460027C2F200044FF03A
:1003700001094FF0000A06E00AF1010ABAF1040F80
:1003800007F104072DD05FFA8AFB584600F0D4F835
:1003900000250EE02068791909FA01F108420ED013
:1003A0008843206058463146FFF7B4FF0135052DDC
:1003B000E2D0EEB23046FFF701FF0028EAD0304627
:1003C000FFF7FCFE0128F1D12068791909FA01F143
:1003D0000842EBD10843206058463146FFF7ACFF96
:1003E000E4E72068C8F8000001B0BDE8F08F000025
:1003F000FEE700007047000010B5C17800294EF2FA
:100400000011CEF200011AD04EF60C52CEF20002CC
:100410001268072323EA12220F23C2F1040C23FAE5
:1004200002F24378847890F800E003FA0CF322405B
:100430001A43120101EB0E0383F8002300E0803120
:100440000078012300F01F0203FA02F2C0F3421009
:1004500041F8202010BD000040F080604EF60C51A5
:1004600040F0FD70CEF20001086070474EF6235157
:100470000001CEF2000108707047000070470000D4
:10048000002941F21801C4F202010A680CBF22EAF5
:10049000000010430860704710B541F20404C4F234
:1004A0000204226802F00C02082A41F20022C0F283
:1004B0007A021CD12368D4F800C0C3F3834E5FEAEC
:1004C000CC330EF1020C06D440F60012C0F23D020D
:1004D0000CFB02F20BE023689B0302D40CFB02F23C
:1004E00005E040F60012C0F23D020CFB02F2026091
:1004F000226840F66033C2F30312C0F600039A5C30
:100500000168D14041602268C2F302229A5C21FA5C
:1005100002F282602268C2F3C2229A5C40F65C3327
:10052000D140C1602268C0F60003C2F381329A5CF8
:10053000B1FBF2F1016110BD032888BF7047F0B52F
:1005400081B00121C000C0F2011101F1FF0221FAC6
:1005500000F540F20111C0F2010141F20044C24035
:1005600001F57F03C4F2010423FA00F621FA00F733
:10057000D2B220460821FFF79FFEEAB220460421AE
:10058000FFF79AFEF2B220460221FFF795FEFAB27B
:1005900020460121FFF790FE01B0BDE8F040704712
:1005A0007047000080B500F001F880BD82B041F2D4
:1005B00004000021C4F202000191009150F8041CD3
:1005C00041F4803140F8041C50F8041C01F400315F
:1005D0000091019901310191009919B90199B1F581
:1005E000A06FF1D150F8041C890354BF00210121F0
:1005F00000910099012936D142F20001C4F20201B2
:100600000A6842F010020A600A6822F003020A60D7
:100610000A6842F002020A60016801600168016034
:10062000016841F480610160016821F47C1101607E
:10063000016841F4E811016050F8041C41F0807138
:1006400040F8041C50F8041C8901FBD5016821F016
:1006500003010160016841F002010160016801F0DD
:100660000C010829FAD102B07047000010B520F043
:100670007F404EF210040138CEF2000460600F207B
:10068000FFF7F4FE0020A0600720206010BD0000EE
:1006900080B500F009F980BD80B541F20000C4F2D8
:1006A00002000168002241F0010101604168CFF6BB
:1006B000FF021140416001684FF6FF72CFF6F6620B
:1006C00011400160016821F480210160416821F43A
:1006D000FE0141604FF41F018160FFF763FF4EF69A
:1006E0000850CEF200004FF00061016080BD0000B4
:1006F00010B543F60004C4F20104204640F225512F
:1007000000F034F838B3204600F0BCF840F2D801CD
:10071000C2F200010A88130448BF10BD5304C0B2DE
:1007200005D40D280AD142F48040088010BD0A2863
:1007300014BF002042F40040088010BD40F21004B5
:10074000531C6FF39F32C2F20004A05498B2C72822
:1007500088BF00230B8010BD8289002918BF0121AA
:1007600022F4005242EA413181817047C1F34212C2
:10077000022A06D0012A14BF00F1140200F10C0273
:1007800001E000F110021288008801F01F03090A3D
:10079000DA40C840104000F001007047C1F3421336
:1007A00001F01F0C1421022B08BF1021012B4FF068
:1007B000010308BF0C21002A03FA0CF243580CBFB6
:1007C00023EA02021A4342507047000070B586B017
:1007D0000446008A0D46C98820F440500843208210
:1007E000A0894EF6F3110840A9882A896B8908432D
:1007F00010431843A081A08AA98920F440700843BF
:1008000001AEA0823046FFF747FE43F6000106F135
:100810000800C4F201018C4208BF06F10C00006818
:100820001922B4F90C1050432A680123B1F1FF3F9B
:10083000C8BF022302FA03F1B0FBF1F048F21F51E6
:10084000C5F2EB11A0FB01235A096FF0630302FB11
:100850000300B4F90C300326B3F1FF3FC8BF0426F0
:1008600000FA06F000F13200A0FB01014FF0070092
:10087000C8BF0F2000EA511040EA0210208106B0E4
:1008800070BD000080886FF35F207047FEE70000B6
:100890004FF47A71414340F2DC00C2F20000016083
:1008A00001680029FCD1704740F2DC00C2F2000070
:1008B0000168002908BF704701680139016070476D
:1008C00043F60001C4F201010A885206FCD5C2B207
:1008D0008A80704782B000F01FF84FF6FF70C0F2B8
:1008E000010001904FF4E13000F02AF84FF4A060CD
:1008F000FFF7B2FD06A000F067F8FFF707FD01ACB7
:100900002046FFF72BFD4FF47A70FFF7C1FFF7E7A2
:10091000736461320000000080B540F20400C2F24E
:10092000000000684DF68361C4F21B31A0FB010199
:10093000880CFFF79BFE0020FFF798FD80BD0000AC
:10094000F0B587B0054644F204000121FFF798FD99
:1009500043F6000440F20020C4F20104C1F6030093
:10096000A4F5405606AF069030463946FFF746FCE0
:100970004FF48060ADF8180004208DF81B0030465D
:100980003946FFF73BFC40F22530C0F203100190DE
:1009900001A8FFF731FD00204FF44021039004919E
:1009A000ADF8140002A920460295FFF70FFF20467C
:1009B00040F225510122FFF7F1FE20460121FFF709
:1009C000CBFE07B0F0BD00000FB4054B10B503A976
:1009D000044A029800F018F810BC5DF814FB0000FF
:1009E000C10800080000002002E008C8121F08C16A
:1009F000002AFAD170477047002001E001C1121FA0
:100A0000002AFBD1704700002DE9FF4F89B09B46BB
:100A10000446002506E025280BD05A460B9990473E
:100A2000641C6D1C20780028F5D10DB02846BDE867
:100A3000F08F0027B8460122474900E0074314F829
:100A4000013F203B02FA03F00842F7D120782E281C
:100A500019D114F8010F47F004072A280ED06FF0BF
:100A60002F022078A0F1300109290CD808EB880169
:100A700002EB410100EB0108641CF2E70A98641CD8
:100A800050F8048B0A9020780028CED0642808D033
:100A9000692806D075281ED05A460B9990476D1CC0
:100AA00058E00A994FF00A0901C90A91002802DAB0
:100AB00040422D2102E0390504D52B218DF820106C
:100AC000012103E0F90704D02021F7E78A4608AEA8
:100AD0000DE00021FAE70A994FF00A0901C90A91CD
:100AE000F7E74946FFF740FB303106F8011D0028C3
:100AF000F7D1ADEB060000F12009780701D44FF0E3
:100B00000108C84502DDA8EB090000E0002080468E
:100B1000002706E008A85A46C05D0B9990476D1C57
:100B20007F1C5745F6DB04E030205A460B9990476E
:100B30006D1CB8F10001A8F10108F5DC05E016F81C
:100B4000010B5A460B9990476D1CB9F10001A9F1B0
:100B50000109F4DC641C65E70928010002040608A9
:100B60000000000001020304010203040607080953
:100B7000900B00080000002010000000E8090008A9
:100B8000A00B000810000020D0040000F8090008A5
:100B90000000000000A24A04FFFF01000000000066
:0400000508000131BD
:00000001FF
