:020000040800F2
:100000008809002045010008950300088D030008B9
:100010009103000831020008750C00080000000080
:10002000000000000000000000000000910900082E
:10003000490200080000000005080008810A0008C5
:100040005F0100085F0100085F0100085F01000810
:100050005F0100085F0100085F0100085F01000800
:100060005F0100085F0100085F0100085F010008F0
:100070005F0100085F0100085F0100085F010008E0
:100080005F0100085F0100085F0100085F010008D0
:100090005F0100085F0100085F0100085F010008C0
:1000A0005F0100085F0100085F0100085F010008B0
:1000B0005F0100085F0100085F0100085F010008A0
:1000C0005F0100085F0100085F0100085F01000890
:1000D0005F010008E10A00085F0100085F010008F5
:1000E0005F0100085F0100085F0100085F01000870
:1000F0005F0100085F0100085F0100085F01000860
:100100005F0100085F0100085F0100085F0100084F
:100110005F0100085F0100085F0100085F0100083F
:100120005F0100085F0100085F0100085F0100082F
:10013000DFF80CD000F04AF8004800472D0E000808
:10014000880900200648804706480047FEE7FEE78A
:10015000FEE7FEE7FEE7FEE7FEE7FEE7FEE7FEE777
:10016000890A0008310100082DE9F05F05460020EA
:1001700092469B4688460646814640241BE0284618
:1001800041464746224600F042F853465A46C01AB6
:10019000914110D311461846224600F029F82D1A35
:1001A00067EB01084F4622460120002100F020F8AD
:1001B00017EB00094E41201EA4F10104DFDC484684
:1001C00031462A464346BDE8F09F0000064C074DE5
:1001D00006E0E06840F0010394E807009847103417
:1001E000AC42F6D3FFF7A8FF90120008B012000847
:1001F000202A04DB203A00FA02F1002070479140E7
:10020000C2F1200320FA03F3194390407047202ADB
:1002100004DB203A21FA02F00021704721FA02F3B0
:10022000D040C2F1200291400843194670470000B7
:10023000FEE7000080B540F60040C4F20100022154
:10024000012200F09DF880BD704700002DE9F041CB
:10025000CA7802F00F0CD30644BF8B784CEA030C2B
:1002600009880B0621D0056800234FF001084FF0E4
:100270000F0E002608E000BF282A08BF476101369C
:10028000082E03F104030FD008FA06F70F42F6D048
:100290000EFA03F425EA04040CFA03F5482A45EAA9
:1002A0000405E9D10761EAE70560B1F5807F38BF51
:1002B000BDE8F081446800234FF4807E4FF00F08C2
:1002C000002607E0282A08BF47610136082E03F1FF
:1002D000040310D00EFA06F707EA0105BD42F4D177
:1002E00008FA03F5AC430CFA03F5482A44EA05047E
:1002F000E8D10761E9E74460BDE8F081B0B50422C8
:10030000C4F20102134602F1180E002848BF7346DA
:100310001C6800F44013B3F5401F1FFA80FC06D19F
:10032000156824F0706325F07064146015E0C30252
:100330000AD46FF00F0303EA50430CFA03F324EAE4
:10034000030343F0706308E0C0F30343032505FA99
:1003500003F324EA030343F070636FF00F0404EA2D
:10036000504400290CFA04F518BF2B43002848BF5D
:1003700072461360B0BD0000416170470161704773
:100380001023002A08BF1423C1507047FEE7000065
:10039000FEE700007047000010B5C17800294EF25A
:1003A0000011CEF200011AD04EF60C52CEF200022D
:1003B0001268072323EA12220F23C2F1040C23FA46
:1003C00002F24378847890F800E003FA0CF32240BC
:1003D0001A43120101EB0E0383F8002300E0803181
:1003E0000078012300F01F0203FA02F2C0F342106A
:1003F00041F8202010BD000040F080604EF60C5106
:1004000040F0FD70CEF20001086070474EF62351B7
:100410000001CEF2000108707047000080B540F284
:1004200080010020C2F200014FF0000C6FF00703C2
:10043000CA180833B3F57E7F1072F9D10CF1010CA4
:10044000BCF1080F01F10101F0D100F0C1F880BD4D
:10045000B0B5CD0801F0070E40F28001C2F20001F4
:1004600001EBC0004FF0010C415D0CFA0EF341EAC4
:100470000304002A08BF21EA03044455B0BD00006C
:1004800070B582B00D20012100F0BEF94FF400409C
:10049000012100F0B9F9282040F60044C1F603001C
:1004A000C4F2010401AD019020462946FFF7CEFEBB
:1004B00040F20026C0F2300630460121FFF71EFF51
:1004C00001200121FFF71AFF40F60140C1F20300AD
:1004D000019020462946FFF7B9FE20460121FFF78B
:1004E0004DFF0220C1F203000190A4F5806029466F
:1004F000FFF7ACFE30460121FFF700FF00F002F9E4
:1005000020464FF48061FFF737FFC82000F06CFCF5
:1005100020464FF48061FFF731FFAE2000F014F960
:10052000002000F011F9102000F00EF9402000F03A
:100530000BF9812000F008F9CF2000F005F9A12087
:1005400000F002F9C82000F0FFF8A62000F0FCF847
:10055000A82000F0F9F83F2000F0F6F8D32000F0D2
:10056000F3F8002000F0F0F8D52000F0EDF880203E
:1005700000F0EAF8D92000F0E7F8F12000F0E4F804
:10058000DA2000F0E1F8122000F0DEF8DB2000F0C5
:10059000DBF8402000F0D8F8202000F0D5F8022049
:1005A00000F0D2F88D2000F0CFF8142000F0CCF845
:1005B000A42000F0C9F8A62000F0C6F8FFF72EFF2F
:1005C000AF2000F0C1F8FFF735FE02B070BD0000AB
:1005D00070B540F280050024C2F20005A4F150007D
:1005E000C0B200F0B1F8002000F0AEF8102000F02A
:1005F000ABF86FF0070600BFA819007A00F0CCF83E
:100600000836B6F57E7FF7D10134082C05F10105D7
:1006100008BF70BDE2E700002DE9F04F87B00490FD
:1006200040F6004005920D46C4F20100022100226E
:100630001C460026FFF7A4FEE01DB6EBD00F54D0F9
:10064000C00801900598119C0138C0B2DDF810B0C7
:10065000B4FA84F7013000224FF0000A2E460090D1
:1006600005E000BF01320199D0B281423DD9059821
:100670000028F7D04FF000090392CDF808A000BF82
:1006800010991FFA8AF006950D5C4FF0000800BF24
:10069000E80722465FFA8BF0F1B208BF7A09FFF74C
:1006A000D7FE6D080136B8F1070F08F10108EFD346
:1006B0000BF1010B049A5FFA8BF00599801A09F18E
:1006C0000109884208BF9346069D5FFA89F00AF146
:1006D000010A08BF083588422E46D1D30098DDF8BC
:1006E00008A0039A82442E46BCE7FFF771FF40F64C
:1006F0000040C4F2010002210122FFF741FE07B0D1
:10070000BDE8F08F10B586B04CF20000C0F20410C6
:1007100001904FF4003002900120C0F200200390BD
:10072000082043F6004404900720C4F20004ADF80A
:10073000140001A9204600F007F92046012100F02D
:10074000E7F806B010BD000070B543F60045C4F2EE
:10075000000505F55044064620464FF40061FFF7BA
:100760000BFE00BF2846022100F0E4F80028F9D073
:100770002846314600F0E6F82846802100F0DAF8F5
:100780000128F9D028898007FCD520464FF4006164
:10079000FFF7F4FD70BD000070B543F60045C4F2EC
:1007A000000505F55044064620464FF40061FFF76A
:1007B000E5FD00BF2846022100F0BCF80028F9D072
:1007C0002846022100F0B6F80028F9D02846314624
:1007D00000F0B8F828460221012200F0A3F800BF7B
:1007E0002846802100F0A6F80128F9D028460221E9
:1007F000002200F097F820464FF40061FFF7BCFD9F
:1008000070BD000070470000002941F21801C4F2D9
:1008100002010A680CBF22EA00001043086070471A
:1008200010B541F20404C4F20204226802F00C0282
:10083000082A41F20022C0F27A021CD12368D4F8BF
:1008400000C0C3F3834E5FEACC330EF1020C06D432
:1008500040F60012C0F23D020CFB02F20BE02368EE
:100860009B0302D40CFB02F205E040F60012C0F23A
:100870003D020CFB02F20260226841F28023C2F3C7
:100880000312C0F600039A5C0168D14041602268FF
:10089000C2F302229A5C21FA02F282602268C2F359
:1008A000C2229A5C41F27C23D140C1602268C0F62A
:1008B0000003C2F381329A5CB1FBF2F1016110BD19
:1008C00010B586B04FF480500121FFF79DFF4FF027
:1008D000827001904FF4003002900120C0F200209D
:1008E0000390382043F2000404900720C4F201046E
:1008F000ADF8140001A9204600F026F82046012199
:1009000000F006F8FF2000F045FA06B010BD000028
:100910000288002918BF012122F0400242EA811119
:1009200001807047002A82880CBF22EA010111432E
:10093000818070470089084018BF0120704700007F
:1009400080897047818170472DE9F04102880B88CA
:1009500002F4415C4A88B1F804E043EA0C03CC8815
:100960001A430D8942EA0E024E8922438F892A4397
:10097000B1F80E8032433A4342EA08020280828B89
:1009800022F400628283098A0182BDE8F0810000BE
:100990007047000080B500F001F880BD82B041F2E0
:1009A00004000021C4F202000191009150F8041CDF
:1009B00041F4803140F8041C50F8041C01F400316B
:1009C0000091019901310191009919B90199B1F58D
:1009D000A06FF1D150F8041C890354BF00210121FC
:1009E00000910099012936D142F20001C4F20201BE
:1009F0000A6842F010020A600A6822F003020A60E4
:100A00000A6842F002020A60016801600168016040
:100A1000016841F480610160016821F47C1101608A
:100A2000016841F4E811016050F8041C41F0807144
:100A300040F8041C50F8041C8901FBD5016821F022
:100A400003010160016841F002010160016801F0E9
:100A50000C010829FAD102B07047000010B520F04F
:100A60007F404EF210040138CEF2000460600F2087
:100A7000FFF7CCFC0020A0600720206010BD000024
:100A800080B500F0BDF980BD80B541F20000C4F230
:100A900002000168002241F0010101604168CFF6C7
:100AA000FF021140416001684FF6FF72CFF6F66217
:100AB00011400160016821F480210160416821F446
:100AC000FE0141604FF41F018160FFF763FF4EF6A6
:100AD0000850CEF200004FF00061016080BD0000C0
:100AE00010B543F60004C4F20104204640F225513B
:100AF00000F042F8012818BF10BD204600F0B6F8FB
:100B000040F20051C2F200010A78012A0CD0C0B2B2
:100B1000B2B9FF2818D10120087040F20150C2F28A
:100B20000000002101700FE040F20150C2F200000D
:100B300002780132D3B2042B027005D3022002E006
:100B4000FE2801D100200870204640F2255100F017
:100B500001F810BD090A012202FA01F1C94301801E
:100B6000704700008289002918BF012122F4005239
:100B700042EA4131818170470088084018BF012056
:100B800070470000C1F3421301F01F0C1421022B27
:100B900008BF1021012B4FF0010308BF0C21002AD0
:100BA00003FA0CF243580CBF23EA02021A434250E4
:100BB0007047000070B586B00446008A0D46C988AB
:100BC00020F4405008432082A0894EF6F3110840DB
:100BD000A9882A896B89084310431843A081A08AF9
:100BE000A98920F44070084301AEA0823046FFF787
:100BF00017FE43F6000106F10800C4F201018C4221
:100C000008BF06F10C0000681922B4F90C1050431B
:100C10002A680123B1F1FF3FC8BF022302FA03F1A2
:100C2000B0FBF1F048F21F51C5F2EB11A0FB01231C
:100C30005A096FF0630302FB0300B4F90C3003267A
:100C4000B3F1FF3FC8BF042600FA06F000F13200FE
:100C5000A0FB01014FF00700C8BF0F2000EA5110B0
:100C600040EA0210208106B070BD000080886FF35A
:100C70005F207047FEE70000B0B582B0042001217C
:100C8000FFF7C2FD01200121FFF7BEFDA02040F6C5
:100C90000004C1F60300C4F2010401AD0190204636
:100CA0002946FFF7D3FA2046A021FFF767FB402033
:100CB000C1F60300019020462946FFF7C7FA2046F7
:100CC0004021FFF75BFB1020C1F20300019020469A
:100CD0002946FFF7BBFA20461021FFF74FFBFFF72D
:100CE000EFFD00F033F840F27C01C2F20001088011
:100CF00002B0B0BDF0B581B040F60004C4F201040A
:100D00000F460646204610211546FFF735FB032007
:100D100000F040F8C7F3074000F03CF8C7F30720A5
:100D200000F038F8F8B200F035F845B1013E00BFE8
:100D3000FF2000F02FF8013D06F8010FF8D1204602
:100D40001021FFF71BFB01B0F0BD0000B0B540F66D
:100D50000004C4F2010420461021FFF70DFB90208F
:100D600000F018F8002000F015F8002000F012F84C
:100D7000002000F00FF8FF2000F00CF80546FF20DF
:100D800000F008F840EA052520461021FFF7F6FAA2
:100D90002846B0BD70B543F2000405460026C4F2F3
:100DA000010400BF20460221FFF7C4FD20B9C72E71
:100DB00006F10106F6D90EE020462946FFF7C2FDEE
:100DC000002500BF20460121FFF7B4FD30B9C72D33
:100DD00005F10105F6D90020C0B270BD2046FFF72D
:100DE000AFFDC0B270BD00004FF47A71414340F2D4
:100DF0000450C2F20000016001680029FCD1704774
:100E000040F20450C2F200000168002908BF704798
:100E1000016801390160704743F60001C4F2010125
:100E20000A885206FCD5C2B28A80704784B000F0AE
:100E300049F84FF4E13000F059F8FFF71DFFFFF7D4
:100E40001FFB40F20854C2F2000420460021032296
:100E50000025FFF74FFFFFF7E1FAFFF777FF0146A5
:100E60000FA000F08BF813A0214600F087F840F2A5
:100E700004060124C2F200066FF009070A37FFF7E3
:100E8000CDFAF8B201211D222023CDE9006402959C
:100E9000FFF7C2FBC820FFF7A7FF6E2FEED3EBE7EB
:100EA0005732355158585F5265616449443D202599
:100EB000640D0A00726561645F646174613D2025A0
:100EC000730D0A0080B540F27800C2F2000000689D
:100ED0004DF68361C4F21B31A0FB0101880CFFF7C2
:100EE000BDFD0020FFF792FA80BD0000F0B587B08D
:100EF000054644F204000121FFF786FC43F6000496
:100F000040F20020C4F20104C1F60300A4F54056EB
:100F100006AF069030463946FFF798F94FF48060E7
:100F2000ADF8180004208DF81B0030463946FFF755
:100F30008DF900204FF4402103900491ADF8140086
:100F400002A920460295FFF735FE204640F22551C2
:100F50000122FFF717FE4FF4A060FFF74DFA40F2B1
:100F60002510C0F20110019001A8FFF715FA2046E4
:100F70000121FFF7F7FD07B0F0BD00000FB4054BEE
:100F800010B503A9044A029800F018F810BC5DF8E7
:100F900014FB0000190E00080000002002E008C841
:100FA000121F08C1002AFAD170477047002001E0E3
:100FB00001C1121F002AFBD1704700002DE9FF4F2D
:100FC0008DB09B460F460446002606E025280BD030
:100FD0005A460F999047641C761C20780028F5D15A
:100FE00011B03046BDE8F08F0025A846012298498F
:100FF00000E0054314F8013F203B02FA03F00842E9
:10100000F7D120782E2817D114F8010F45F00405E8
:101010002A280ED06FF02F022078A0F13001092984
:101020000AD808EB880102EB410100EB0108641CBF
:10103000F2E757F8048B641C20786C280DD004DC90
:101040004C2812D06A2811D104E074280DD07A28D7
:101050000CD10AE045F4001507E0617845F48015ED
:10106000814202D1641C05F58015641C2278692A2E
:1010700045D008DC002AB3D0582A69D0632A10D0A2
:10108000642A08D13BE0702A67D0732A13D0752AEE
:101090005CD0782A5CD010465A460F999047761C4F
:1010A000D3E017F8040B8DF8000000208DF8010044
:1010B000E946012003E057F8049B4FF0FF30690731
:1010C0004FF0000501D40AE06D1C45450DDA85425C
:1010D000FADB19F805100029F6D106E06D1C8542EF
:1010E000FCDB19F805100029F8D12E4404E019F8AA
:1010F000010B5A460F9990476D1EF8D2A5E00A20C1
:101100000021CDE90801C5F3025002280DD001CF1E
:10111000C117031E71F100030DDA4FF0000CD0EB84
:101120000C006CEB01012D2308E0FF1D27F00707E1
:10113000F7E80201EDE72B0504D52B238DF82830C5
:1011400001233BE0EB0739D02023F7E70A2000E03A
:1011500010200021CDE9080107E01020002145F012
:101160000405CDE908014FF00808C5F30250022834
:101170000FD001CF00214FF0000A2B071FD5702A96
:101180000DD0DDE908C38CF0100C5CEA030C0CD028
:1011900015E0FF1D27F00707F7E80201EBE7402203
:1011A0008DF828204FF0010A0BE050EA010306D029
:1011B00030238DF828308DF8292002239A46582AAA
:1011C00004D024A20DF120090B9209E026A2F9E730
:1011D000DDE90823FEF7C8FF0B9B9B5C09F8013D86
:1011E00050EA0102F4D1ADEB090020300890680705
:1011F00001D44FF001080899884502DDA8EB0100F1
:1012000000E000208046002506E00AA85A46405D1E
:101210000F9990476D1C761C5545F6DB04E0302095
:101220005A460F999047761CB8F10001A8F10108C1
:10123000F5DC05E019F8010B5A460F999047761C2A
:101240000899481E08900029F4DC641CC5E60000DB
:10125000092801003031323334353637383961628C
:101260006364656600000000303132333435363750
:101270003839414243444546000000000204060854
:10128000000000000102030401020304060708092C
:10129000B012000800000020800000009C0F000831
:1012A000301300088000002008090000AC0F00087F
:1012B00000000000000000000000000000E0FEFE52
:1012C000FCF0E0E0E0E0E0F8FCFFF80000000000E7
:1012D00000000000000000000000073F7F7FFFFFCC
:1012E000FFFFFF7F7F7F3F0F000000000000000036
:1012F000000C040418E000000080E0FCFFFFFFFF8A
:10130000FCE0800000000000000000000000000081
:1013100000000006081F3F3F3F3F7F3F3F3F1F0F3A
:10132000020000000000000000A24A0416EF0000C6
:0400000508000131BD
:00000001FF
