:020000040800F2
:100000000807002045010008550400084D040008B9
:10001000510400088D010008A10D00080000000037
:10002000000000000000000000000000B50A000809
:1000300085030008000000004D090008A50B00081A
:100040005F0100085F0100085F0100085F01000810
:100050005F0100085F0100085F0100085F01000800
:100060005F0100085F0100085F0100085F010008F0
:100070005F0100085F0100085F0100085F010008E0
:100080005F0100085F0100085F0100085F010008D0
:100090005F0100085F0100085F0100085F010008C0
:1000A0005F0100085F0100085F0100085F010008B0
:1000B0005F0100085F0100085F0100085F010008A0
:1000C0005F0100085F0100085F0100085F01000890
:1000D0005F010008050C00085F0100085F010008CF
:1000E0005F0100085F0100085F0100085F01000870
:1000F0005F0100085F0100085F0100085F01000860
:100100005F0100085F0100085F0100085F0100084F
:100110005F0100085F0100085F0100085F0100083F
:100120005F0100085F0100085F0100085F0100082F
:10013000DFF80CD000F018F800480047E90D00087F
:10014000080700200648804706480047FEE7FEE70C
:10015000FEE7FEE7FEE7FEE7FEE7FEE7FEE7FEE777
:10016000AD0B000831010008064C074D06E0E068C1
:1001700040F0010394E8070098471034AC42F6D3EE
:10018000FFF7DAFF6C0F00088C0F0008FEE7000095
:100190000422010FC4F2020261F38A221060704748
:1001A00002684FF6FE7C42F00103002908BF02EA14
:1001B0000C0303607047000002684FF6FE731A409C
:1001C0007F230421C4F20203C4F202010260002270
:1001D0009842026042608260C26016DC4322C4F230
:1001E000020290422CDC0822C4F20202904251D05A
:1001F0001C22C4F2020290424ED03022C4F202020B
:1002000090425ED14FF4706058E040F22F42C4F249
:100210000202904226DC8022C4F2020290423DD0CB
:1002200040F20842C4F2020290423AD040F21C422C
:10023000C4F20202904244D101F58061F0203DE019
:100240004422C4F20202904236D05822C4F2020282
:1002500090421CD06C22C4F20202904231D14FF481
:1002600070002BE040F23042C4F2020290421CD0F7
:1002700040F24442C4F2020290421BD040F2584283
:10028000C4F20202904218BF704701F580614FF43A
:10029000702013E00F2011E0F0200FE04FF07060AD
:1002A0000CE001F580610F2008E001F580614FF45A
:1002B000706003E001F580614FF470400A681043FC
:1002C000086070470022010FC4F2020261F38A2223
:1002D0001168084018BF0120704700002DE9F04761
:1002E000026847F6F073D1E9026A9A4301F11007F8
:1002F000B0CF01F11C0E3243D1E900899EE80A50CB
:100300001A4322432A433A43114341EA0C0141EA8A
:100310000E010160C0F804A0C0F80880C0F80C907D
:10032000BDE8F08710B58CB00120012100F010FB72
:100330005824C4F202042046FFF73EFF43F60C00A7
:10034000C4F20000019040F28000C2F2000002906E
:10035000102003905820049000208021CDE9061041
:100360004FF480510590CDE90800CDE90A1001A9AC
:100370002046FFF7B3FF20460121FFF711FF0CB025
:1003800010BD0000704700002DE9F041CA7802F06E
:100390000F0CD30644BF8B784CEA030C09880B067C
:1003A00021D0056800234FF001084FF00F0E002602
:1003B00008E000BF282A08BF47610136082E03F174
:1003C00004030FD008FA06F70F42F6D00EFA03F432
:1003D00025EA04040CFA03F5482A45EA0405E9D1A4
:1003E0000761EAE70560B1F5807F38BFBDE8F081BD
:1003F000446800234FF4807E4FF00F08002607E08A
:10040000282A08BF47610136082E03F1040310D0E3
:100410000EFA06F707EA0105BD42F4D108FA03F522
:10042000AC430CFA03F5482A44EA0504E8D1076115
:10043000E9E74460BDE8F0814161704701617047C0
:100440001023002A08BF1423C1507047FEE70000A4
:10045000FEE700007047000010B5C17800294EF299
:100460000011CEF200011AD04EF60C52CEF200026C
:100470001268072323EA12220F23C2F1040C23FA85
:1004800002F24378847890F800E003FA0CF32240FB
:100490001A43120101EB0E0383F8002300E08031C0
:1004A0000078012300F01F0203FA02F2C0F34210A9
:1004B00041F8202010BD000040F080604EF60C5145
:1004C00040F0FD70CEF20001086070474EF62351F7
:1004D0000001CEF2000108707047000080B540F2C4
:1004E00080014FF0000EC2F2000140F2B3124FF053
:1004F000000C00BF6FF00403C8180533934280F866
:1005000005E0F9D10CF1010CBCF1050F01F101017D
:10051000F0D100F0C5F880BDB0B5CD0801F0070EF0
:1005200040F2800100EB8000C2F2000108444FF06D
:10053000010C415D0CFA0EF341EA0304002A08BFE6
:1005400021EA03044455B0BD70B582B009200121F1
:1005500000F016FA4FF48040012100F005FA4AF24B
:10056000000041F20044C1F60300C4F2010401ADF1
:100570000190A4F500602946FFF706FF4020012105
:1005800000F0FEF90220C1F2030004F5806601903C
:1005900030462946FFF7F8FE30460221FFF74CFFB0
:1005A0002020012100F0ECF94FF44060ADF8040088
:1005B00010208DF8070020462946FFF7E5FE20466B
:1005C0004FF44061FFF73AFF00F010F9FFF7AAFE81
:1005D00020464FF40061FFF72FFFC82000F0E2FB38
:1005E00020464FF40061FFF729FFAE2000F024F908
:1005F000D52000F021F9F02000F01EF9A82000F02D
:100600001BF9272000F018F9D32000F015F900207D
:1006100000F012F9402000F00FF98D2000F00CF9E5
:10062000142000F009F9202000F006F9022000F063
:1006300003F9A12000F000F9C82000F0FDF8DA204D
:1006400000F0FAF8122000F0F7F8AD2000F0F4F80E
:10065000302000F0F1F8812000F0EEF8FF2000F0EB
:10066000EBF8D92000F0E8F8222000F0E5F8DB20D4
:1006700000F0E2F8202000F0DFF8A42000F0DCF821
:10068000A62000F0D9F80C2000F0D6F8112000F0D8
:10069000D3F8FFF723FFAF2000F0CEF802B070BD13
:1006A000F0B5EFB040F28005C2F200056E1F0027E2
:1006B00001AC00BFA7F15000C0B200F0BDF80B20A4
:1006C00000F0BAF8112000F0B7F84FF0FF303146D3
:1006D00011F8052F2318013057285A70F8D12046F9
:1006E000582100F009F9E81990F8B80100F0D4F8A1
:1006F0000137052F06F10106DCD16FB0F0BD000017
:100700002DE9F04F87B0049040F6004005920D4669
:10071000C4F20100022100221C460026FFF790FED1
:10072000E01DB6EBD00F54D0C00801900598119C85
:100730000138C0B2DDF810B0B4FA84F701300022FD
:100740004FF0000A2E46009005E000BF01320199EB
:10075000D0B281423DD905980028F7D04FF000096A
:100760000392CDF808A000BF10991FFA8AF00695F1
:100770000D5C4FF0000800BFE80722465FFA8BF0DF
:10078000F1B208BF7A09FFF7C7FE6D080136B8F16C
:10079000070F08F10108EFD30BF1010B049A5FFA80
:1007A0008BF00599801A09F10109884208BF934628
:1007B000069D5FFA89F00AF1010A08BF08358842F0
:1007C0002E46D1D30098DDF808A0039A82442E4625
:1007D000BCE7FFF765FF40F60040C4F201000221CC
:1007E0000122FFF72DFE07B0BDE8F08F10B586B0EF
:1007F0004CF20000C0F2041001904FF4003002905F
:100800000120C0F200200390002043F60004049071
:100810000720C4F20004ADF8140001A9204600F03E
:1008200025F920460221012200F010F9204601217D
:1008300000F002F906B010BD70B543F60005C4F231
:10084000000505F55C44064620464FF48061FFF73D
:10085000F3FD00BF2846022100F000F90028F9D07E
:100860002846314600F000F928460221012200F016
:10087000EDF800BF2846802100F0F0F80128F9D0FB
:1008800028460221002200F0E1F820464FF4806162
:10089000FFF7D2FD70BD000070B543F60005C4F24D
:1008A000000505F55C44064620464FF48061FFF7DD
:1008B000C5FD00BF2846022100F0D0F80028F9D07D
:1008C0002846314600F0D0F828460221012200F0E7
:1008D000BDF800BF2846802100F0C0F80128F9D0FB
:1008E00028460221002200F0B1F820464FF4806132
:1008F000FFF7A2FD70BD0000F0B581B05827C4F22B
:1009000002070D46064643F6000438460021C4F2AD
:100910000004FFF745FC04F10C007D60FE60B86048
:1009200038460121FFF73CFC4FF40030FFF7CAFCCA
:100930000028F9D04FF40030FFF72AFC2046802130
:1009400000F08CF80128F9D001B0F0BD704700002C
:10095000002941F21401C4F202010A680CBF22EA24
:100960000000104308607047002941F21C01C4F2E6
:1009700002010A680CBF22EA0000104308607047B9
:10098000002941F21801C4F202010A680CBF22EAF0
:10099000000010430860704710B541F20404C4F22F
:1009A0000204226802F00C02082A41F20022C0F27E
:1009B0007A021CD12368D4F800C0C3F3834E5FEAE7
:1009C000CC330EF1020C06D440F60012C0F23D0208
:1009D0000CFB02F20BE023689B0302D40CFB02F237
:1009E00005E040F60012C0F23D020CFB02F202608C
:1009F000226840F65C73C2F30312C0F600039A5CEF
:100A00000168D14041602268C2F302229A5C21FA57
:100A100002F282602268C2F3C2229A5C40F65873E6
:100A2000D140C1602268C0F60003C2F381329A5CF3
:100A3000B1FBF2F1016110BD0288002918BF01214C
:100A400022F0400242EA811101807047002A828828
:100A50000CBF22EA010111438180704700890840E0
:100A600018BF012070470000818170472DE9F041D7
:100A700002880B8802F4415C4A88B1F804E043EA3A
:100A80000C03CC881A430D8942EA0E024E89224398
:100A90008F892A43B1F80E8032433A4342EA080272
:100AA0000280828B22F400628283098A0182BDE87F
:100AB000F08100007047000080B500F001F880BDB3
:100AC00082B041F204000021C4F2020001910091C1
:100AD00050F8041C41F4803140F8041C50F8041C08
:100AE00001F400310091019901310191009919B986
:100AF0000199B1F5A06FF1D150F8041C890354BFDE
:100B00000021012100910099012936D142F2000112
:100B1000C4F202010A6842F010020A600A6822F078
:100B200003020A600A6842F002020A60016801607A
:100B300001680160016841F480610160016821F48D
:100B40007C110160016841F4E811016050F8041C57
:100B500041F0807140F8041C50F8041C8901FBD559
:100B6000016821F003010160016841F002010160A8
:100B7000016801F00C010829FAD102B070470000A9
:100B800010B520F07F404EF210040138CEF2000480
:100B900060600F20FFF79AFC0020A0600720206013
:100BA00010BD000080B500F009F980BD80B541F2AC
:100BB0000000C4F202000168002241F0010101605E
:100BC0004168CFF6FF021140416001684FF6FF72A5
:100BD000CFF6F66211400160016821F480210160C6
:100BE000416821F4FE0141604FF41F018160FFF76D
:100BF00063FF4EF60850CEF200004FF00061016036
:100C000080BD000010B543F60004C4F20104204684
:100C100040F2255100F034F838B3204600F0BCF81B
:100C200040F20031C2F200010A88130448BF10BD2F
:100C30005304C0B205D40D280AD142F48040088084
:100C400010BD0A2814BF002042F40040088010BDE7
:100C500040F23824531C6FF39F32C2F20004A054B8
:100C600098B2C72888BF00230B8010BD8289002955
:100C700018BF012122F4005242EA413181817047BC
:100C8000C1F34212022A06D0012A14BF00F1140255
:100C900000F10C0201E000F110021288008801F05E
:100CA0001F03090ADA40C840104000F001007047F5
:100CB000C1F3421301F01F0C1421022B08BF1021B5
:100CC000012B4FF0010308BF0C21002A03FA0CF29C
:100CD00043580CBF23EA02021A43425070470000F7
:100CE00070B586B00446008A0D46C98820F440508D
:100CF00008432082A0894EF6F3110840A9882A896A
:100D00006B89084310431843A081A08AA98920F465
:100D10004070084301AEA0823046FFF73DFE43F627
:100D2000000106F10800C4F201018C4208BF06F17F
:100D30000C0000681922B4F90C1050432A680123F2
:100D4000B1F1FF3FC8BF022302FA03F1B0FBF1F09B
:100D500048F21F51C5F2EB11A0FB01235A096FF0B5
:100D6000630302FB0300B4F90C300326B3F1FF3F29
:100D7000C8BF042600FA06F000F13200A0FB010112
:100D80004FF00700C8BF0F2000EA511040EA0210E0
:100D9000208106B070BD000080886FF35F2070472F
:100DA000FEE700004FF47A71414340F20430C2F292
:100DB0000000016001680029FCD1704740F2043056
:100DC000C2F200000168002908BF704701680139BC
:100DD0000160704743F60001C4F201010A8852061F
:100DE000FCD5C2B28A80704784B000F035F84FF469
:100DF000E13000F045F84FF4A060FFF75DFB15A06F
:100E000000F082F8FFF7A0FBFFF768FB002040F23C
:100E100004050124C2F200050290002001214822AD
:100E2000282300950194FFF76BFC04266FF0090757
:100E30000A37FFF753FBF8B201211D222023CDE929
:100E400000540296FFF75CFCC820FFF7ABFF462F6B
:100E5000EED3EBE77364610080B540F27800C2F234
:100E6000000000684DF68361C4F21B31A0FB010154
:100E7000880CFFF785FE0020FFF728FB80BD0000EF
:100E8000F0B587B0054644F204000121FFF778FD74
:100E900043F6000440F20020C4F20104C1F603004E
:100EA000A4F5405606AF069030463946FFF76CFA77
:100EB0004FF48060ADF8180004208DF81B00304618
:100EC0003946FFF761FA40F22530C0F20310019075
:100ED00001A8FFF7C1FA00204FF4402103900491CC
:100EE000ADF8140002A920460295FFF7F9FE20464E
:100EF00040F225510122FFF7DBFE20460121FFF7DA
:100F0000B5FE07B0F0BD0000014A024900F013B879
:100F1000D50D00080000002002E008C8121F08C11B
:100F2000002AFAD170477047002001E001C1121F6A
:100F3000002AFBD170472DE9F04116460F460446C2
:100F4000002503E03946B047641C6D1C207800285A
:100F5000F8D12846BDE8F081020406080000000030
:100F6000010203040102030406070809900F0008A8
:100F70000000002080000000180F0008101000087A
:100F80008000002088060000280F000800000000F4
:100F900000000000000000000000000000E0FEFE75
:100FA000FCF0E0E0E0E0E0F8FCFFF800000000000A
:100FB00000000000000000000000073F7F7FFFFFEF
:100FC000FFFFFF7F7F7F3F0F000000000000000059
:100FD000000C040418E000000080E0FCFFFFFFFFAD
:100FE000FCE08000000000000000000000000000A5
:100FF00000000006081F3F3F3F3F7F3F3F3F1F0F5E
:10100000020000000000000000A24A0400000000EE
:0400000508000131BD
:00000001FF
