:020000040800F2
:10000000480C002045010008ED080008E50800083C
:10001000E908000801070008A51B0008000000000F
:10002000000000000000000000000000E9140008CB
:100030000507000800000000E10F00086D16000829
:100040005F0100085F0100085F0100085F01000810
:100050005F0100085F0100085F0100085F01000800
:100060005F0100085F0100085F0100085F010008F0
:100070005F0100085F0100085F0100085F010008E0
:100080005F0100085F0100085F0100085F010008D0
:100090005F0100085F0100085F0100085F010008C0
:1000A0005F0100085F0100085F0100085F010008B0
:1000B0005F0100085F0100085F0100085F010008A0
:1000C0005F0100085F0100085F0100085F01000890
:1000D0005F010008DD1600085F0100085F010008ED
:1000E0005F0100085F0100085F0100085F01000870
:1000F0005F0100085F0100085F0100085F01000860
:100100005F0100085F0100085F0100085F0100084F
:100110005F0100085F0100085F0100085F0100083F
:100120005F0100085F0100085F0100085F0100082F
:10013000DFF80CD000F018FA00480047411D000815
:10014000480C00200648804706480047FEE7FEE7C7
:10015000FEE7FEE7FEE7FEE7FEE7FEE7FEE7FEE777
:10016000751600083101000830B50B460146002025
:100170002022012409E021FA02F59D4205D303FA69
:1001800002F5491B04FA02F52844151EA2F10102EA
:10019000F1DC30BD2DE9F05F0546002092469B461C
:1001A00088460646814640241BE02846414647468D
:1001B000224600F0FAF953465A46C01A914110D32C
:1001C00011461846224600F0E1F92D1A67EB0108A6
:1001D0004F4622460120002100F0D8F917EB000914
:1001E0004E41201EA4F10104DFDC484631462A4678
:1001F0004346BDE8F09F2DE9FE4F804681EA0300AB
:10020000C00F0C46009021F0004123F00045B8EBF0
:100210000200A94105D24046214690461C460B46A5
:10022000024623F00040104347D0270DC7F30A00D1
:10023000C3F30A510290401A019040286BDAC3F3CD
:10024000130040F4801B0098924620B10023D2EBAB
:10025000030A63EB0B0B01985946C0F1400250466C
:1002600000F094F906460D4650465946019A00F0B2
:10027000ACF910EB08006141002487EA115284EACE
:10028000E7731A4340D0009A62B3019A012A4FEAF9
:10029000075215DC001B61EB02014FF0004202EA3D
:1002A0000752CDE90042001C41F5801132462B4631
:1002B00000F0ACF903B0BDE8F08F40462146F9E705
:1002C000001B61EB0201001C41F5801300185B412B
:1002D0002018A2F5001747EB030140EAD570B619C4
:1002E0006D4111E06D084FEA360645EAC0754FEAE8
:1002F0000752001B61EB0201001C41F58011490807
:100300004FEA30000019514132462B4603B0BDE898
:10031000F04F00F06CB90098012240000023D0EBB0
:10032000020263EBE073009821464FEAE074B8EBF9
:10033000000061EB0401E9E783F000435BE781F033
:10034000004158E72DE9FE4F81EA030404F0004420
:1003500021F0004100944FF0000B23F0004350EADD
:1003600001045ED052EA03045BD0C3F30A54C1F324
:100370000A552C44A4F2F3340194A0FB0254C1F3B7
:10038000130141F48011C3F3130343F4801301FB01
:10039000024400FB034E840A970A44EA815447EA68
:1003A0008357A4FB076802958D0A05FB07854FEA72
:1003B000932C04FB0C542705029D4FEA065847EA8C
:1003C0001637B5EB08056EEB070C870E920E47EA61
:1003D000811742EA8312A7FB0201B6EB0B0164EB23
:1003E00000042B0D43EA0C335E1844EB1C50DA4634
:1003F0005146E7FB0201C5F313044FEA0B3343EA0E
:1004000014534FEA0432019C43EA0603A4F10C049E
:100410000294009CCDE900B400F0F8F803B0BDE808
:10042000F08F00200146F9E72DE9F04D81EA030441
:1004300004F0004B21F0004514464FF0000A23F071
:10044000004150EA050220D054EA01021DD0C5F354
:100450000A570246C5F31303C1F31300C1F30A564A
:1004600040F4801543F48013A7EB0608101BD64612
:1004700008F2FD3873EB050002D308F1010801E032
:1004800092185B41B8F1000F03DA00200146BDE885
:10049000F08D00204FF48011064684460EE0171BB5
:1004A00073EB050705D3121B63EB050306434CEA08
:1004B000010C49084FEA300092185B4150EA0107ED
:1004C000EDD152EA030012D082EA040083EA05016A
:1004D000084305D0101BAB4106D20122002306E0E1
:1004E00000224FF0004302E06FF0010253101AEBBC
:1004F00006004CEB085110EB0A0041EB0B01BDE884
:10050000F04D00F074B8C1F30A52C1F3130140F288
:10051000FF3341F480119A4202DA0020014670470D
:1005200040F233439A42A2F2334202DC524200F0DC
:100530003CB800F02BB8000030B5041E71F1000487
:1005400004DB4FF00044404264EB0101141E73F1E0
:10055000000405DB1C464FF00043524263EB0403EA
:10056000994208BF904230BD064C074D06E0E06856
:1005700040F0010394E8070098471034AC42F6D3EA
:10058000FFF7DAFDD0270008F0270008202A04DB57
:10059000203A00FA02F1002070479140C2F1200396
:1005A00020FA03F3194390407047202A04DB203AD5
:1005B00021FA02F00021704721FA02F3D040C2F183
:1005C00020029140084319467047202A06DBCB17CA
:1005D000203A41FA02F043EAE07306E041FA02F3FE
:1005E000D040C2F12002914008431946704710B52F
:1005F000141E73F1000408DA401C41F10001921846
:100600005B411A4301D120F0010010BD2DE9F04DEE
:1006100092469B4611B1B1FA81F202E0B0FA80F243
:1006200020329046FFF7B2FF04460F4640EA0A0028
:1006300041EA0B0153465A46084313D0114653EA88
:10064000010019D0C8F140025046FFF7AEFF054641
:100650000E46504659464246FFF798FF084305D0DC
:10066000012004E020463946BDE8F08D0020054316
:1006700046EAE0762C4337430A986305E40AA0EB88
:1006800008000022FD0A44EA47540A3002D500203F
:100690000146E9E7010510196941DDE9084500193E
:1006A0006941BDE8F04DA2E770B58C1810F8015B08
:1006B00015F0070301D110F8013B2A1106D110F8FB
:1006C000012B03E010F8016B01F8016B5B1EF9D1FF
:1006D0002B0705D40023521E0DD401F8013BFAE785
:1006E00010F8013BCB1A921C03E013F8015B01F8F0
:1006F000015B521EF9D5A142D8D3002070BD000085
:10070000FFE7FEE77047000088B0079006910020E1
:100710000590049003900290019000900698C07894
:1007200000F00F0005900698C078C006002806D596
:10073000FFE706988178059808430590FFE706983B
:10074000007800284BD0FFE7079800680190002050
:100750000390FFE7039807283DD8FFE7039901209E
:1007600088400290069800880299084004900498F6
:10077000029988422AD1FFE70398800002900299EB
:100780000F208840009000990198884301900598B7
:10079000029900FA01F10198084301900698C07887
:1007A000282806D1FFE7039901208840079948616E
:1007B0000BE00698C078482806D1FFE7039901208E
:1007C000884007990861FFE7FFE7FFE7FFE7039825
:1007D00001300390BEE7019807990860FFE706988B
:1007E0000088B0F5807F50DBFFE7079840680190F4
:1007F00000200390FFE70398072842D8FFE70398FB
:1008000000F10801012088400290069800880299B2
:10081000084004900498029988422DD1FFE703987C
:100820008000029002990F20884000900099019862
:10083000884301900598029900FA01F10198084354
:1008400001900698C078282808D1FFE7039800F1A6
:1008500008010120884007994861FFE70698C078A1
:10086000482808D1FFE7039800F1080101208840DB
:1008700007990861FFE7FFE7FFE70398013003905E
:10088000B9E7019807994860FFE708B07047000092
:1008900082B00190ADF80210BDF8020001994861E4
:1008A00002B0704782B00190ADF80210BDF80200AE
:1008B0000199086102B0704782B00190ADF8021052
:1008C0008DF801209DF8010028B1FFE7BDF8020076
:1008D0000199086104E0BDF8020001994861FFE751
:1008E00002B07047FFE7FEE7FFE7FEE77047000052
:1008F00084B003900020029001900F200090039894
:10090000C078C0B3FFE74EF60C50CEF2000000688E
:10091000C043C0F3022002900298C0F1040001908D
:1009200000980299C8400090039840780199884047
:100930000290039880780099014002980843029041
:100940000298000102900298039909784EF2004241
:10095000CEF2000288540398027802F01F010120B1
:1009600088404EF20011CEF2000141EAD20121F09E
:10097000030108600FE00398027802F01F010120D4
:1009800088404EF28011CEF2000141EAD20121F0FE
:1009900003010860FFE704B07047000081B00090D9
:1009A00000980021C0F2FA5108434EF60C51CEF2E5
:1009B0000001086001B0704782B08DF80700009117
:1009C0009DF90700B0F1FF3F0CDCFFE70098000144
:1009D0009DF8071001F00F014EF61452CEF20002FE
:1009E000885409E0009800019DF907104EF200427A
:1009F000CEF200028854FFE702B0704780B584B0A1
:100A00008DF80F008DF80E109DF80F1040F2E410D5
:100A1000C2F2000050F8311002919DF80F1000EB67
:100A2000C1008088ADF806009DF80E0038B9FFE7D8
:100A30000298BDF806100022FFF73EFFFFE79DF881
:100A40000E00012807D1FFE70298BDF80610012229
:100A5000FFF732FFFFE704B080BD000081B0002047
:100A60008DF80300FFE79DF80300042824DCFFE76E
:100A700000208DF80200FFE79DF80200572814DCE3
:100A8000FFE79DF8020000EB800140F28820C2F2EF
:100A9000000001449DF8032000208854FFE79DF8E2
:100AA000020001308DF80200E6E7FFE79DF8030041
:100AB00001308DF80300D6E701B0704782B08DF8A1
:100AC00007008DF806108DF805209DF80600C00877
:100AD0008DF804009DF8060000F007008DF8030073
:100AE0009DF80310012088408DF802009DF8050054
:100AF00088B1FFE79DF802309DF8070000EB800108
:100B000040F28820C2F2000001449DF80420885C75
:100B10001843885425E09DF8070000EB800140F25F
:100B20008820C2F2000042189DF80430D15CC9430D
:100B3000D1549DF802C09DF8071001EB81014218C5
:100B40009DF80430D15C41EA0C01D1549DF80710A6
:100B500001EB810101449DF80420885CC043885466
:100B6000FFE702B07047000080B58EB020200B90E8
:100B70000121049100F06EFA4FF48060ADF834006A
:100B8000032001908DF83600102002908DF8370078
:100B900041F20040C4F2010007900DA90691FFF751
:100BA000B3FD04990B9800F055FA019B029A06993F
:100BB00007984FF4006CCDF820C0ADF834C08DF824
:100BC00036308DF83720FFF79FFD049940200990BB
:100BD00000F040FA06993F20ADF8340041F60000DD
:100BE000C4F201000390FFF78FFD0499099800F00B
:100BF00031FA039806994FF47C62ADF83420FFF780
:100C000083FD0499099800F025FA039806994FF49A
:100C100070420592ADF83420FFF776FD04990B98E9
:100C200000F018FA059A06990798ADF83420FFF7F6
:100C30006BFD07980899FFF72BFEC8200A9001F07A
:100C40004DF807980899FFF72DFEAE2000210C9172
:100C500000F074F90C99D52000F070F90C99F0208F
:100C600000F06CF90C99A82000F068F90C99272085
:100C700000F064F90C99D32000F060F90C99084653
:100C800000F05CF909980C9900F058F90C998D2046
:100C900000F054F90C99142000F050F90B980C99BD
:100CA00000F04CF90C99022000F048F90C99A120B1
:100CB00000F044F90A980C9900F040F90C99DA20F8
:100CC00000F03CF90C99122000F038F90C99AD2095
:100CD00000F034F90C99302000F030F90C998120A3
:100CE00000F02CF90C99FF2000F028F90C99D9207C
:100CF00000F024F90C99222000F020F90C99DB2057
:100D000000F01CF90B980C9900F018F90C99A4202C
:100D100000F014F90C99A62000F010F90C990C20A1
:100D200000F00CF90C99112000F008F9FFF796FE7D
:100D30000C99AF2000F002F90EB080BD80B582B0F2
:100D40008DF8070000208DF80600FFE79DF80600EB
:100D500004283EDCFFE79DF80600B0309DF8072030
:100D6000C0B20021009100F005F900999DF807201C
:100D70000C2000F0FFF800999DF80720112000F0EA
:100D8000F9F800988DF80500FFE79DF80500572851
:100D900018DCFFE79DF8050000EB800140F2882099
:100DA000C2F2000008449DF80610405C9DF8072040
:100DB000012100F0DFF8FFE79DF8050001308DF814
:100DC0000500E2E7FFE79DF8060001308DF8060018
:100DD000BCE702B080BD000010B584B08C468646EA
:100DE00008980799069C8DF80FE08DF80EC08DF8D5
:100DF0000D208DF80C308DF80B108DF80A000020B6
:100E0000ADF808009DF80F108DF803109DF80E1036
:100E10008DF802109DF80C30D908012202EBD302A4
:100E20005B07002B18BF11468DF80C108DF80600DB
:100E3000FFE79DF806009DF80C10884275DAFFE781
:100E400000208DF80700FFE79DF807009DF80D10C2
:100E5000884263DAFFE70698BDF80810405C8DF819
:100E60000500BDF808000130ADF8080000208DF83D
:100E70000400FFE79DF8040007282BDCFFE79DF83E
:100E80000500C00748B1FFE79DF80F009DF80E1060
:100E90009DF80B20FFF712FE0BE09DF80F009DF868
:100EA0000E109DF80B20B2FA82F25209FFF706FEEF
:100EB000FFE79DF8050040088DF805009DF80E003D
:100EC00001308DF80E00FFE79DF8040001308DF829
:100ED0000400CFE79DF80F0001308DF80F009DF85A
:100EE0000F009DF80310401A9DF80D1088420AD19A
:100EF000FFE79DF803008DF80F009DF80200083011
:100F00008DF80200FFE79DF802008DF80E00FFE764
:100F10009DF8070001308DF8070095E7FFE79DF881
:100F2000060001308DF8060083E79DF80A00FFF700
:100F300005FFFFF793FD04B010BD000080B582B03F
:100F40008DF807008DF8061000200090FFE700984C
:100F500013280DDCFFE79DF807009DF806109DF8AB
:100F6000002000F007F8FFE7009801300090EEE75E
:100F700002B080BD80B582B08DF807008DF80610F4
:100F80008DF805209DF8060048B1FFE741F20040CA
:100F9000C4F201004FF48061FFF784FC08E041F2E5
:100FA0000040C4F201004FF48061FFF771FCFFE7DD
:100FB0009DF805000021FFF721FD9DF8070000F0D6
:100FC0009BF99DF805000121FFF718FD41F2004053
:100FD000C4F201004FF48061FFF764FC02B080BDF1
:100FE0007047000082B001908DF803109DF8030057
:100FF00048B1FFE7019A41F21C01C4F202010868FE
:101000001043086008E0019A41F21C01C4F2020199
:10101000086890430860FFE702B0704782B0019013
:101020008DF803109DF8030048B1FFE7019A41F2E3
:101030001001C4F2020108681043086008E0019A38
:1010400041F21001C4F20201086890430860FFE712
:1010500002B0704782B001908DF803109DF8030034
:1010600048B1FFE7019A41F21801C4F20201086891
:101070001043086008E0019A41F21801C4F202012D
:10108000086890430860FFE702B0704782B00190A3
:101090008DF803109DF8030048B1FFE7019A41F273
:1010A0000C01C4F2020108681043086008E0019ACC
:1010B00041F20C01C4F20201086890430860FFE7A6
:1010C00002B0704786B00590002004900390029013
:1010D000019041F20400C4F20200006800F00C002C
:1010E00004900498009040B1FFE7009804280BD0CA
:1010F000FFE7009808280ED047E0059941F200204C
:10110000C0F27A00086047E0059941F20020C0F281
:101110007A00086040E041F20400C4F20200016875
:1011200001F470110391006800F48030029003997B
:10113000022000EB91400390029848B9FFE7039822
:1011400040F60011C0F23D014843059908601BE0DC
:1011500041F20400C4F2020000688003002809D5AF
:10116000FFE7039840F60011C0F23D01484305999E
:10117000086008E0039841F20021C0F27A01484378
:1011800005990860FFE7FFE706E0059941F20020B6
:10119000C0F27A000860FFE741F20400C4F20200E6
:1011A000016801F0F0010491049909090491049A7D
:1011B00042F2AE71C0F600018A5C0192059B1A688A
:1011C000DDF804C022FA0CF25A60026802F4E06210
:1011D0000492049A120A0492049A8A5C0192059B72
:1011E0005A68DDF804C022FA0CF29A60026802F430
:1011F00060520492049AD20A0492049A895C019182
:10120000059A5168019BD940D160006800F44040C4
:1012100004900498800B0490049942F2AA70C0F6DE
:101220000000405C01900599C868019AB0FBF2F09B
:10123000086106B07047000080B58EB001210791AB
:101240000846FFF707FF079908200090FFF702FF05
:101250004FF40050ADF83400032001908DF83600B3
:10126000182002908DF8370040F60040C4F20100CB
:1012700003900DA90491FFF747FA00980799FFF72B
:10128000E9FE019B029A039804994FF4004CADF8D3
:1012900034C08DF836308DF83720FFF735FA0799CE
:1012A0004FF48040FFF79EFE43F60000C4F20000BA
:1012B000069000F061F808A8059000F0FDF8059987
:1012C00006984FF48272ADF822200022ADF8242057
:1012D000ADF82620ADF828204FF40073ADF82A3081
:1012E000ADF82C20ADF82E2000F0B2F80698079942
:1012F00000F02CF80EB080BD80B582B08DF80700EC
:10130000FFE743F60000C4F20000022100F074F889
:1013100008B9FFE7F5E79DF8071043F60000C4F2AF
:10132000000000F08BF8FFE743F60000C4F2000075
:10133000012100F061F808B9FFE7F5E743F6000086
:10134000C4F2000000F074F802B080BD82B00190D9
:101350008DF803109DF8030030B1FFE7019908886C
:1013600040F04000088005E00199088820F0400026
:101370000880FFE702B0704780B584B003900398FF
:1013800043F20001C4F2010188420BD1FFE74FF4A0
:10139000805002900121FFF779FE02980021FFF7AB
:1013A00075FE27E0039843F60001C4F2000188426D
:1013B0000BD1FFE74FF4804001900121FFF72EFE93
:1013C00001980021FFF72AFE13E0039843F600413D
:1013D000C4F2000188420BD1FFE74FF400400090B7
:1013E0000121FFF71BFE00980021FFF717FEFFE722
:1013F000FFE7FFE704B080BD82B00190ADF80210B6
:1014000000208DF8010001980089BDF80210084005
:10141000000420B1FFE701208DF8010003E0002067
:101420008DF80100FFE79DF8010002B07047000051
:1014300081B000900098808901B0704782B001901F
:10144000ADF80210BDF802000199888102B0704722
:1014500083B0029001910020ADF80200029800884C
:10146000ADF80200BDF8020000F44150ADF80200F2
:10147000019908884A8810438A881043CA88104313
:101480000A8910434A8910438A891043C989014354
:10149000BDF802000843ADF80200BDF80200029951
:1014A00008800299888B20F4006088830198008A64
:1014B0000299088203B0704781B000900099002023
:1014C000088000994880009988800099C880009918
:1014D000088100994881009988810099C881009904
:1014E0000720088201B070477047000080B500F007
:1014F00001F880BD84B000200390029041F2000109
:10150000C4F20201086840F480300860FFE741F24D
:101510000000C4F20200006800F40030029003985A
:1015200001300390FFE702990020019039B9FFE7ED
:101530000398B0F5A06018BF01200190FFE7019863
:10154000C0070028E3D1FFE741F20000C4F2020027
:1015500000688003002803D5FFE70120029002E025
:1015600000200290FFE70298012851D1FFE742F2E4
:101570000001C4F20201086840F010000860086829
:1015800020F007000860086840F00200086041F29F
:101590000401C4F20201009108680860086808604C
:1015A000086840F480600860086820F47C100860D7
:1015B000086840F4E810086041F20001C4F202013A
:1015C000086840F080700860FFE741F20000C4F254
:1015D000020000688001002801D4FFE7F5E741F22E
:1015E0000401C4F20201086820F0030008600868E2
:1015F00040F002000860FFE741F20400C4F202007C
:10160000006800F00C00082801D0FFE7F4E700E0D4
:10161000FFE704B07047000080B582B000900098EA
:10162000B0F1807F03D3FFE7012001901BE0009819
:1016300020F07F4001384EF21401CEF20001086024
:101640004FF0FF300F21FFF7B7F94EF21801CEF23D
:101650000001002008604EF21002CEF200020721C5
:1016600011600190FFE7019802B080BD80B500F0E5
:101670004BFB80BD80B541F20002C4F2020210684B
:1016800040F00100106041F20401C4F20201086858
:101690000023CFF6FF031840086010684FF6FF7371
:1016A000CFF6F66318401060106820F480201060B8
:1016B000086820F4FE00086041F20801C4F202014B
:1016C0004FF41F000860FFF711FF4EF60851CEF2ED
:1016D00000014FF00060086080BD000080B584B05C
:1016E00043F60000C4F2010040F2255100F0E2F898
:1016F000012818D1FFE743F60000C4F2010000F012
:1017000029FAADF80E009DF80E0040F64401C2F231
:1017100000010B6840F24442C2F20002D054086853
:1017200001300860FFE743F60000C4F2010040F218
:10173000244100F0BFF801281AD1FFE743F600006A
:10174000C4F2010000F006FA40F64401C2F20001C2
:1017500001910B6840F24440C2F200000022029264
:10176000C254096800F092FA019902980860FFE7F4
:1017700004B080BD82B001908DF803109DF8030085
:1017800030B1FFE70199888940F40050888105E075
:101790000199888920F400508881FFE702B07047E2
:1017A00080B586B00590059843F60001C4F20101AA
:1017B00088420BD1FFE74FF4804004900121FFF7EE
:1017C00065FC04980021FFF761FC4FE0059844F2A6
:1017D0000041C4F2000188420BD1FFE74FF4003012
:1017E00003900121FFF71AFC03980021FFF716FC74
:1017F0003BE0059844F60001C4F2000188420BD199
:10180000FFE74FF4802002900121FFF707FC0298C8
:101810000021FFF703FC27E0059844F60041C4F2DD
:10182000000188420BD1FFE74FF400200190012115
:10183000FFF7F4FB01980021FFF7F0FB13E0059898
:1018400045F20001C4F2000188420BD1FFE74FF4DA
:10185000801000900121FFF7E1FB00980021FFF7C5
:10186000DDFBFFE7FFE7FFE7FFE7FFE706B080BD2F
:1018700082B00190ADF8021000208DF80100BDF893
:101880000200B0F5007F01D1FFE7FFE70198008873
:10189000BDF802100840000420B1FFE701208DF8D8
:1018A000010003E000208DF80100FFE79DF8010032
:1018B00002B0704786B00590ADF81210002003907A
:1018C000029001908DF80300BDF8120040F66A11F5
:1018D000884201D1FFE7FFE79DF81200400901901F
:1018E000BDF8120000F01F0002900299012088400C
:1018F00002900198012806D1FFE705988189029896
:101900000840029010E00198022806D1FFE70598F0
:10191000018A02980840029005E00598818A0298A1
:1019200008400290FFE7FFE79DF81300039003993A
:10193000012088400390059801880398084003908F
:10194000029838B1FFE7039820B1FFE701208DF836
:10195000030003E000208DF80300FFE79DF803007B
:1019600006B0704786B00590ADF812108DF81120C2
:1019700000200390029001900090BDF8120040F604
:101980006A11884201D1FFE7FFE7059800909DF8B2
:10199000120040090390BDF8120000F01F000290F1
:1019A00002990120884001900398012804D1FFE7A3
:1019B00000980C3000900CE00398022804D1FFE757
:1019C00000981030009003E0009814300090FFE77A
:1019D000FFE79DF8110030B1FFE7019A0099086810
:1019E0001043086005E0019A009908689043086078
:1019F000FFE706B07047000080B58CB00B900A91ED
:101A00000020099008900790069005900A98808918
:101A100008B1FFE7FFE70B9805900B98008A099043
:101A200009984CF6FF71084009900A98C1880998F6
:101A30000843099009980B9908820B9880890990AE
:101A400009984EF6F311084009900A9988880A8986
:101A500010434989014309980843099009980B9953
:101A600088810B98808A099009984FF6FF410840B9
:101A700009900A98818909980843099009980B9957
:101A800088826846FFF71EFB059843F60001C4F202
:101A90000101884203D1FFE70398089002E0029811
:101AA0000890FFE70B988089000400280AD5FFE71B
:101AB0000898192148430A9909684900B0FBF1F0D8
:101AC000079009E00898192148430A990968890094
:101AD000B0FBF1F00790FFE7079848F21F51C5F2FD
:101AE000EB11A0FB01016FF00F0000EA510009901B
:101AF000079A09980009642100FB112006900B98B1
:101B000080890004002810D5FFE70699322000EBF9
:101B1000C10048F21F51C5F2EB11A0FB0110C0F348
:101B200042110998084309900FE00699322000EB12
:101B3000011048F21F51C5F2EB11A0FB0110C0F3D8
:101B40004311099808430990FFE709980B99088108
:101B50000CB080BD81B00090009880886FF35F204A
:101B600001B0704782B00190ADF80210BDF80200DC
:101B70006FF35F200199888002B0704781B00090B8
:101B800000994FF416500860009900208880009951
:101B9000C88000990881009A0C21518100998881A0
:101BA00001B07047FFE7FEE780B594B004210291D1
:101BB000139140F60000C4F2010012904FF400723D
:101BC000119210910F904FF480600E904FF480406E
:101BD0000D9043F60000C4F201000C90139801210F
:101BE0000591FFF737FA1198ADF82C00032001900A
:101BF0008DF82E0018208DF82F0012980BA9039154
:101C0000FEF782FD05991098FFF724FA019A0298D1
:101C100003990E9BADF82C308DF82E208DF82F00F7
:101C20000F98FEF771FD05990D98FFF713FA0C98C0
:101C3000FFF7B6FD07A80490FFF7A0FF04994FF443
:101C4000E13007900C98FFF7D7FE059825218DF815
:101C5000181002218DF819108DF81A108DF81B003C
:101C600006A8FEF745FE059A0C9840F22551FFF7AD
:101C700079FE059A0C9840F22441FFF773FE05990E
:101C80000C98FFF777FD14B080BD000080B582B0DE
:101C900001900091019942F2BE70C0F6000000F080
:101CA0000BF902B080BD000080B582B08DF807004E
:101CB0009DF8071043F60000C4F20100FFF752FF41
:101CC000FFE743F60000C4F201008021FFF7D0FDDA
:101CD00008B9FFE7F5E702B080BD000081B00090D1
:101CE00000984FF47A71484340F24041C2F200013B
:101CF0000860FFE740F24040C2F20000006808B10F
:101D0000FFE7F7E701B0704740F24040C2F2000041
:101D1000006840B1FFE740F24041C2F200010868AC
:101D200001380860FFE7704780B582B001900091EC
:101D30009DF80400FFF7B8FF019802B080BD0000D5
:101D400010B58AB00020099000F09CF8FFF72CFF36
:101D50004FF4A060FEF722FEFFF76EFAFEF704FFD5
:101D600042F2C970C0F6000000F0A6F8FFE70021BB
:101D7000049108916A46916001200790506040F2FA
:101D80000400C2F200001060482228230846FFF732
:101D900023F8079804996A469060506040F26C10EE
:101DA000C2F20000039010601D2205921B230693CF
:101DB0000846FFF711F803980499059A069BDDF889
:101DC0001CE0EC460224CCF80840CCF804E0CCF847
:101DD00000000846FFF700F803980499059A069B4F
:101DE000DDF81CE0EC460324CCF80840CCF804E015
:101DF000CCF800000846FEF7EFFF03980499059A17
:101E0000069BDDF81CE0EC460424CCF80840CCF836
:101E100004E0CCF800000846FEF7DEFF03980499C2
:101E2000059A069BDDF81CE0EC460524CCF808403A
:101E3000CCF804E0CCF800000846FEF7CDFF03988C
:101E40000499059A069BDDF81CE0EC460624CCF8C4
:101E50000840CCF804E0CCF800000846FEF7BCFFD0
:101E600003980499059A069BDDF81CE0EC460724CC
:101E7000CCF80840CCF804E0CCF800000846FEF7A7
:101E8000ABFF74E780B540F2E010C2F200000068DA
:101E90004DF68361C4F21B31A0FB0110800CFFF7EB
:101EA000BBFB10B1FFE7FFE7FEE74FF0FF3000217B
:101EB000FEF782FD80BD00000FB4054B10B503A9ED
:101EC000044A029800F0DAF810BC5DF814FB000038
:101ED000291D00080000002002E008C8121F08C1E8
:101EE000002AFAD170477047002001E001C1121F9B
:101EF000002AFBD1704700002DE9FF5F82B000216E
:101F0000DDE90430020DDDF840B0034318D044F69B
:101F10001050A2F2FF3242431514119801281FD02D
:101F2000A5EB0B00401C5FEA000A4FF000064E4F85
:101F3000DFF83891B046504615D5CAF1000413E0D9
:101F4000119801244AA3012801D16FEA0B010298DC
:101F5000119AC0E90031C0E9024206B0BDE8F09F25
:101F6000CBF10000DFE704460021404A491842EB6C
:101F70000450CDE9001012E0E00707D032463B469E
:101F800040464946FEF7DEF98046894632463B46E2
:101F900010461946FEF7D6F906460F466410002C87
:101FA000EAD1DDE90401DDE90023BAF1000F06DA28
:101FB000FEF7C8F942464B46FEF7C4F905E0FEF7C6
:101FC00033FA42464B46FEF72FFA04460E460022ED
:101FD000284BFEF7B1FA03D84FF0FF30014607E077
:101FE0000022254B20463146FEF705F9FEF78BFA15
:101FF000102409E0002C0ADB0A220023FEF7CAF8AD
:10200000039B30321A55641E50EA0102F2D1641C5F
:10201000039AC4F111031444119A012A03D0012236
:1020200008430DD10AE0084304D000204FF0110B03
:10203000119072E7A3EB0B056D1E0DE05B4504DD0F
:102040004FF0000205F1010504E003DA4FF0000251
:10205000A5F10105002AECD002981199C0E90231DE
:10206000C0E9004579E70000000014400000F03F9F
:10207000300000000000F0430000E03F2DE9FF4F7A
:1020800095B09B468946064600250FE2252877D164
:1020900000242746F84A0121059400E0044316F87D
:1020A000013F203B01FA03F01042F7D130782A2893
:1020B00011D06FF02F033078A0F13002092A16D822
:1020C000059A44F0020402EB820203EB4202104440
:1020D000761C0590EFE759F8042B0592002A03DAE5
:1020E000504244F40054059044F00204761C3078C9
:1020F0002E2816D116F8010F44F004042A280DD01A
:102100006FF02F023078A0F13003092B09D807EBCC
:10211000870302EB4303C718761CF3E759F8047BE7
:10212000761C30786C280FD006DC4C2817D0682835
:102130000DD06A2814D104E0742810D07A280FD169
:102140000DE044F400140AE044F4801401E044F487
:1021500040147278824202D104F58014761C761CF9
:10216000307866280BD013DC582877D009DC00289B
:1021700075D04528F6D04628F4D047281AD19DE1DD
:1021800018E0632835D0642879D0652812D195E10C
:10219000702873D008DC6728F1D069286FD06E28CA
:1021A0000DD06F2806D1B5E073282CD0752875D0D6
:1021B000782874D05A46179990476D1C75E1C4F37E
:1021C0000250022809D003280DD0D9F800100428A5
:1021D0000DD00D6009F1040967E1D9F80010EA1784
:1021E000C1E90052F6E7D9F800100D80F2E70D7052
:1021F000F0E719F8041B8DF8001000208DF801009D
:10220000EA46012003E059F804AB4FF0FF306107C4
:102210004FF0000102D40DE008F101018846B942F7
:102220000FDA8045F8DB1AF808100029F4D108E02D
:1022300008F1010188468142FADB1AF808100029EA
:10224000F6D105985B46A0EB080721463846179A59
:1022500000F094FA284400EB080507E04DE029E17E
:102260000DE01AF8010B5A4617999047B8F101088A
:10227000F7D25B4621463846179A13E142E00A221C
:102280000092C4F302524FF0000A022A08D059F813
:1022900004CB032A4FEAEC710AD00DE029E02AE0D2
:1022A00009F1070121F00702F2E802C1914609E0B5
:1022B0000FFA8CFC4FEAEC71042A03D14FFA8CFC24
:1022C0004FEAEC71002907DA0A460021DCF1000C24
:1022D00061EB02012D2202E0220504D52B228DF8AC
:1022E0000420012203E0E20701D02022F7E7904614
:1022F00059E00A2102E010220DE010214FF0000AFF
:1023000000910BE010224FF0000A44F0040408276B
:10231000009203E008224FF0000A0092C4F3025238
:10232000022A05D059F804CB0021032A08D009E07D
:1023300009F1070121F00702F2E802C1914605E028
:102340001FFA8CFC042A01D10CF0FF0C4FF000089E
:10235000220728D5702806D0009B83F0100353EA8B
:102360000A0305D00EE040228DF80420012208E087
:102370005CEA010206D030228DF804208DF80500B9
:1023800002229046009B83F0080353EA0A030AD115
:102390005CEA010201D1620705D530228DF80420E4
:1023A0004FF001087F1E582804D034A003900EA8D7
:1023B00002900DE036A0F9E753466046009AFDF71B
:1023C000E9FE84460398825C0298401E02900270E7
:1023D0005CEA0100F0D1029806A9081A00F1200A6F
:1023E000600702D524F4803400E00127574502DD60
:1023F000A7EB0A0000E0002000EB0A01009005981E
:102400004144401A0590E00306D45B462146179AE2
:10241000059800F0B3F90544002706E001A85A46E4
:10242000C05D179990476D1C7F1C4745F6DBE003A4
:102430000CD55B462146179A059800F09FF9054494
:1024400004E030205A46179990476D1C0099481EA9
:1024500000900029F5DC08E0029802995A460078BD
:10246000491C0291179990476D1CBAF10001AAF11D
:10247000010AF1DC65E10000092801003031323346
:1024800034353637383961626364656600000000B0
:10249000303132333435363738394142434445469A
:1024A0000000000000F058F90544761C3078002840
:1024B0007FF4ECAD19B02846BDE8F08F620700D478
:1024C000062709F1070222F0070CFCE80223E14687
:1024D00003F000485FEA080C02D00FF2702C0DE008
:1024E0005FEA045C02D50FF2682C07E05FEAC47C67
:1024F00002D00FF2602C01E0AFF2700C4FF0FF3809
:1025000023F00043CDF850C065280CD006DC4528E8
:1025100009D046281DD047283DD13DE0662818D077
:1025200067287ED138E00021112F01DB112000E067
:10253000781CCDE9000106A90EA8FFF7DDFCDDE956
:102540000F010E9A03910021009207F1010A0491F4
:102550004DE04FF000400097CDE9011006A90EA80C
:10256000FFF7CAFCDDE90F0203920E9B11990022CE
:10257000DDF80CA00093049211B9791C00EB010A5C
:10258000B7EB0A0004D4C0F1FF3007F1010A049050
:10259000AAEB0700019044E0012F00DA0127002197
:1025A000112F01DD112000E03846CDE9000106A918
:1025B0000EA8FFF7A1FCDDE90F010E9A039100219F
:1025C00004910092BA4621070CD40399514500DAD0
:1025D0008A46BAF1010F05DD009AAAF10101515CAA
:1025E000302908D0B84202DA10F1040F06DA0121CE
:1025F000CDE9011015E0AAF10101E9E7002805DCA9
:10260000049901440491AAEB000102E0411C5145E8
:1026100000DD8A460499401A401C01904FF00040AA
:102620000290200704D40198504501DBCDF80480C6
:1026300000208DF84F0002980DF14F07B0F1004FC8
:1026400025D02B200E9002984FF0020800280CDABB
:10265000404202902D200E9007E00A210298FDF7DB
:1026600083FD3031029007F8011DB8F10001A8F197
:102670000108F2DC02980028EFD1791E0E9808704C
:10268000307800F0200040F0450007F8020D12A855
:10269000C01B00F107081498007800B1012000EB7E
:1026A0000A01019801EBE07105984144401A401E6F
:1026B0000590E00306D45B462146179A059800F082
:1026C0005DF805441498007818B15A461799904758
:1026D0006D1CE00324D55B462146179A059800F04F
:1026E0004DF805441CE00498002807DBDDE90301F0
:1026F000884203DD0098405C179901E0179930206B
:102700005A469047049805F10105401C0490019831
:10271000401E019004D12E205A46179990476D1CF7
:10272000BAF10001AAF1010ADDDC05E017F8010B9E
:102730005A46179990476D1CB8F10001A8F101089D
:10274000F4DC5B462146179A0598ABE62D000000A5
:102750002B000000200000002DE9F0410446002578
:102760001E461746880404D405E039462020B047A9
:102770006D1C641EF9D52846BDE8F0812DE9F041B5
:10278000044600251E469046C80301D5302700E0C8
:102790002027880404D505E041463846B0476D1C23
:1027A000641EF9D52846BDE8F08102040608000041
:1027B0000000010203040102030406070809726510
:1027C00063763A2025730D0A003132330000000091
:1027D000F02700080000002088020000A80600087A
:1027E0003029000888020020C0090000E81E000807
:1027F000414816FF010D15FD158D01C101E101F1E3
:102800000101F9F5E54D1DBD014E1DEDF5F9010183
:102810005FF191FD0575750330174575058DFD0157
:102820001119FDFD191141C1FDFDC1410101FFFF5C
:102830007A0102116E030504060701940605035987
:1028400051790139134919398F2948911C3E3F03A9
:10285000013583C7FE7C300BF0FC1E070303071E07
:10286000FCF06B06062A1BFCFE161918B48EFCF849
:10287000C948280AE0F0F8DECFCFC3C1F03B300BE7
:102880000F3F78E0C0C0E0783F0F2808C0C0FFFFCE
:10289000C0C0C0801C73F7C6013BE37B1889480A9F
:1028A000438001898F2FE0FEFEFCF0E001ACF8FCD4
:1028B000FFB3412E073F7F7FFF019C7F7F7F8836DC
:1028C0000C040418E02C80E0FC1D0410FCE0801DCA
:1028D00006081F3F011A7F04841F0F0214A24A0436
:1028E00045180140011908391819085A04085A08EE
:1028F000085A10085A20085A400839661908112940
:10290000412908294129082941290829412908295B
:10291000412908294129082941290829415A142017
:102920002908292029082920290859C70000000062
:0400000508000131BD
:00000001FF
