:020000040800F2
:100000007015002045010008F9020008F1020008FF
:10001000F502000831020008E907000800000000AE
:10002000000000000000000000000000FD040008C7
:10003000350200080000000081030008ED050008FB
:100040005F0100085F0100085F0100085F01000810
:100050005F0100085F0100085F0100085F01000800
:100060005F0100085F0100085F0100085F010008F0
:100070005F0100085F0100085F0100085F010008E0
:100080005F0100085F0100085F0100085F010008D0
:100090005F0100085F0100085F0100085F010008C0
:1000A0005F0100085F0100085F0100085F010008B0
:1000B0005F0100085F0100085F0100085F010008A0
:1000C0005F0100085F0100085F0100085F01000890
:1000D0005F0100084D0600085F0100085F0100088D
:1000E0005F0100085F0100085F0100085F01000870
:1000F0005F0100085F0100085F0100085F01000860
:100100005F0100085F0100085F0100085F0100084F
:100110005F0100085F0100085F0100085F0100083F
:100120005F0100085F0100085F0100085F0100082F
:10013000DFF80CD000F04AF800480047B90B00087F
:10014000701500200648804706480047FEE7FEE796
:10015000FEE7FEE7FEE7FEE7FEE7FEE7FEE7FEE777
:10016000F5050008310100082DE9F05F0546002083
:1001700092469B4688460646814640241BE0284618
:1001800041464746224600F042F853465A46C01AB6
:10019000914110D311461846224600F029F82D1A35
:1001A00067EB01084F4622460120002100F020F8AD
:1001B00017EB00094E41201EA4F10104DFDC484684
:1001C00031462A464346BDE8F09F0000064C074DE5
:1001D00006E0E06840F0010394E807009847103417
:1001E000AC42F6D3FFF7A8FFE00F000800100008AC
:1001F000202A04DB203A00FA02F1002070479140E7
:10020000C2F1200320FA03F3194390407047202ADB
:1002100004DB203A21FA02F00021704721FA02F3B0
:10022000D040C2F1200291400843194670470000B7
:10023000FEE70000704700002DE9F041CA7802F0A7
:100240000F0CD30644BF8B784CEA030C09880B06CD
:1002500021D0056800234FF001084FF00F0E002653
:1002600008E000BF282A08BF47610136082E03F1C5
:1002700004030FD008FA06F70F42F6D00EFA03F483
:1002800025EA04040CFA03F5482A45EA0405E9D1F5
:100290000761EAE70560B1F5807F38BFBDE8F0810E
:1002A000446800234FF4807E4FF00F08002607E0DB
:1002B000282A08BF47610136082E03F1040310D035
:1002C0000EFA06F707EA0105BD42F4D108FA03F574
:1002D000AC430CFA03F5482A44EA0504E8D1076167
:1002E000E9E74460BDE8F081416170470161704712
:1002F000FEE70000FEE700007047000010B5C1787F
:1003000000294EF20011CEF200011AD04EF60C5226
:10031000CEF200021268072323EA12220F23C2F151
:10032000040C23FA02F24378847890F800E003FA90
:100330000CF322401A43120101EB0E0383F8002351
:1003400000E080310078012300F01F0203FA02F27E
:10035000C0F3421041F8202010BD000040F0806042
:100360004EF60C5140F0FD70CEF20001086070476F
:100370004EF623510001CEF20001087070470000D4
:1003800070470000002941F21801C4F202010A6816
:100390000CBF22EA000010430860704710B541F21C
:1003A0000404C4F20204226802F00C02082A41F29A
:1003B0000022C0F27A021CD12368D4F800C0C3F333
:1003C000834E5FEACC330EF1020C06D440F60012E5
:1003D000C0F23D020CFB02F20BE023689B0302D447
:1003E0000CFB02F205E040F60012C0F23D020CFBED
:1003F00002F20260226840F6D073C2F30312C0F624
:1004000000039A5C0168D14041602268C2F3022275
:100410009A5C21FA02F282602268C2F3C2229A5CDC
:1004200040F6CC73D140C1602268C0F60003C2F32D
:1004300081329A5CB1FBF2F1016110BD10B586B05A
:100440004FF480500121FFF79DFF4FF08270019023
:100450004FF4003002900120C0F2002003903820B9
:1004600043F2000404900720C4F20104ADF8140024
:1004700001A9204600F01EF82046012100F006F8F0
:10048000FF2000F083FA06B010BD000002880029AA
:1004900018BF012122F0400242EA81110180704719
:1004A0000089084018BF012070470000808970470C
:1004B000818170472DE9F04102880B8802F4415C8C
:1004C0004A88B1F804E043EA0C03CC881A430D894A
:1004D00042EA0E024E8922438F892A43B1F80E80E8
:1004E00032433A4342EA08020280828B22F40062DD
:1004F0008283098A0182BDE8F08100007047000014
:1005000080B500F001F880BD82B041F20400002106
:10051000C4F202000191009150F8041C41F48031B2
:1005200040F8041C50F8041C01F4003100910199BA
:1005300001310191009919B90199B1F5A06FF1D17B
:1005400050F8041C890354BF002101210091009937
:10055000012936D142F20001C4F202010A6842F0D8
:1005600010020A600A6822F003020A600A6842F078
:1005700002020A600168016001680160016841F4DB
:1005800080610160016821F47C110160016841F41F
:10059000E811016050F8041C41F0807140F8041C1F
:1005A00050F8041C8901FBD5016821F003010160AA
:1005B000016841F002010160016801F00C010829A5
:1005C000FAD102B07047000010B520F07F404EF223
:1005D00010040138CEF2000460600F20FFF7C8FE5F
:1005E0000020A0600720206010BD000080B500F052
:1005F000CDFA80BD80B541F20000C4F2020001686E
:10060000002241F0010101604168CFF6FF02114074
:10061000416001684FF6FF72CFF6F662114001604B
:10062000016821F480210160416821F4FE014160EC
:100630004FF41F018160FFF763FF4EF60850CEF2C2
:1006400000004FF00061016080BD000010B543F66E
:100650000004C4F20104204640F2255100F034F8B1
:1006600038B3204600F0BCF840F2E801C2F20001C5
:100670000A88130448BF10BD5304C0B205D40D2826
:100680000AD142F48040088010BD0A2814BF00201F
:1006900042F40040088010BD40F22004531C6FF368
:1006A0009F32C2F20004A05498B2C72888BF00232A
:1006B0000B8010BD8289002918BF012122F400524D
:1006C00042EA413181817047C1F34212022A06D0C9
:1006D000012A14BF00F1140200F10C0201E000F144
:1006E00010021288008801F01F03090ADA40C8408E
:1006F000104000F001007047C1F3421301F01F0CDD
:100700001421022B08BF1021012B4FF0010308BF59
:100710000C21002A03FA0CF243580CBF23EA020210
:100720001A4342507047000070B586B00446008AF4
:100730000D46C98820F4405008432082A0894EF617
:10074000F3110840A9882A896B890843104318438C
:10075000A081A08AA98920F44070084301AEA0823C
:100760003046FFF71BFE43F6000106F10800C4F215
:1007700001018C4208BF06F10C0000681922B4F98F
:100780000C1050432A680123B1F1FF3FC8BF022378
:1007900002FA03F1B0FBF1F048F21F51C5F2EB1180
:1007A000A0FB01235A096FF0630302FB0300B4F9B5
:1007B0000C300326B3F1FF3FC8BF042600FA06F051
:1007C00000F13200A0FB01014FF00700C8BF0F206D
:1007D00000EA511040EA0210208106B070BD00000E
:1007E00080886FF35F207047FEE70000B0B50446D5
:1007F00012A0214600F06AFA00F05EF900F0F0F86D
:1008000040F60005C4F2010528461021FFF76CFDF3
:10081000202000F0BBF8C4F3071000F0B7F8200167
:10082000C0B200F0B3F8002000F0B0F82846102164
:10083000FFF75CFD00F0D4F8B0BD00BF66653A2557
:10084000780D0A00B0B582B004200121FFF79AFDAF
:1008500001200121FFF796FDA02040F60004C1F61B
:100860000300C4F2010401AD019020462946FFF7C0
:10087000E3FC2046A021FFF739FD4020C1F603002C
:10088000019020462946FFF7D7FC20464021FFF77C
:100890002DFD1020C1F20300019020462946FFF7EC
:1008A000CBFC20461021FFF721FDFFF7C7FD00F02C
:1008B00033F840F20801C2F20001088002B0B0BD76
:1008C000F0B581B040F60004C4F201040F460646BC
:1008D000204610211546FFF707FD032000F056F8CB
:1008E000C7F3074000F052F8C7F3072000F04EF8B6
:1008F000F8B200F04BF845B1013E00BFFF2000F018
:1009000045F8013D06F8010FF8D120461021FFF708
:10091000EDFC01B0F0BD0000B0B540F60004C4F23B
:10092000010420461021FFF7DFFC902000F02EF894
:10093000002000F02BF8002000F028F8002000F044
:1009400025F8FF2000F022F80546FF2000F01EF8F1
:1009500040EA052520461021FFF7C8FC2846B0BD17
:10096000B0B540F60004C4F2010420461021FFF7A0
:10097000BBFC052000F00AF8FF2000F007F8054650
:1009800020461021FFF7B2FC2846B0BD70B543F2F7
:10099000000405460026C4F2010400BF20460221DF
:1009A000FFF77EFD20B9C72E06F10106F6D90EE04D
:1009B00020462946FFF77CFD002500BF2046012187
:1009C000FFF76EFD30B9C72D05F10105F6D90020FE
:1009D000C0B270BD2046FFF769FDC0B270BD000017
:1009E00080B500BFFFF7BCFFC007FBD180BD000092
:1009F0002DE9F04F83B0884692466FF31F3840F2DE
:100A0000EA0502900A0B0F46C8F58050D146C2F2A3
:100A10000005504538BF81464FEA023B0192284607
:100A200059464FF48052FFF74BFF1FFA89F656B133
:100A3000002000BF81B24144695CFF290AD1013026
:100A400081B2B142F6D3029C39462046324600F0CC
:100A500045F816E00198FFF7C9FE029805EB08017A
:100A600001380139324600BF10F8013F013A01F860
:100A7000013FF9D1284659464FF4805200F02EF834
:100A8000029C1FFA8AF0019AB04211D0AAEB090A1F
:100A900034441FFA8AF0D146013202943744B0F54B
:100AA000805F4FF4805028BF81464FF00008B3E7C5
:100AB00003B0BDE8F08F000010B540F60004C4F2AA
:100AC000010420461021FFF70FFC0620FFF75EFF10
:100AD00020461021FFF70AFC10BD00002DE9F0416F
:100AE0000646C8B2C0F5807817461446904538BF10
:100AF000474630463A460D4600F01AF8A04528BF52
:100B0000BDE8F081B8B2E41B064405441FFA84F83E
:100B10002746B8F5807F28BF4FF48077BAB23046B9
:100B2000294600F005F8B8F5807FEBD8BDE8F081E4
:100B3000F0B581B040F6000415460F460646C4F2F3
:100B40000104FFF7B9FF20461021FFF7CDFB02207B
:100B5000FFF71CFFC7F30740FFF718FFC7F3072095
:100B6000FFF714FFF8B2FFF711FF3DB1013E00BFE0
:100B700016F8010FFFF70AFF013DF9D120461021B9
:100B8000FFF7B4FBFFF72CFF01B0F0BD41F2EC0022
:100B9000C2F200000168002908BF704701680139EE
:100BA0000160704743F60001C4F201010A88520651
:100BB000FCD5C2B28A80704700F030F84FF4E130C3
:100BC00000F040F84FF4A060FFF7C8FBFFF73AFED3
:100BD000FFF772FF40F20A00C2F200004FF48011EA
:100BE0000322FFF705FF41F2F000C2F200004FF4CC
:100BF00080110322FFF764FEFFF78EFE014602A07C
:100C000000F064F8FEE700BF5732355158585F5284
:100C100065616449443D25640D0A000080B540F2D9
:100C20000400C2F2000000684DF68361C4F21B317B
:100C3000A0FB0101880CFFF7C7FC0020FFF798FB21
:100C400080BD0000F0B587B0054644F204000121E4
:100C5000FFF798FB43F6000440F20020C4F20104C1
:100C6000C1F60300A4F5405606AF0690304639465B
:100C7000FFF7E2FA4FF48060ADF8180004208DF819
:100C80001B0030463946FFF7D7FA40F22530C0F254
:100C90000310019001A8FFF731FB00204FF4402121
:100CA00003900491ADF8140002A920460295FFF7C5
:100CB0003BFD204640F225510122FFF71DFD204655
:100CC0000121FFF7F7FC07B0F0BD00000FB4054BA2
:100CD00010B503A9044A029800F018F810BC5DF89A
:100CE00014FB0000A50B00080000002002E008C86B
:100CF000121F08C1002AFAD170477047002001E096
:100D000001C1121F002AFBD1704700002DE9FF4FDF
:100D10008DB09B460F460446002606E025280BD0E2
:100D20005A460F999047641C761C20780028F5D10C
:100D300011B03046BDE8F08F0025A8460122984941
:100D400000E0054314F8013F203B02FA03F008429B
:100D5000F7D120782E2817D114F8010F45F004059B
:100D60002A280ED06FF02F022078A0F13001092937
:100D70000AD808EB880102EB410100EB0108641C72
:100D8000F2E757F8048B641C20786C280DD004DC43
:100D90004C2812D06A2811D104E074280DD07A288A
:100DA0000CD10AE045F4001507E0617845F48015A0
:100DB000814202D1641C05F58015641C2278692AE1
:100DC00045D008DC002AB3D0582A69D0632A10D055
:100DD000642A08D13BE0702A67D0732A13D0752AA1
:100DE0005CD0782A5CD010465A460F999047761C02
:100DF000D3E017F8040B8DF8000000208DF80100F7
:100E0000E946012003E057F8049B4FF0FF306907E3
:100E10004FF0000501D40AE06D1C45450DDA85420E
:100E2000FADB19F805100029F6D106E06D1C8542A1
:100E3000FCDB19F805100029F8D12E4404E019F85C
:100E4000010B5A460F9990476D1EF8D2A5E00A2073
:100E50000021CDE90801C5F3025002280DD001CFD1
:100E6000C117031E71F100030DDA4FF0000CD0EB37
:100E70000C006CEB01012D2308E0FF1D27F0070794
:100E8000F7E80201EDE72B0504D52B238DF8283078
:100E900001233BE0EB0739D02023F7E70A2000E0ED
:100EA00010200021CDE9080107E01020002145F0C5
:100EB0000405CDE908014FF00808C5F302500228E7
:100EC0000FD001CF00214FF0000A2B071FD5702A49
:100ED0000DD0DDE908C38CF0100C5CEA030C0CD0DB
:100EE00015E0FF1D27F00707F7E80201EBE74022B6
:100EF0008DF828204FF0010A0BE050EA010306D0DC
:100F000030238DF828308DF8292002239A46582A5C
:100F100004D024A20DF120090B9209E026A2F9E7E2
:100F2000DDE90823FFF720F90B9B9B5C09F8013DE5
:100F300050EA0102F4D1ADEB0900203008906807B7
:100F400001D44FF001080899884502DDA8EB0100A3
:100F500000E000208046002506E00AA85A46405DD1
:100F60000F9990476D1C761C5545F6DB04E0302048
:100F70005A460F999047761CB8F10001A8F1010874
:100F8000F5DC05E019F8010B5A460F999047761CDD
:100F90000899481E08900029F4DC641CC5E600008E
:100FA000092801003031323334353637383961623F
:100FB0006364656600000000303132333435363703
:100FC0003839414243444546000000000204060807
:100FD00000000000010203040102030406070809DF
:100FE000001000080000002020000000EC0C0008A9
:100FF000201000082000002050150000FC0C000804
:101000000000000000A24A0416EF48656C6C6F2CCB
:1010100020573235515858210000000000000000D0
:0400000508000131BD
:00000001FF
