:020000040800F2
:10000000E00400204501000871040008990200087E
:100010006D040008B9010008610800080000000034
:10002000000000000000000000000000A50500081E
:10003000BD01000800000000E9040008A90500084F
:100040005F0100085F0100085F0100085F01000810
:100050005F0100085F0100085F0100085F01000800
:100060005F0100085F0100085F0100085F010008F0
:100070005F0100085F0100085F0100085F010008E0
:100080005F0100085F0100085F0100085F010008D0
:100090005F0100085F0100085F0100085F010008C0
:1000A0005F0100085F0100085F0100085F010008B0
:1000B0005F0100085F0100085F0100085F010008A0
:1000C0005F0100085F0100085F0100085F01000890
:1000D0005F010008BD0600085F0100085F0100081D
:1000E0005F0100085F0100085F0100085F01000870
:1000F0005F0100085F0100085F0100085F01000860
:100100005F0100085F0100085F0100085F0100084F
:100110005F0100085F0100085F0100085F0100083F
:100120005F0100085F0100085F0100085F0100082F
:10013000DFF80CD000F02EF800480047A9080008AE
:10014000E00400200648804706480047FEE7FEE737
:10015000FEE7FEE7FEE7FEE7FEE7FEE7FEE7FEE777
:10016000AD0500083101000830B50B4601460020FE
:100170002022012409E021FA02F59D4205D303FA69
:1001800002F5491B04FA02F52844151EA2F10102EA
:10019000F1DC30BD064C074D06E0E06840F001039D
:1001A00094E8070098471034AC42F6D3FFF7C4FF39
:1001B000680B0008880B0008FEE70000704700008D
:1001C0002DE9F047CA7802F00F0CD30644BF8B78B4
:1001D0004CEA030C09880B0625D082465AF8144BCA
:1001E00000F1100E00254FF001094FF00F08002715
:1001F00006E000BF1E600137082F05F1040511D08D
:1002000009FA07F60E42F6D008FA05F324EA0303CA
:100210000CFA05F41C43282A5346EBD0482AEAD1AD
:100220007346E7E70460B1F5807F38BFBDE8F0872B
:10023000436800F1100E00F1140900254FF4807A94
:100240004FF00F08002705E034600137082F05F153
:10025000040512D00AFA07F404EA0106A642F4D112
:1002600008FA05F6B3430CFA05F63343282A4E463E
:10027000EAD0482AE9D17646E6E74360BDE8F08750
:100280008068084018BF0120704700001023002A32
:1002900008BF1423C1507047FEE70000B0B582B01C
:1002A0002020012100F022F90F2041F20044C1F288
:1002B0000300C4F2010401AD019020462946FFF776
:1002C0007FFF2020012100F011F940F2E030C4F658
:1002D0000300019020462946FFF772FF20464FF4A5
:1002E00078710122FFF7D2FF02B0B0BD0A46014685
:1002F00001A000F05FBB00BFB5DA2564D0D0B5DA4D
:100300002564C1D020444F574E0D0A000A460146CD
:1003100001A000F04FBB00BFB5DA2564D0D0B5DA3C
:100320002564C1D02055500D0A0000002DE9F04F82
:1003300085B001900120C0F2011040F2011141F29C
:100340000045C0F20101FF3040F6483B40F2080989
:10035000C4F201050024039001F57F004FF0010A6B
:10036000C0F6000BC2F200090027029005E000BFB2
:100370000137042F04F1040471D017F0FC0F2AD1C7
:100380004FF4FF60012200EAC700C0F2011222FA16
:1003900000F6029A039922FA00F840F20112C0F224
:1003A0000102C14022FA00F00490CAB22846082196
:1003B000FFF76CFFF2B228460421FFF767FF5FFAF0
:1003C00088F228460221FFF761FF04980121C2B29A
:1003D0002846FFF75BFF4FF0000813E0D9F8000054
:1003E00004EB08010AFA01F108421AD08843C9F85F
:1003F0000000F8B23146FFF779FF08F10108B8F1C3
:10040000050FB5D05FFA88F6042E07D83BF8181010
:100410002846FFF735FF20B9E0E700BF002000289D
:10042000DCD0042E08D83BF818102846FFF728FF28
:100430000128E2D103E000BF00200128DDD1D9F876
:10044000000004EB08010AFA01F10842D5D1084383
:10045000C9F80000F8B23146FFF758FFCDE7D9F8E8
:1004600000000199086005B0BDE8F08FFEE70000CC
:100470007047000010B5C17800294EF20011CEF28D
:1004800000011AD04EF60C52CEF200021268072379
:1004900023EA12220F23C2F1040C23FA02F243785A
:1004A000847890F800E003FA0CF322401A4312011A
:1004B00001EB0E0383F8002300E080310078012374
:1004C00000F01F0203FA02F2C0F3421041F82020AC
:1004D00010BD000040F080604EF60C5140F0FD7001
:1004E000CEF200010860704770470000002941F219
:1004F0001801C4F202010A680CBF22EA000010438E
:100500000860704710B541F20404C4F20204226886
:1005100002F00C02082A41F20022C0F27A021CD139
:100520002368D4F800C0C3F3834E5FEACC330EF1E6
:10053000020C06D440F60012C0F23D020CFB02F29F
:100540000BE023689B0302D40CFB02F205E040F6AB
:100550000012C0F23D020CFB02F20260226840F67B
:100560005633C2F30312C0F600039A5C0168D1400F
:1005700041602268C2F302229A5C21FA02F2826090
:100580002268C2F3C2229A5C40F65233D140C16065
:100590002268C0F60003C2F381329A5CB1FBF2F12B
:1005A000016110BD7047000000F068B982B041F2EF
:1005B0000400C4F2020050F8041C002241F00101C2
:1005C00040F8041C0168CFF6FF021140016050F8AA
:1005D000041C4FF6FF72CFF6F662114040F8041C7F
:1005E00050F8041C21F4802140F8041C016821F417
:1005F000FE0101604FF41F01416000210191009153
:1006000050F8041C41F4803140F8041C50F8041CDC
:1006100001F400310091019901310191009919B95A
:100620000199B1F5A06FF1D150F8041C890354BFB2
:100630000021012100910099012936D142F20001E7
:10064000C4F202010A6842F010020A600A6822F04D
:1006500007020A600A6842F002020A60016801604B
:1006600001680160016841F480610160016821F462
:100670007C110160016841F4E811016050F8041C2C
:1006800041F0807140F8041C50F8041C8901FBD52E
:10069000016821F003010160016841F0020101607D
:1006A000016801F00C010829FAD14EF60850CEF28B
:1006B00000004FF00061016002B0704710B543F6D2
:1006C0000004C4F20104204640F2255100F038F83D
:1006D00050B3204600F0C0F840F2D801C2F2000149
:1006E0000B881AB2002A48BF10BD5C04C4B204D4FF
:1006F0000D2C0CD142F4804015E048F2000300209C
:10070000CFF6FF730A2C08BF42EA03000BE040F269
:1007100010006FF39F33C2F20000C454501C82B229
:10072000C72A88BF0020088010BD000082890029E8
:1007300018BF012122F4005242EA41318181704701
:10074000C1F34212022A06D0012A14BF00F114029A
:1007500000F10C0201E000F110021288008801F0A3
:100760001F03090ADA40C840104000F0010070473A
:10077000C1F3421301F01F0C1421022B08BF1021FA
:10078000012B4FF0010308BF0C21002A03FA0CF2E1
:1007900043580CBF23EA02021A434250704700003C
:1007A00070B586B00446008A0D46C98820F44050D2
:1007B00008432082A0894EF6F3110840A9882A89AF
:1007C0006B89084310431843A081A08AA98920F4AB
:1007D0004070084301AEA0823046FFF793FE43F617
:1007E000000106F10800C4F201018C4208BF06F1C5
:1007F0000C0000681922B4F90C1050432A68012338
:10080000B1F1FF3FC8BF022302FA03F1B0FBF1F0E0
:1008100048F21F51C5F2EB11A0FB01235A096FF0FA
:10082000630302FB0300B4F90C300326B3F1FF3F6E
:10083000C8BF042600FA06F000F13200A0FB010157
:100840004FF00700C8BF0F2000EA511040EA021025
:10085000208106B070BD000080886FF35F20704774
:10086000FEE700004FF47A71414340F2DC00C2F22F
:100870000000016001680029FCD1704740F2DC00F3
:10088000C2F200000168002908BF70470168013901
:100890000160704743F60001C4F201010A88520664
:1008A000FCD5C2B28A80704782B000F01FF84FF6C4
:1008B000FF70C0F20F0001904FF4E13000F036F805
:1008C0004FF4A060FFF706FE06A000F073F8FFF7F4
:1008D000E5FC01AC2046FFF729FD4FF47A70FFF7E5
:1008E000C1FFF7E7736461320000000040F20400CA
:1008F000C2F2000000684DF68361C4F21B31A0FB18
:1009000001014FF0FF3000EB91404EF21001CEF2AA
:10091000000148604EF62350CEF20000F022027033
:10092000002207238A600B6002707047F0B587B021
:10093000054644F204000121FFF7D8FD43F6000408
:1009400040F20020C4F20104C1F60300A4F54056B1
:1009500006AF069030463946FFF732FC4FF4806010
:10096000ADF8180004208DF81B0030463946FFF71B
:1009700027FC40F22530C0F20310019001A8FFF7D8
:1009800079FD00204FF4402103900491ADF814004C
:1009900002A920460295FFF703FF204640F22551A9
:1009A0000122FFF7E5FE20460121FFF7BFFE07B059
:1009B000F0BD00000FB4054B10B503A9044A02981E
:1009C00000F018F810BC5DF814FB00009508000852
:1009D0000000002002E008C8121F08C1002AFAD156
:1009E00070477047002001E001C1121F002AFBD1AF
:1009F000704700002DE9FF4F89B09B460446002553
:100A000006E025280BD05A460B999047641C6D1CB4
:100A100020780028F5D10DB02846BDE8F08F0027DA
:100A2000B8460122474900E0074314F8013F203B44
:100A300002FA03F00842F7D120782E2819D114F8D1
:100A4000010F47F004072A280ED06FF02F022078FC
:100A5000A0F1300109290CD808EB880102EB410113
:100A600000EB0108641CF2E70A98641C50F8048B40
:100A70000A9020780028CED0642808D0692806D0B3
:100A800075281ED05A460B9990476D1C58E00A995C
:100A90004FF00A0901C90A91002802DA40422D21CB
:100AA00002E0390504D52B218DF82010012103E047
:100AB000F90704D02021F7E78A4608AE0DE00021AF
:100AC000FAE70A994FF00A0901C90A91F7E749467E
:100AD000FFF74AFB303106F8011D0028F7D1ADEBD6
:100AE000060000F12009780701D44FF00108C8453D
:100AF00002DDA8EB090000E000208046002706E0A8
:100B000008A85A46C05D0B9990476D1C7F1C57453D
:100B1000F6DB04E030205A460B9990476D1CB8F183
:100B20000001A8F10108F5DC05E016F8010B5A46B2
:100B30000B9990476D1CB9F10001A9F10109F4DC92
:100B4000641C65E7092801002000400080000001C6
:100B50000002020406080000000001020304010272
:100B60000304060708090000880B000800000020A5
:100B700010000000D4090008980B000810000020A5
:100B8000D0040000E40900080000000000A24A04AC
:080B9000FFFF0F000000000050
:0400000508000131BD
:00000001FF
